{
	"compilerInput": "{\"language\":\"Solidity\",\"sources\":{\"contracts/BoletosVIP.sol\":{\"content\":\"// SPDX-License-Identifier: MIT\\npragma solidity ^0.8.21;\\n\\ncontract BoletosVIP {\\n    address public owner;\\n    uint256 public precioBoleto = 0.001 ether;\\n    uint8 public maxBoletosPorUsuario = 4;\\n\\n    struct Boleto {\\n        string artista;\\n        string fecha;\\n        uint256 precio;\\n    }\\n\\n    mapping(address => Boleto[]) public boletosComprados;\\n\\n    event BoletoComprado(address comprador, string artista, string fecha, uint256 precio);\\n\\n    constructor() {\\n        owner = msg.sender;\\n    }\\n\\n    function comprarBoleto(string memory artista, string memory fecha) public payable {\\n        require(msg.value == precioBoleto, \\\"Monto incorrecto\\\");\\n        require(boletosComprados[msg.sender].length < maxBoletosPorUsuario, \\\"Limite de boletos alcanzado\\\");\\n\\n        boletosComprados[msg.sender].push(Boleto(artista, fecha, msg.value));\\n        emit BoletoComprado(msg.sender, artista, fecha, msg.value);\\n    }\\n\\n    function boletosUsuario(address usuario) public view returns (Boleto[] memory) {\\n        return boletosComprados[usuario];\\n    }\\n\\n    function retirarFondos() public {\\n        require(msg.sender == owner, \\\"No eres el owner\\\");\\n        payable(owner).transfer(address(this).balance);\\n    }\\n}\\n\"}},\"settings\":{\"optimizer\":{\"enabled\":false,\"runs\":200},\"outputSelection\":{\"*\":{\"\":[\"ast\"],\"*\":[\"abi\",\"metadata\",\"devdoc\",\"userdoc\",\"storageLayout\",\"evm.legacyAssembly\",\"evm.bytecode\",\"evm.deployedBytecode\",\"evm.methodIdentifiers\",\"evm.gasEstimates\",\"evm.assembly\"]}},\"remappings\":[],\"evmVersion\":\"istanbul\"}}",
	"name": "BoletosVIP",
	"bytecode": {
		"linkReferences": {},
		"object": "608060405266038d7ea4c680006001556004600260006101000a81548160ff021916908360ff160217905550348015603657600080fd5b50336000806101000a81548173ffffffffffffffffffffffffffffffffffffffff021916908373ffffffffffffffffffffffffffffffffffffffff160217905550611233806100866000396000f3fe6080604052600436106100705760003560e01c80638da5cb5b1161004e5780638da5cb5b146100d35780639e56d253146100fe578063e8c7844b1461013b578063ee5ade831461017a57610070565b80630d1d4bc7146100755780637ebe4eb0146100a05780638af01880146100bc575b600080fd5b34801561008157600080fd5b5061008a6101a5565b60405161009791906107ee565b60405180910390f35b6100ba60048036038101906100b59190610963565b6101b8565b005b3480156100c857600080fd5b506100d161038e565b005b3480156100df57600080fd5b506100e8610485565b6040516100f59190610a1c565b60405180910390f35b34801561010a57600080fd5b5061012560048036038101906101209190610a63565b6104a9565b6040516101329190610c41565b60405180910390f35b34801561014757600080fd5b50610162600480360381019061015d9190610c8f565b610675565b60405161017193929190610d28565b60405180910390f35b34801561018657600080fd5b5061018f6107cc565b60405161019c9190610d6d565b60405180910390f35b600260009054906101000a900460ff1681565b60015434146101fc576040517f08c379a00000000000000000000000000000000000000000000000000000000081526004016101f390610dd4565b60405180910390fd5b600260009054906101000a900460ff1660ff16600360003373ffffffffffffffffffffffffffffffffffffffff1673ffffffffffffffffffffffffffffffffffffffff1681526020019081526020016000208054905010610292576040517f08c379a000000000000000000000000000000000000000000000000000000000815260040161028990610e40565b60405180910390fd5b600360003373ffffffffffffffffffffffffffffffffffffffff1673ffffffffffffffffffffffffffffffffffffffff1681526020019081526020016000206040518060600160405280848152602001838152602001348152509080600181540180825580915050600190039060005260206000209060030201600090919091909150600082015181600001908161032a919061106c565b506020820151816001019081610340919061106c565b506040820151816002015550507f48a8478d0d46eeed0517258af2d50cc03e2e7cc2103605730852cb87e4b6f81233838334604051610382949392919061113e565b60405180910390a15050565b60008054906101000a900473ffffffffffffffffffffffffffffffffffffffff1673ffffffffffffffffffffffffffffffffffffffff163373ffffffffffffffffffffffffffffffffffffffff161461041c576040517f08c379a0000000000000000000000000000000000000000000000000000000008152600401610413906111dd565b60405180910390fd5b60008054906101000a900473ffffffffffffffffffffffffffffffffffffffff1673ffffffffffffffffffffffffffffffffffffffff166108fc479081150290604051600060405180830381858888f19350505050158015610482573d6000803e3d6000fd5b50565b60008054906101000a900473ffffffffffffffffffffffffffffffffffffffff1681565b6060600360008373ffffffffffffffffffffffffffffffffffffffff1673ffffffffffffffffffffffffffffffffffffffff168152602001908152602001600020805480602002602001604051908101604052809291908181526020016000905b8282101561066a578382906000526020600020906003020160405180606001604052908160008201805461053d90610e8f565b80601f016020809104026020016040519081016040528092919081815260200182805461056990610e8f565b80156105b65780601f1061058b576101008083540402835291602001916105b6565b820191906000526020600020905b81548152906001019060200180831161059957829003601f168201915b505050505081526020016001820180546105cf90610e8f565b80601f01602080910402602001604051908101604052809291908181526020018280546105fb90610e8f565b80156106485780601f1061061d57610100808354040283529160200191610648565b820191906000526020600020905b81548152906001019060200180831161062b57829003601f168201915b505050505081526020016002820154815250508152602001906001019061050a565b505050509050919050565b6003602052816000526040600020818154811061069157600080fd5b9060005260206000209060030201600091509150508060000180546106b590610e8f565b80601f01602080910402602001604051908101604052809291908181526020018280546106e190610e8f565b801561072e5780601f106107035761010080835404028352916020019161072e565b820191906000526020600020905b81548152906001019060200180831161071157829003601f168201915b50505050509080600101805461074390610e8f565b80601f016020809104026020016040519081016040528092919081815260200182805461076f90610e8f565b80156107bc5780601f10610791576101008083540402835291602001916107bc565b820191906000526020600020905b81548152906001019060200180831161079f57829003601f168201915b5050505050908060020154905083565b60015481565b600060ff82169050919050565b6107e8816107d2565b82525050565b600060208201905061080360008301846107df565b92915050565b6000604051905090565b600080fd5b600080fd5b600080fd5b600080fd5b6000601f19601f8301169050919050565b7f4e487b7100000000000000000000000000000000000000000000000000000000600052604160045260246000fd5b61087082610827565b810181811067ffffffffffffffff8211171561088f5761088e610838565b5b80604052505050565b60006108a2610809565b90506108ae8282610867565b919050565b600067ffffffffffffffff8211156108ce576108cd610838565b5b6108d782610827565b9050602081019050919050565b82818337600083830152505050565b6000610906610901846108b3565b610898565b90508281526020810184848401111561092257610921610822565b5b61092d8482856108e4565b509392505050565b600082601f83011261094a5761094961081d565b5b813561095a8482602086016108f3565b91505092915050565b6000806040838503121561097a57610979610813565b5b600083013567ffffffffffffffff81111561099857610997610818565b5b6109a485828601610935565b925050602083013567ffffffffffffffff8111156109c5576109c4610818565b5b6109d185828601610935565b9150509250929050565b600073ffffffffffffffffffffffffffffffffffffffff82169050919050565b6000610a06826109db565b9050919050565b610a16816109fb565b82525050565b6000602082019050610a316000830184610a0d565b92915050565b610a40816109fb565b8114610a4b57600080fd5b50565b600081359050610a5d81610a37565b92915050565b600060208284031215610a7957610a78610813565b5b6000610a8784828501610a4e565b91505092915050565b600081519050919050565b600082825260208201905092915050565b6000819050602082019050919050565b600081519050919050565b600082825260208201905092915050565b60005b83811015610af6578082015181840152602081019050610adb565b60008484015250505050565b6000610b0d82610abc565b610b178185610ac7565b9350610b27818560208601610ad8565b610b3081610827565b840191505092915050565b6000819050919050565b610b4e81610b3b565b82525050565b60006060830160008301518482036000860152610b718282610b02565b91505060208301518482036020860152610b8b8282610b02565b9150506040830151610ba06040860182610b45565b508091505092915050565b6000610bb78383610b54565b905092915050565b6000602082019050919050565b6000610bd782610a90565b610be18185610a9b565b935083602082028501610bf385610aac565b8060005b85811015610c2f5784840389528151610c108582610bab565b9450610c1b83610bbf565b925060208a01995050600181019050610bf7565b50829750879550505050505092915050565b60006020820190508181036000830152610c5b8184610bcc565b905092915050565b610c6c81610b3b565b8114610c7757600080fd5b50565b600081359050610c8981610c63565b92915050565b60008060408385031215610ca657610ca5610813565b5b6000610cb485828601610a4e565b9250506020610cc585828601610c7a565b9150509250929050565b600082825260208201905092915050565b6000610ceb82610abc565b610cf58185610ccf565b9350610d05818560208601610ad8565b610d0e81610827565b840191505092915050565b610d2281610b3b565b82525050565b60006060820190508181036000830152610d428186610ce0565b90508181036020830152610d568185610ce0565b9050610d656040830184610d19565b949350505050565b6000602082019050610d826000830184610d19565b92915050565b7f4d6f6e746f20696e636f72726563746f00000000000000000000000000000000600082015250565b6000610dbe601083610ccf565b9150610dc982610d88565b602082019050919050565b60006020820190508181036000830152610ded81610db1565b9050919050565b7f4c696d69746520646520626f6c65746f7320616c63616e7a61646f0000000000600082015250565b6000610e2a601b83610ccf565b9150610e3582610df4565b602082019050919050565b60006020820190508181036000830152610e5981610e1d565b9050919050565b7f4e487b7100000000000000000000000000000000000000000000000000000000600052602260045260246000fd5b60006002820490506001821680610ea757607f821691505b602082108103610eba57610eb9610e60565b5b50919050565b60008190508160005260206000209050919050565b60006020601f8301049050919050565b600082821b905092915050565b600060088302610f227fffffffffffffffffffffffffffffffffffffffffffffffffffffffffffffffff82610ee5565b610f2c8683610ee5565b95508019841693508086168417925050509392505050565b6000819050919050565b6000610f69610f64610f5f84610b3b565b610f44565b610b3b565b9050919050565b6000819050919050565b610f8383610f4e565b610f97610f8f82610f70565b848454610ef2565b825550505050565b600090565b610fac610f9f565b610fb7818484610f7a565b505050565b5b81811015610fdb57610fd0600082610fa4565b600181019050610fbd565b5050565b601f82111561102057610ff181610ec0565b610ffa84610ed5565b81016020851015611009578190505b61101d61101585610ed5565b830182610fbc565b50505b505050565b600082821c905092915050565b600061104360001984600802611025565b1980831691505092915050565b600061105c8383611032565b9150826002028217905092915050565b61107582610abc565b67ffffffffffffffff81111561108e5761108d610838565b5b6110988254610e8f565b6110a3828285610fdf565b600060209050601f8311600181146110d657600084156110c4578287015190505b6110ce8582611050565b865550611136565b601f1984166110e486610ec0565b60005b8281101561110c578489015182556001820191506020850194506020810190506110e7565b868310156111295784890151611125601f891682611032565b8355505b6001600288020188555050505b505050505050565b60006080820190506111536000830187610a0d565b81810360208301526111658186610ce0565b905081810360408301526111798185610ce0565b90506111886060830184610d19565b95945050505050565b7f4e6f206572657320656c206f776e657200000000000000000000000000000000600082015250565b60006111c7601083610ccf565b91506111d282611191565b602082019050919050565b600060208201905081810360008301526111f6816111ba565b905091905056fea2646970667358221220addf37a112a284aa1a9c693fc09f44bd1783df89f95369574254a9eda2f4681c64736f6c634300081e0033",
		"opcodes": "PUSH1 0x80 PUSH1 0x40 MSTORE PUSH7 0x38D7EA4C68000 PUSH1 0x1 SSTORE PUSH1 0x4 PUSH1 0x2 PUSH1 0x0 PUSH2 0x100 EXP DUP2 SLOAD DUP2 PUSH1 0xFF MUL NOT AND SWAP1 DUP4 PUSH1 0xFF AND MUL OR SWAP1 SSTORE POP CALLVALUE DUP1 ISZERO PUSH1 0x36 JUMPI PUSH1 0x0 DUP1 REVERT JUMPDEST POP CALLER PUSH1 0x0 DUP1 PUSH2 0x100 EXP DUP2 SLOAD DUP2 PUSH20 0xFFFFFFFFFFFFFFFFFFFFFFFFFFFFFFFFFFFFFFFF MUL NOT AND SWAP1 DUP4 PUSH20 0xFFFFFFFFFFFFFFFFFFFFFFFFFFFFFFFFFFFFFFFF AND MUL OR SWAP1 SSTORE POP PUSH2 0x1233 DUP1 PUSH2 0x86 PUSH1 0x0 CODECOPY PUSH1 0x0 RETURN INVALID PUSH1 0x80 PUSH1 0x40 MSTORE PUSH1 0x4 CALLDATASIZE LT PUSH2 0x70 JUMPI PUSH1 0x0 CALLDATALOAD PUSH1 0xE0 SHR DUP1 PUSH4 0x8DA5CB5B GT PUSH2 0x4E JUMPI DUP1 PUSH4 0x8DA5CB5B EQ PUSH2 0xD3 JUMPI DUP1 PUSH4 0x9E56D253 EQ PUSH2 0xFE JUMPI DUP1 PUSH4 0xE8C7844B EQ PUSH2 0x13B JUMPI DUP1 PUSH4 0xEE5ADE83 EQ PUSH2 0x17A JUMPI PUSH2 0x70 JUMP JUMPDEST DUP1 PUSH4 0xD1D4BC7 EQ PUSH2 0x75 JUMPI DUP1 PUSH4 0x7EBE4EB0 EQ PUSH2 0xA0 JUMPI DUP1 PUSH4 0x8AF01880 EQ PUSH2 0xBC JUMPI JUMPDEST PUSH1 0x0 DUP1 REVERT JUMPDEST CALLVALUE DUP1 ISZERO PUSH2 0x81 JUMPI PUSH1 0x0 DUP1 REVERT JUMPDEST POP PUSH2 0x8A PUSH2 0x1A5 JUMP JUMPDEST PUSH1 0x40 MLOAD PUSH2 0x97 SWAP2 SWAP1 PUSH2 0x7EE JUMP JUMPDEST PUSH1 0x40 MLOAD DUP1 SWAP2 SUB SWAP1 RETURN JUMPDEST PUSH2 0xBA PUSH1 0x4 DUP1 CALLDATASIZE SUB DUP2 ADD SWAP1 PUSH2 0xB5 SWAP2 SWAP1 PUSH2 0x963 JUMP JUMPDEST PUSH2 0x1B8 JUMP JUMPDEST STOP JUMPDEST CALLVALUE DUP1 ISZERO PUSH2 0xC8 JUMPI PUSH1 0x0 DUP1 REVERT JUMPDEST POP PUSH2 0xD1 PUSH2 0x38E JUMP JUMPDEST STOP JUMPDEST CALLVALUE DUP1 ISZERO PUSH2 0xDF JUMPI PUSH1 0x0 DUP1 REVERT JUMPDEST POP PUSH2 0xE8 PUSH2 0x485 JUMP JUMPDEST PUSH1 0x40 MLOAD PUSH2 0xF5 SWAP2 SWAP1 PUSH2 0xA1C JUMP JUMPDEST PUSH1 0x40 MLOAD DUP1 SWAP2 SUB SWAP1 RETURN JUMPDEST CALLVALUE DUP1 ISZERO PUSH2 0x10A JUMPI PUSH1 0x0 DUP1 REVERT JUMPDEST POP PUSH2 0x125 PUSH1 0x4 DUP1 CALLDATASIZE SUB DUP2 ADD SWAP1 PUSH2 0x120 SWAP2 SWAP1 PUSH2 0xA63 JUMP JUMPDEST PUSH2 0x4A9 JUMP JUMPDEST PUSH1 0x40 MLOAD PUSH2 0x132 SWAP2 SWAP1 PUSH2 0xC41 JUMP JUMPDEST PUSH1 0x40 MLOAD DUP1 SWAP2 SUB SWAP1 RETURN JUMPDEST CALLVALUE DUP1 ISZERO PUSH2 0x147 JUMPI PUSH1 0x0 DUP1 REVERT JUMPDEST POP PUSH2 0x162 PUSH1 0x4 DUP1 CALLDATASIZE SUB DUP2 ADD SWAP1 PUSH2 0x15D SWAP2 SWAP1 PUSH2 0xC8F JUMP JUMPDEST PUSH2 0x675 JUMP JUMPDEST PUSH1 0x40 MLOAD PUSH2 0x171 SWAP4 SWAP3 SWAP2 SWAP1 PUSH2 0xD28 JUMP JUMPDEST PUSH1 0x40 MLOAD DUP1 SWAP2 SUB SWAP1 RETURN JUMPDEST CALLVALUE DUP1 ISZERO PUSH2 0x186 JUMPI PUSH1 0x0 DUP1 REVERT JUMPDEST POP PUSH2 0x18F PUSH2 0x7CC JUMP JUMPDEST PUSH1 0x40 MLOAD PUSH2 0x19C SWAP2 SWAP1 PUSH2 0xD6D JUMP JUMPDEST PUSH1 0x40 MLOAD DUP1 SWAP2 SUB SWAP1 RETURN JUMPDEST PUSH1 0x2 PUSH1 0x0 SWAP1 SLOAD SWAP1 PUSH2 0x100 EXP SWAP1 DIV PUSH1 0xFF AND DUP2 JUMP JUMPDEST PUSH1 0x1 SLOAD CALLVALUE EQ PUSH2 0x1FC JUMPI PUSH1 0x40 MLOAD PUSH32 0x8C379A000000000000000000000000000000000000000000000000000000000 DUP2 MSTORE PUSH1 0x4 ADD PUSH2 0x1F3 SWAP1 PUSH2 0xDD4 JUMP JUMPDEST PUSH1 0x40 MLOAD DUP1 SWAP2 SUB SWAP1 REVERT JUMPDEST PUSH1 0x2 PUSH1 0x0 SWAP1 SLOAD SWAP1 PUSH2 0x100 EXP SWAP1 DIV PUSH1 0xFF AND PUSH1 0xFF AND PUSH1 0x3 PUSH1 0x0 CALLER PUSH20 0xFFFFFFFFFFFFFFFFFFFFFFFFFFFFFFFFFFFFFFFF AND PUSH20 0xFFFFFFFFFFFFFFFFFFFFFFFFFFFFFFFFFFFFFFFF AND DUP2 MSTORE PUSH1 0x20 ADD SWAP1 DUP2 MSTORE PUSH1 0x20 ADD PUSH1 0x0 KECCAK256 DUP1 SLOAD SWAP1 POP LT PUSH2 0x292 JUMPI PUSH1 0x40 MLOAD PUSH32 0x8C379A000000000000000000000000000000000000000000000000000000000 DUP2 MSTORE PUSH1 0x4 ADD PUSH2 0x289 SWAP1 PUSH2 0xE40 JUMP JUMPDEST PUSH1 0x40 MLOAD DUP1 SWAP2 SUB SWAP1 REVERT JUMPDEST PUSH1 0x3 PUSH1 0x0 CALLER PUSH20 0xFFFFFFFFFFFFFFFFFFFFFFFFFFFFFFFFFFFFFFFF AND PUSH20 0xFFFFFFFFFFFFFFFFFFFFFFFFFFFFFFFFFFFFFFFF AND DUP2 MSTORE PUSH1 0x20 ADD SWAP1 DUP2 MSTORE PUSH1 0x20 ADD PUSH1 0x0 KECCAK256 PUSH1 0x40 MLOAD DUP1 PUSH1 0x60 ADD PUSH1 0x40 MSTORE DUP1 DUP5 DUP2 MSTORE PUSH1 0x20 ADD DUP4 DUP2 MSTORE PUSH1 0x20 ADD CALLVALUE DUP2 MSTORE POP SWAP1 DUP1 PUSH1 0x1 DUP2 SLOAD ADD DUP1 DUP3 SSTORE DUP1 SWAP2 POP POP PUSH1 0x1 SWAP1 SUB SWAP1 PUSH1 0x0 MSTORE PUSH1 0x20 PUSH1 0x0 KECCAK256 SWAP1 PUSH1 0x3 MUL ADD PUSH1 0x0 SWAP1 SWAP2 SWAP1 SWAP2 SWAP1 SWAP2 POP PUSH1 0x0 DUP3 ADD MLOAD DUP2 PUSH1 0x0 ADD SWAP1 DUP2 PUSH2 0x32A SWAP2 SWAP1 PUSH2 0x106C JUMP JUMPDEST POP PUSH1 0x20 DUP3 ADD MLOAD DUP2 PUSH1 0x1 ADD SWAP1 DUP2 PUSH2 0x340 SWAP2 SWAP1 PUSH2 0x106C JUMP JUMPDEST POP PUSH1 0x40 DUP3 ADD MLOAD DUP2 PUSH1 0x2 ADD SSTORE POP POP PUSH32 0x48A8478D0D46EEED0517258AF2D50CC03E2E7CC2103605730852CB87E4B6F812 CALLER DUP4 DUP4 CALLVALUE PUSH1 0x40 MLOAD PUSH2 0x382 SWAP5 SWAP4 SWAP3 SWAP2 SWAP1 PUSH2 0x113E JUMP JUMPDEST PUSH1 0x40 MLOAD DUP1 SWAP2 SUB SWAP1 LOG1 POP POP JUMP JUMPDEST PUSH1 0x0 DUP1 SLOAD SWAP1 PUSH2 0x100 EXP SWAP1 DIV PUSH20 0xFFFFFFFFFFFFFFFFFFFFFFFFFFFFFFFFFFFFFFFF AND PUSH20 0xFFFFFFFFFFFFFFFFFFFFFFFFFFFFFFFFFFFFFFFF AND CALLER PUSH20 0xFFFFFFFFFFFFFFFFFFFFFFFFFFFFFFFFFFFFFFFF AND EQ PUSH2 0x41C JUMPI PUSH1 0x40 MLOAD PUSH32 0x8C379A000000000000000000000000000000000000000000000000000000000 DUP2 MSTORE PUSH1 0x4 ADD PUSH2 0x413 SWAP1 PUSH2 0x11DD JUMP JUMPDEST PUSH1 0x40 MLOAD DUP1 SWAP2 SUB SWAP1 REVERT JUMPDEST PUSH1 0x0 DUP1 SLOAD SWAP1 PUSH2 0x100 EXP SWAP1 DIV PUSH20 0xFFFFFFFFFFFFFFFFFFFFFFFFFFFFFFFFFFFFFFFF AND PUSH20 0xFFFFFFFFFFFFFFFFFFFFFFFFFFFFFFFFFFFFFFFF AND PUSH2 0x8FC SELFBALANCE SWAP1 DUP2 ISZERO MUL SWAP1 PUSH1 0x40 MLOAD PUSH1 0x0 PUSH1 0x40 MLOAD DUP1 DUP4 SUB DUP2 DUP6 DUP9 DUP9 CALL SWAP4 POP POP POP POP ISZERO DUP1 ISZERO PUSH2 0x482 JUMPI RETURNDATASIZE PUSH1 0x0 DUP1 RETURNDATACOPY RETURNDATASIZE PUSH1 0x0 REVERT JUMPDEST POP JUMP JUMPDEST PUSH1 0x0 DUP1 SLOAD SWAP1 PUSH2 0x100 EXP SWAP1 DIV PUSH20 0xFFFFFFFFFFFFFFFFFFFFFFFFFFFFFFFFFFFFFFFF AND DUP2 JUMP JUMPDEST PUSH1 0x60 PUSH1 0x3 PUSH1 0x0 DUP4 PUSH20 0xFFFFFFFFFFFFFFFFFFFFFFFFFFFFFFFFFFFFFFFF AND PUSH20 0xFFFFFFFFFFFFFFFFFFFFFFFFFFFFFFFFFFFFFFFF AND DUP2 MSTORE PUSH1 0x20 ADD SWAP1 DUP2 MSTORE PUSH1 0x20 ADD PUSH1 0x0 KECCAK256 DUP1 SLOAD DUP1 PUSH1 0x20 MUL PUSH1 0x20 ADD PUSH1 0x40 MLOAD SWAP1 DUP2 ADD PUSH1 0x40 MSTORE DUP1 SWAP3 SWAP2 SWAP1 DUP2 DUP2 MSTORE PUSH1 0x20 ADD PUSH1 0x0 SWAP1 JUMPDEST DUP3 DUP3 LT ISZERO PUSH2 0x66A JUMPI DUP4 DUP3 SWAP1 PUSH1 0x0 MSTORE PUSH1 0x20 PUSH1 0x0 KECCAK256 SWAP1 PUSH1 0x3 MUL ADD PUSH1 0x40 MLOAD DUP1 PUSH1 0x60 ADD PUSH1 0x40 MSTORE SWAP1 DUP2 PUSH1 0x0 DUP3 ADD DUP1 SLOAD PUSH2 0x53D SWAP1 PUSH2 0xE8F JUMP JUMPDEST DUP1 PUSH1 0x1F ADD PUSH1 0x20 DUP1 SWAP2 DIV MUL PUSH1 0x20 ADD PUSH1 0x40 MLOAD SWAP1 DUP2 ADD PUSH1 0x40 MSTORE DUP1 SWAP3 SWAP2 SWAP1 DUP2 DUP2 MSTORE PUSH1 0x20 ADD DUP3 DUP1 SLOAD PUSH2 0x569 SWAP1 PUSH2 0xE8F JUMP JUMPDEST DUP1 ISZERO PUSH2 0x5B6 JUMPI DUP1 PUSH1 0x1F LT PUSH2 0x58B JUMPI PUSH2 0x100 DUP1 DUP4 SLOAD DIV MUL DUP4 MSTORE SWAP2 PUSH1 0x20 ADD SWAP2 PUSH2 0x5B6 JUMP JUMPDEST DUP3 ADD SWAP2 SWAP1 PUSH1 0x0 MSTORE PUSH1 0x20 PUSH1 0x0 KECCAK256 SWAP1 JUMPDEST DUP2 SLOAD DUP2 MSTORE SWAP1 PUSH1 0x1 ADD SWAP1 PUSH1 0x20 ADD DUP1 DUP4 GT PUSH2 0x599 JUMPI DUP3 SWAP1 SUB PUSH1 0x1F AND DUP3 ADD SWAP2 JUMPDEST POP POP POP POP POP DUP2 MSTORE PUSH1 0x20 ADD PUSH1 0x1 DUP3 ADD DUP1 SLOAD PUSH2 0x5CF SWAP1 PUSH2 0xE8F JUMP JUMPDEST DUP1 PUSH1 0x1F ADD PUSH1 0x20 DUP1 SWAP2 DIV MUL PUSH1 0x20 ADD PUSH1 0x40 MLOAD SWAP1 DUP2 ADD PUSH1 0x40 MSTORE DUP1 SWAP3 SWAP2 SWAP1 DUP2 DUP2 MSTORE PUSH1 0x20 ADD DUP3 DUP1 SLOAD PUSH2 0x5FB SWAP1 PUSH2 0xE8F JUMP JUMPDEST DUP1 ISZERO PUSH2 0x648 JUMPI DUP1 PUSH1 0x1F LT PUSH2 0x61D JUMPI PUSH2 0x100 DUP1 DUP4 SLOAD DIV MUL DUP4 MSTORE SWAP2 PUSH1 0x20 ADD SWAP2 PUSH2 0x648 JUMP JUMPDEST DUP3 ADD SWAP2 SWAP1 PUSH1 0x0 MSTORE PUSH1 0x20 PUSH1 0x0 KECCAK256 SWAP1 JUMPDEST DUP2 SLOAD DUP2 MSTORE SWAP1 PUSH1 0x1 ADD SWAP1 PUSH1 0x20 ADD DUP1 DUP4 GT PUSH2 0x62B JUMPI DUP3 SWAP1 SUB PUSH1 0x1F AND DUP3 ADD SWAP2 JUMPDEST POP POP POP POP POP DUP2 MSTORE PUSH1 0x20 ADD PUSH1 0x2 DUP3 ADD SLOAD DUP2 MSTORE POP POP DUP2 MSTORE PUSH1 0x20 ADD SWAP1 PUSH1 0x1 ADD SWAP1 PUSH2 0x50A JUMP JUMPDEST POP POP POP POP SWAP1 POP SWAP2 SWAP1 POP JUMP JUMPDEST PUSH1 0x3 PUSH1 0x20 MSTORE DUP2 PUSH1 0x0 MSTORE PUSH1 0x40 PUSH1 0x0 KECCAK256 DUP2 DUP2 SLOAD DUP2 LT PUSH2 0x691 JUMPI PUSH1 0x0 DUP1 REVERT JUMPDEST SWAP1 PUSH1 0x0 MSTORE PUSH1 0x20 PUSH1 0x0 KECCAK256 SWAP1 PUSH1 0x3 MUL ADD PUSH1 0x0 SWAP2 POP SWAP2 POP POP DUP1 PUSH1 0x0 ADD DUP1 SLOAD PUSH2 0x6B5 SWAP1 PUSH2 0xE8F JUMP JUMPDEST DUP1 PUSH1 0x1F ADD PUSH1 0x20 DUP1 SWAP2 DIV MUL PUSH1 0x20 ADD PUSH1 0x40 MLOAD SWAP1 DUP2 ADD PUSH1 0x40 MSTORE DUP1 SWAP3 SWAP2 SWAP1 DUP2 DUP2 MSTORE PUSH1 0x20 ADD DUP3 DUP1 SLOAD PUSH2 0x6E1 SWAP1 PUSH2 0xE8F JUMP JUMPDEST DUP1 ISZERO PUSH2 0x72E JUMPI DUP1 PUSH1 0x1F LT PUSH2 0x703 JUMPI PUSH2 0x100 DUP1 DUP4 SLOAD DIV MUL DUP4 MSTORE SWAP2 PUSH1 0x20 ADD SWAP2 PUSH2 0x72E JUMP JUMPDEST DUP3 ADD SWAP2 SWAP1 PUSH1 0x0 MSTORE PUSH1 0x20 PUSH1 0x0 KECCAK256 SWAP1 JUMPDEST DUP2 SLOAD DUP2 MSTORE SWAP1 PUSH1 0x1 ADD SWAP1 PUSH1 0x20 ADD DUP1 DUP4 GT PUSH2 0x711 JUMPI DUP3 SWAP1 SUB PUSH1 0x1F AND DUP3 ADD SWAP2 JUMPDEST POP POP POP POP POP SWAP1 DUP1 PUSH1 0x1 ADD DUP1 SLOAD PUSH2 0x743 SWAP1 PUSH2 0xE8F JUMP JUMPDEST DUP1 PUSH1 0x1F ADD PUSH1 0x20 DUP1 SWAP2 DIV MUL PUSH1 0x20 ADD PUSH1 0x40 MLOAD SWAP1 DUP2 ADD PUSH1 0x40 MSTORE DUP1 SWAP3 SWAP2 SWAP1 DUP2 DUP2 MSTORE PUSH1 0x20 ADD DUP3 DUP1 SLOAD PUSH2 0x76F SWAP1 PUSH2 0xE8F JUMP JUMPDEST DUP1 ISZERO PUSH2 0x7BC JUMPI DUP1 PUSH1 0x1F LT PUSH2 0x791 JUMPI PUSH2 0x100 DUP1 DUP4 SLOAD DIV MUL DUP4 MSTORE SWAP2 PUSH1 0x20 ADD SWAP2 PUSH2 0x7BC JUMP JUMPDEST DUP3 ADD SWAP2 SWAP1 PUSH1 0x0 MSTORE PUSH1 0x20 PUSH1 0x0 KECCAK256 SWAP1 JUMPDEST DUP2 SLOAD DUP2 MSTORE SWAP1 PUSH1 0x1 ADD SWAP1 PUSH1 0x20 ADD DUP1 DUP4 GT PUSH2 0x79F JUMPI DUP3 SWAP1 SUB PUSH1 0x1F AND DUP3 ADD SWAP2 JUMPDEST POP POP POP POP POP SWAP1 DUP1 PUSH1 0x2 ADD SLOAD SWAP1 POP DUP4 JUMP JUMPDEST PUSH1 0x1 SLOAD DUP2 JUMP JUMPDEST PUSH1 0x0 PUSH1 0xFF DUP3 AND SWAP1 POP SWAP2 SWAP1 POP JUMP JUMPDEST PUSH2 0x7E8 DUP2 PUSH2 0x7D2 JUMP JUMPDEST DUP3 MSTORE POP POP JUMP JUMPDEST PUSH1 0x0 PUSH1 0x20 DUP3 ADD SWAP1 POP PUSH2 0x803 PUSH1 0x0 DUP4 ADD DUP5 PUSH2 0x7DF JUMP JUMPDEST SWAP3 SWAP2 POP POP JUMP JUMPDEST PUSH1 0x0 PUSH1 0x40 MLOAD SWAP1 POP SWAP1 JUMP JUMPDEST PUSH1 0x0 DUP1 REVERT JUMPDEST PUSH1 0x0 DUP1 REVERT JUMPDEST PUSH1 0x0 DUP1 REVERT JUMPDEST PUSH1 0x0 DUP1 REVERT JUMPDEST PUSH1 0x0 PUSH1 0x1F NOT PUSH1 0x1F DUP4 ADD AND SWAP1 POP SWAP2 SWAP1 POP JUMP JUMPDEST PUSH32 0x4E487B7100000000000000000000000000000000000000000000000000000000 PUSH1 0x0 MSTORE PUSH1 0x41 PUSH1 0x4 MSTORE PUSH1 0x24 PUSH1 0x0 REVERT JUMPDEST PUSH2 0x870 DUP3 PUSH2 0x827 JUMP JUMPDEST DUP2 ADD DUP2 DUP2 LT PUSH8 0xFFFFFFFFFFFFFFFF DUP3 GT OR ISZERO PUSH2 0x88F JUMPI PUSH2 0x88E PUSH2 0x838 JUMP JUMPDEST JUMPDEST DUP1 PUSH1 0x40 MSTORE POP POP POP JUMP JUMPDEST PUSH1 0x0 PUSH2 0x8A2 PUSH2 0x809 JUMP JUMPDEST SWAP1 POP PUSH2 0x8AE DUP3 DUP3 PUSH2 0x867 JUMP JUMPDEST SWAP2 SWAP1 POP JUMP JUMPDEST PUSH1 0x0 PUSH8 0xFFFFFFFFFFFFFFFF DUP3 GT ISZERO PUSH2 0x8CE JUMPI PUSH2 0x8CD PUSH2 0x838 JUMP JUMPDEST JUMPDEST PUSH2 0x8D7 DUP3 PUSH2 0x827 JUMP JUMPDEST SWAP1 POP PUSH1 0x20 DUP2 ADD SWAP1 POP SWAP2 SWAP1 POP JUMP JUMPDEST DUP3 DUP2 DUP4 CALLDATACOPY PUSH1 0x0 DUP4 DUP4 ADD MSTORE POP POP POP JUMP JUMPDEST PUSH1 0x0 PUSH2 0x906 PUSH2 0x901 DUP5 PUSH2 0x8B3 JUMP JUMPDEST PUSH2 0x898 JUMP JUMPDEST SWAP1 POP DUP3 DUP2 MSTORE PUSH1 0x20 DUP2 ADD DUP5 DUP5 DUP5 ADD GT ISZERO PUSH2 0x922 JUMPI PUSH2 0x921 PUSH2 0x822 JUMP JUMPDEST JUMPDEST PUSH2 0x92D DUP5 DUP3 DUP6 PUSH2 0x8E4 JUMP JUMPDEST POP SWAP4 SWAP3 POP POP POP JUMP JUMPDEST PUSH1 0x0 DUP3 PUSH1 0x1F DUP4 ADD SLT PUSH2 0x94A JUMPI PUSH2 0x949 PUSH2 0x81D JUMP JUMPDEST JUMPDEST DUP2 CALLDATALOAD PUSH2 0x95A DUP5 DUP3 PUSH1 0x20 DUP7 ADD PUSH2 0x8F3 JUMP JUMPDEST SWAP2 POP POP SWAP3 SWAP2 POP POP JUMP JUMPDEST PUSH1 0x0 DUP1 PUSH1 0x40 DUP4 DUP6 SUB SLT ISZERO PUSH2 0x97A JUMPI PUSH2 0x979 PUSH2 0x813 JUMP JUMPDEST JUMPDEST PUSH1 0x0 DUP4 ADD CALLDATALOAD PUSH8 0xFFFFFFFFFFFFFFFF DUP2 GT ISZERO PUSH2 0x998 JUMPI PUSH2 0x997 PUSH2 0x818 JUMP JUMPDEST JUMPDEST PUSH2 0x9A4 DUP6 DUP3 DUP7 ADD PUSH2 0x935 JUMP JUMPDEST SWAP3 POP POP PUSH1 0x20 DUP4 ADD CALLDATALOAD PUSH8 0xFFFFFFFFFFFFFFFF DUP2 GT ISZERO PUSH2 0x9C5 JUMPI PUSH2 0x9C4 PUSH2 0x818 JUMP JUMPDEST JUMPDEST PUSH2 0x9D1 DUP6 DUP3 DUP7 ADD PUSH2 0x935 JUMP JUMPDEST SWAP2 POP POP SWAP3 POP SWAP3 SWAP1 POP JUMP JUMPDEST PUSH1 0x0 PUSH20 0xFFFFFFFFFFFFFFFFFFFFFFFFFFFFFFFFFFFFFFFF DUP3 AND SWAP1 POP SWAP2 SWAP1 POP JUMP JUMPDEST PUSH1 0x0 PUSH2 0xA06 DUP3 PUSH2 0x9DB JUMP JUMPDEST SWAP1 POP SWAP2 SWAP1 POP JUMP JUMPDEST PUSH2 0xA16 DUP2 PUSH2 0x9FB JUMP JUMPDEST DUP3 MSTORE POP POP JUMP JUMPDEST PUSH1 0x0 PUSH1 0x20 DUP3 ADD SWAP1 POP PUSH2 0xA31 PUSH1 0x0 DUP4 ADD DUP5 PUSH2 0xA0D JUMP JUMPDEST SWAP3 SWAP2 POP POP JUMP JUMPDEST PUSH2 0xA40 DUP2 PUSH2 0x9FB JUMP JUMPDEST DUP2 EQ PUSH2 0xA4B JUMPI PUSH1 0x0 DUP1 REVERT JUMPDEST POP JUMP JUMPDEST PUSH1 0x0 DUP2 CALLDATALOAD SWAP1 POP PUSH2 0xA5D DUP2 PUSH2 0xA37 JUMP JUMPDEST SWAP3 SWAP2 POP POP JUMP JUMPDEST PUSH1 0x0 PUSH1 0x20 DUP3 DUP5 SUB SLT ISZERO PUSH2 0xA79 JUMPI PUSH2 0xA78 PUSH2 0x813 JUMP JUMPDEST JUMPDEST PUSH1 0x0 PUSH2 0xA87 DUP5 DUP3 DUP6 ADD PUSH2 0xA4E JUMP JUMPDEST SWAP2 POP POP SWAP3 SWAP2 POP POP JUMP JUMPDEST PUSH1 0x0 DUP2 MLOAD SWAP1 POP SWAP2 SWAP1 POP JUMP JUMPDEST PUSH1 0x0 DUP3 DUP3 MSTORE PUSH1 0x20 DUP3 ADD SWAP1 POP SWAP3 SWAP2 POP POP JUMP JUMPDEST PUSH1 0x0 DUP2 SWAP1 POP PUSH1 0x20 DUP3 ADD SWAP1 POP SWAP2 SWAP1 POP JUMP JUMPDEST PUSH1 0x0 DUP2 MLOAD SWAP1 POP SWAP2 SWAP1 POP JUMP JUMPDEST PUSH1 0x0 DUP3 DUP3 MSTORE PUSH1 0x20 DUP3 ADD SWAP1 POP SWAP3 SWAP2 POP POP JUMP JUMPDEST PUSH1 0x0 JUMPDEST DUP4 DUP2 LT ISZERO PUSH2 0xAF6 JUMPI DUP1 DUP3 ADD MLOAD DUP2 DUP5 ADD MSTORE PUSH1 0x20 DUP2 ADD SWAP1 POP PUSH2 0xADB JUMP JUMPDEST PUSH1 0x0 DUP5 DUP5 ADD MSTORE POP POP POP POP JUMP JUMPDEST PUSH1 0x0 PUSH2 0xB0D DUP3 PUSH2 0xABC JUMP JUMPDEST PUSH2 0xB17 DUP2 DUP6 PUSH2 0xAC7 JUMP JUMPDEST SWAP4 POP PUSH2 0xB27 DUP2 DUP6 PUSH1 0x20 DUP7 ADD PUSH2 0xAD8 JUMP JUMPDEST PUSH2 0xB30 DUP2 PUSH2 0x827 JUMP JUMPDEST DUP5 ADD SWAP2 POP POP SWAP3 SWAP2 POP POP JUMP JUMPDEST PUSH1 0x0 DUP2 SWAP1 POP SWAP2 SWAP1 POP JUMP JUMPDEST PUSH2 0xB4E DUP2 PUSH2 0xB3B JUMP JUMPDEST DUP3 MSTORE POP POP JUMP JUMPDEST PUSH1 0x0 PUSH1 0x60 DUP4 ADD PUSH1 0x0 DUP4 ADD MLOAD DUP5 DUP3 SUB PUSH1 0x0 DUP7 ADD MSTORE PUSH2 0xB71 DUP3 DUP3 PUSH2 0xB02 JUMP JUMPDEST SWAP2 POP POP PUSH1 0x20 DUP4 ADD MLOAD DUP5 DUP3 SUB PUSH1 0x20 DUP7 ADD MSTORE PUSH2 0xB8B DUP3 DUP3 PUSH2 0xB02 JUMP JUMPDEST SWAP2 POP POP PUSH1 0x40 DUP4 ADD MLOAD PUSH2 0xBA0 PUSH1 0x40 DUP7 ADD DUP3 PUSH2 0xB45 JUMP JUMPDEST POP DUP1 SWAP2 POP POP SWAP3 SWAP2 POP POP JUMP JUMPDEST PUSH1 0x0 PUSH2 0xBB7 DUP4 DUP4 PUSH2 0xB54 JUMP JUMPDEST SWAP1 POP SWAP3 SWAP2 POP POP JUMP JUMPDEST PUSH1 0x0 PUSH1 0x20 DUP3 ADD SWAP1 POP SWAP2 SWAP1 POP JUMP JUMPDEST PUSH1 0x0 PUSH2 0xBD7 DUP3 PUSH2 0xA90 JUMP JUMPDEST PUSH2 0xBE1 DUP2 DUP6 PUSH2 0xA9B JUMP JUMPDEST SWAP4 POP DUP4 PUSH1 0x20 DUP3 MUL DUP6 ADD PUSH2 0xBF3 DUP6 PUSH2 0xAAC JUMP JUMPDEST DUP1 PUSH1 0x0 JUMPDEST DUP6 DUP2 LT ISZERO PUSH2 0xC2F JUMPI DUP5 DUP5 SUB DUP10 MSTORE DUP2 MLOAD PUSH2 0xC10 DUP6 DUP3 PUSH2 0xBAB JUMP JUMPDEST SWAP5 POP PUSH2 0xC1B DUP4 PUSH2 0xBBF JUMP JUMPDEST SWAP3 POP PUSH1 0x20 DUP11 ADD SWAP10 POP POP PUSH1 0x1 DUP2 ADD SWAP1 POP PUSH2 0xBF7 JUMP JUMPDEST POP DUP3 SWAP8 POP DUP8 SWAP6 POP POP POP POP POP POP SWAP3 SWAP2 POP POP JUMP JUMPDEST PUSH1 0x0 PUSH1 0x20 DUP3 ADD SWAP1 POP DUP2 DUP2 SUB PUSH1 0x0 DUP4 ADD MSTORE PUSH2 0xC5B DUP2 DUP5 PUSH2 0xBCC JUMP JUMPDEST SWAP1 POP SWAP3 SWAP2 POP POP JUMP JUMPDEST PUSH2 0xC6C DUP2 PUSH2 0xB3B JUMP JUMPDEST DUP2 EQ PUSH2 0xC77 JUMPI PUSH1 0x0 DUP1 REVERT JUMPDEST POP JUMP JUMPDEST PUSH1 0x0 DUP2 CALLDATALOAD SWAP1 POP PUSH2 0xC89 DUP2 PUSH2 0xC63 JUMP JUMPDEST SWAP3 SWAP2 POP POP JUMP JUMPDEST PUSH1 0x0 DUP1 PUSH1 0x40 DUP4 DUP6 SUB SLT ISZERO PUSH2 0xCA6 JUMPI PUSH2 0xCA5 PUSH2 0x813 JUMP JUMPDEST JUMPDEST PUSH1 0x0 PUSH2 0xCB4 DUP6 DUP3 DUP7 ADD PUSH2 0xA4E JUMP JUMPDEST SWAP3 POP POP PUSH1 0x20 PUSH2 0xCC5 DUP6 DUP3 DUP7 ADD PUSH2 0xC7A JUMP JUMPDEST SWAP2 POP POP SWAP3 POP SWAP3 SWAP1 POP JUMP JUMPDEST PUSH1 0x0 DUP3 DUP3 MSTORE PUSH1 0x20 DUP3 ADD SWAP1 POP SWAP3 SWAP2 POP POP JUMP JUMPDEST PUSH1 0x0 PUSH2 0xCEB DUP3 PUSH2 0xABC JUMP JUMPDEST PUSH2 0xCF5 DUP2 DUP6 PUSH2 0xCCF JUMP JUMPDEST SWAP4 POP PUSH2 0xD05 DUP2 DUP6 PUSH1 0x20 DUP7 ADD PUSH2 0xAD8 JUMP JUMPDEST PUSH2 0xD0E DUP2 PUSH2 0x827 JUMP JUMPDEST DUP5 ADD SWAP2 POP POP SWAP3 SWAP2 POP POP JUMP JUMPDEST PUSH2 0xD22 DUP2 PUSH2 0xB3B JUMP JUMPDEST DUP3 MSTORE POP POP JUMP JUMPDEST PUSH1 0x0 PUSH1 0x60 DUP3 ADD SWAP1 POP DUP2 DUP2 SUB PUSH1 0x0 DUP4 ADD MSTORE PUSH2 0xD42 DUP2 DUP7 PUSH2 0xCE0 JUMP JUMPDEST SWAP1 POP DUP2 DUP2 SUB PUSH1 0x20 DUP4 ADD MSTORE PUSH2 0xD56 DUP2 DUP6 PUSH2 0xCE0 JUMP JUMPDEST SWAP1 POP PUSH2 0xD65 PUSH1 0x40 DUP4 ADD DUP5 PUSH2 0xD19 JUMP JUMPDEST SWAP5 SWAP4 POP POP POP POP JUMP JUMPDEST PUSH1 0x0 PUSH1 0x20 DUP3 ADD SWAP1 POP PUSH2 0xD82 PUSH1 0x0 DUP4 ADD DUP5 PUSH2 0xD19 JUMP JUMPDEST SWAP3 SWAP2 POP POP JUMP JUMPDEST PUSH32 0x4D6F6E746F20696E636F72726563746F00000000000000000000000000000000 PUSH1 0x0 DUP3 ADD MSTORE POP JUMP JUMPDEST PUSH1 0x0 PUSH2 0xDBE PUSH1 0x10 DUP4 PUSH2 0xCCF JUMP JUMPDEST SWAP2 POP PUSH2 0xDC9 DUP3 PUSH2 0xD88 JUMP JUMPDEST PUSH1 0x20 DUP3 ADD SWAP1 POP SWAP2 SWAP1 POP JUMP JUMPDEST PUSH1 0x0 PUSH1 0x20 DUP3 ADD SWAP1 POP DUP2 DUP2 SUB PUSH1 0x0 DUP4 ADD MSTORE PUSH2 0xDED DUP2 PUSH2 0xDB1 JUMP JUMPDEST SWAP1 POP SWAP2 SWAP1 POP JUMP JUMPDEST PUSH32 0x4C696D69746520646520626F6C65746F7320616C63616E7A61646F0000000000 PUSH1 0x0 DUP3 ADD MSTORE POP JUMP JUMPDEST PUSH1 0x0 PUSH2 0xE2A PUSH1 0x1B DUP4 PUSH2 0xCCF JUMP JUMPDEST SWAP2 POP PUSH2 0xE35 DUP3 PUSH2 0xDF4 JUMP JUMPDEST PUSH1 0x20 DUP3 ADD SWAP1 POP SWAP2 SWAP1 POP JUMP JUMPDEST PUSH1 0x0 PUSH1 0x20 DUP3 ADD SWAP1 POP DUP2 DUP2 SUB PUSH1 0x0 DUP4 ADD MSTORE PUSH2 0xE59 DUP2 PUSH2 0xE1D JUMP JUMPDEST SWAP1 POP SWAP2 SWAP1 POP JUMP JUMPDEST PUSH32 0x4E487B7100000000000000000000000000000000000000000000000000000000 PUSH1 0x0 MSTORE PUSH1 0x22 PUSH1 0x4 MSTORE PUSH1 0x24 PUSH1 0x0 REVERT JUMPDEST PUSH1 0x0 PUSH1 0x2 DUP3 DIV SWAP1 POP PUSH1 0x1 DUP3 AND DUP1 PUSH2 0xEA7 JUMPI PUSH1 0x7F DUP3 AND SWAP2 POP JUMPDEST PUSH1 0x20 DUP3 LT DUP2 SUB PUSH2 0xEBA JUMPI PUSH2 0xEB9 PUSH2 0xE60 JUMP JUMPDEST JUMPDEST POP SWAP2 SWAP1 POP JUMP JUMPDEST PUSH1 0x0 DUP2 SWAP1 POP DUP2 PUSH1 0x0 MSTORE PUSH1 0x20 PUSH1 0x0 KECCAK256 SWAP1 POP SWAP2 SWAP1 POP JUMP JUMPDEST PUSH1 0x0 PUSH1 0x20 PUSH1 0x1F DUP4 ADD DIV SWAP1 POP SWAP2 SWAP1 POP JUMP JUMPDEST PUSH1 0x0 DUP3 DUP3 SHL SWAP1 POP SWAP3 SWAP2 POP POP JUMP JUMPDEST PUSH1 0x0 PUSH1 0x8 DUP4 MUL PUSH2 0xF22 PUSH32 0xFFFFFFFFFFFFFFFFFFFFFFFFFFFFFFFFFFFFFFFFFFFFFFFFFFFFFFFFFFFFFFFF DUP3 PUSH2 0xEE5 JUMP JUMPDEST PUSH2 0xF2C DUP7 DUP4 PUSH2 0xEE5 JUMP JUMPDEST SWAP6 POP DUP1 NOT DUP5 AND SWAP4 POP DUP1 DUP7 AND DUP5 OR SWAP3 POP POP POP SWAP4 SWAP3 POP POP POP JUMP JUMPDEST PUSH1 0x0 DUP2 SWAP1 POP SWAP2 SWAP1 POP JUMP JUMPDEST PUSH1 0x0 PUSH2 0xF69 PUSH2 0xF64 PUSH2 0xF5F DUP5 PUSH2 0xB3B JUMP JUMPDEST PUSH2 0xF44 JUMP JUMPDEST PUSH2 0xB3B JUMP JUMPDEST SWAP1 POP SWAP2 SWAP1 POP JUMP JUMPDEST PUSH1 0x0 DUP2 SWAP1 POP SWAP2 SWAP1 POP JUMP JUMPDEST PUSH2 0xF83 DUP4 PUSH2 0xF4E JUMP JUMPDEST PUSH2 0xF97 PUSH2 0xF8F DUP3 PUSH2 0xF70 JUMP JUMPDEST DUP5 DUP5 SLOAD PUSH2 0xEF2 JUMP JUMPDEST DUP3 SSTORE POP POP POP POP JUMP JUMPDEST PUSH1 0x0 SWAP1 JUMP JUMPDEST PUSH2 0xFAC PUSH2 0xF9F JUMP JUMPDEST PUSH2 0xFB7 DUP2 DUP5 DUP5 PUSH2 0xF7A JUMP JUMPDEST POP POP POP JUMP JUMPDEST JUMPDEST DUP2 DUP2 LT ISZERO PUSH2 0xFDB JUMPI PUSH2 0xFD0 PUSH1 0x0 DUP3 PUSH2 0xFA4 JUMP JUMPDEST PUSH1 0x1 DUP2 ADD SWAP1 POP PUSH2 0xFBD JUMP JUMPDEST POP POP JUMP JUMPDEST PUSH1 0x1F DUP3 GT ISZERO PUSH2 0x1020 JUMPI PUSH2 0xFF1 DUP2 PUSH2 0xEC0 JUMP JUMPDEST PUSH2 0xFFA DUP5 PUSH2 0xED5 JUMP JUMPDEST DUP2 ADD PUSH1 0x20 DUP6 LT ISZERO PUSH2 0x1009 JUMPI DUP2 SWAP1 POP JUMPDEST PUSH2 0x101D PUSH2 0x1015 DUP6 PUSH2 0xED5 JUMP JUMPDEST DUP4 ADD DUP3 PUSH2 0xFBC JUMP JUMPDEST POP POP JUMPDEST POP POP POP JUMP JUMPDEST PUSH1 0x0 DUP3 DUP3 SHR SWAP1 POP SWAP3 SWAP2 POP POP JUMP JUMPDEST PUSH1 0x0 PUSH2 0x1043 PUSH1 0x0 NOT DUP5 PUSH1 0x8 MUL PUSH2 0x1025 JUMP JUMPDEST NOT DUP1 DUP4 AND SWAP2 POP POP SWAP3 SWAP2 POP POP JUMP JUMPDEST PUSH1 0x0 PUSH2 0x105C DUP4 DUP4 PUSH2 0x1032 JUMP JUMPDEST SWAP2 POP DUP3 PUSH1 0x2 MUL DUP3 OR SWAP1 POP SWAP3 SWAP2 POP POP JUMP JUMPDEST PUSH2 0x1075 DUP3 PUSH2 0xABC JUMP JUMPDEST PUSH8 0xFFFFFFFFFFFFFFFF DUP2 GT ISZERO PUSH2 0x108E JUMPI PUSH2 0x108D PUSH2 0x838 JUMP JUMPDEST JUMPDEST PUSH2 0x1098 DUP3 SLOAD PUSH2 0xE8F JUMP JUMPDEST PUSH2 0x10A3 DUP3 DUP3 DUP6 PUSH2 0xFDF JUMP JUMPDEST PUSH1 0x0 PUSH1 0x20 SWAP1 POP PUSH1 0x1F DUP4 GT PUSH1 0x1 DUP2 EQ PUSH2 0x10D6 JUMPI PUSH1 0x0 DUP5 ISZERO PUSH2 0x10C4 JUMPI DUP3 DUP8 ADD MLOAD SWAP1 POP JUMPDEST PUSH2 0x10CE DUP6 DUP3 PUSH2 0x1050 JUMP JUMPDEST DUP7 SSTORE POP PUSH2 0x1136 JUMP JUMPDEST PUSH1 0x1F NOT DUP5 AND PUSH2 0x10E4 DUP7 PUSH2 0xEC0 JUMP JUMPDEST PUSH1 0x0 JUMPDEST DUP3 DUP2 LT ISZERO PUSH2 0x110C JUMPI DUP5 DUP10 ADD MLOAD DUP3 SSTORE PUSH1 0x1 DUP3 ADD SWAP2 POP PUSH1 0x20 DUP6 ADD SWAP5 POP PUSH1 0x20 DUP2 ADD SWAP1 POP PUSH2 0x10E7 JUMP JUMPDEST DUP7 DUP4 LT ISZERO PUSH2 0x1129 JUMPI DUP5 DUP10 ADD MLOAD PUSH2 0x1125 PUSH1 0x1F DUP10 AND DUP3 PUSH2 0x1032 JUMP JUMPDEST DUP4 SSTORE POP JUMPDEST PUSH1 0x1 PUSH1 0x2 DUP9 MUL ADD DUP9 SSTORE POP POP POP JUMPDEST POP POP POP POP POP POP JUMP JUMPDEST PUSH1 0x0 PUSH1 0x80 DUP3 ADD SWAP1 POP PUSH2 0x1153 PUSH1 0x0 DUP4 ADD DUP8 PUSH2 0xA0D JUMP JUMPDEST DUP2 DUP2 SUB PUSH1 0x20 DUP4 ADD MSTORE PUSH2 0x1165 DUP2 DUP7 PUSH2 0xCE0 JUMP JUMPDEST SWAP1 POP DUP2 DUP2 SUB PUSH1 0x40 DUP4 ADD MSTORE PUSH2 0x1179 DUP2 DUP6 PUSH2 0xCE0 JUMP JUMPDEST SWAP1 POP PUSH2 0x1188 PUSH1 0x60 DUP4 ADD DUP5 PUSH2 0xD19 JUMP JUMPDEST SWAP6 SWAP5 POP POP POP POP POP JUMP JUMPDEST PUSH32 0x4E6F206572657320656C206F776E657200000000000000000000000000000000 PUSH1 0x0 DUP3 ADD MSTORE POP JUMP JUMPDEST PUSH1 0x0 PUSH2 0x11C7 PUSH1 0x10 DUP4 PUSH2 0xCCF JUMP JUMPDEST SWAP2 POP PUSH2 0x11D2 DUP3 PUSH2 0x1191 JUMP JUMPDEST PUSH1 0x20 DUP3 ADD SWAP1 POP SWAP2 SWAP1 POP JUMP JUMPDEST PUSH1 0x0 PUSH1 0x20 DUP3 ADD SWAP1 POP DUP2 DUP2 SUB PUSH1 0x0 DUP4 ADD MSTORE PUSH2 0x11F6 DUP2 PUSH2 0x11BA JUMP JUMPDEST SWAP1 POP SWAP2 SWAP1 POP JUMP INVALID LOG2 PUSH5 0x6970667358 0x22 SLT KECCAK256 0xAD 0xDF CALLDATACOPY LOG1 SLT LOG2 DUP5 0xAA BYTE SWAP13 PUSH10 0x3FC09F44BD1783DF89F9 MSTORE8 PUSH10 0x574254A9EDA2F4681C64 PUSH20 0x6F6C634300081E00330000000000000000000000 "
	},
	"abi": [
		{
			"inputs": [],
			"stateMutability": "nonpayable",
			"type": "constructor"
		},
		{
			"anonymous": false,
			"inputs": [
				{
					"indexed": false,
					"internalType": "address",
					"name": "comprador",
					"type": "address"
				},
				{
					"indexed": false,
					"internalType": "string",
					"name": "artista",
					"type": "string"
				},
				{
					"indexed": false,
					"internalType": "string",
					"name": "fecha",
					"type": "string"
				},
				{
					"indexed": false,
					"internalType": "uint256",
					"name": "precio",
					"type": "uint256"
				}
			],
			"name": "BoletoComprado",
			"type": "event"
		},
		{
			"inputs": [
				{
					"internalType": "string",
					"name": "artista",
					"type": "string"
				},
				{
					"internalType": "string",
					"name": "fecha",
					"type": "string"
				}
			],
			"name": "comprarBoleto",
			"outputs": [],
			"stateMutability": "payable",
			"type": "function"
		},
		{
			"inputs": [],
			"name": "retirarFondos",
			"outputs": [],
			"stateMutability": "nonpayable",
			"type": "function"
		},
		{
			"inputs": [
				{
					"internalType": "address",
					"name": "",
					"type": "address"
				},
				{
					"internalType": "uint256",
					"name": "",
					"type": "uint256"
				}
			],
			"name": "boletosComprados",
			"outputs": [
				{
					"internalType": "string",
					"name": "artista",
					"type": "string"
				},
				{
					"internalType": "string",
					"name": "fecha",
					"type": "string"
				},
				{
					"internalType": "uint256",
					"name": "precio",
					"type": "uint256"
				}
			],
			"stateMutability": "view",
			"type": "function"
		},
		{
			"inputs": [
				{
					"internalType": "address",
					"name": "usuario",
					"type": "address"
				}
			],
			"name": "boletosUsuario",
			"outputs": [
				{
					"components": [
						{
							"internalType": "string",
							"name": "artista",
							"type": "string"
						},
						{
							"internalType": "string",
							"name": "fecha",
							"type": "string"
						},
						{
							"internalType": "uint256",
							"name": "precio",
							"type": "uint256"
						}
					],
					"internalType": "struct BoletosVIP.Boleto[]",
					"name": "",
					"type": "tuple[]"
				}
			],
			"stateMutability": "view",
			"type": "function"
		},
		{
			"inputs": [],
			"name": "maxBoletosPorUsuario",
			"outputs": [
				{
					"internalType": "uint8",
					"name": "",
					"type": "uint8"
				}
			],
			"stateMutability": "view",
			"type": "function"
		},
		{
			"inputs": [],
			"name": "owner",
			"outputs": [
				{
					"internalType": "address",
					"name": "",
					"type": "address"
				}
			],
			"stateMutability": "view",
			"type": "function"
		},
		{
			"inputs": [],
			"name": "precioBoleto",
			"outputs": [
				{
					"internalType": "uint256",
					"name": "",
					"type": "uint256"
				}
			],
			"stateMutability": "view",
			"type": "function"
		}
	],
	"storageLayout": {
		"storage": [
			{
				"astId": 3,
				"contract": "contracts/BoletosVIP.sol:BoletosVIP",
				"label": "owner",
				"offset": 0,
				"slot": "0",
				"type": "t_address"
			},
			{
				"astId": 6,
				"contract": "contracts/BoletosVIP.sol:BoletosVIP",
				"label": "precioBoleto",
				"offset": 0,
				"slot": "1",
				"type": "t_uint256"
			},
			{
				"astId": 9,
				"contract": "contracts/BoletosVIP.sol:BoletosVIP",
				"label": "maxBoletosPorUsuario",
				"offset": 0,
				"slot": "2",
				"type": "t_uint8"
			},
			{
				"astId": 22,
				"contract": "contracts/BoletosVIP.sol:BoletosVIP",
				"label": "boletosComprados",
				"offset": 0,
				"slot": "3",
				"type": "t_mapping(t_address,t_array(t_struct(Boleto)16_storage)dyn_storage)"
			}
		],
		"types": {
			"t_address": {
				"encoding": "inplace",
				"label": "address",
				"numberOfBytes": "20"
			},
			"t_array(t_struct(Boleto)16_storage)dyn_storage": {
				"base": "t_struct(Boleto)16_storage",
				"encoding": "dynamic_array",
				"label": "struct BoletosVIP.Boleto[]",
				"numberOfBytes": "32"
			},
			"t_mapping(t_address,t_array(t_struct(Boleto)16_storage)dyn_storage)": {
				"encoding": "mapping",
				"key": "t_address",
				"label": "mapping(address => struct BoletosVIP.Boleto[])",
				"numberOfBytes": "32",
				"value": "t_array(t_struct(Boleto)16_storage)dyn_storage"
			},
			"t_string_storage": {
				"encoding": "bytes",
				"label": "string",
				"numberOfBytes": "32"
			},
			"t_struct(Boleto)16_storage": {
				"encoding": "inplace",
				"label": "struct BoletosVIP.Boleto",
				"members": [
					{
						"astId": 11,
						"contract": "contracts/BoletosVIP.sol:BoletosVIP",
						"label": "artista",
						"offset": 0,
						"slot": "0",
						"type": "t_string_storage"
					},
					{
						"astId": 13,
						"contract": "contracts/BoletosVIP.sol:BoletosVIP",
						"label": "fecha",
						"offset": 0,
						"slot": "1",
						"type": "t_string_storage"
					},
					{
						"astId": 15,
						"contract": "contracts/BoletosVIP.sol:BoletosVIP",
						"label": "precio",
						"offset": 0,
						"slot": "2",
						"type": "t_uint256"
					}
				],
				"numberOfBytes": "96"
			},
			"t_uint256": {
				"encoding": "inplace",
				"label": "uint256",
				"numberOfBytes": "32"
			},
			"t_uint8": {
				"encoding": "inplace",
				"label": "uint8",
				"numberOfBytes": "1"
			}
		}
	},
	"web3Deploy": "var boletosvipContract = new web3.eth.Contract([{\"inputs\":[],\"stateMutability\":\"nonpayable\",\"type\":\"constructor\"},{\"anonymous\":false,\"inputs\":[{\"indexed\":false,\"internalType\":\"address\",\"name\":\"comprador\",\"type\":\"address\"},{\"indexed\":false,\"internalType\":\"string\",\"name\":\"artista\",\"type\":\"string\"},{\"indexed\":false,\"internalType\":\"string\",\"name\":\"fecha\",\"type\":\"string\"},{\"indexed\":false,\"internalType\":\"uint256\",\"name\":\"precio\",\"type\":\"uint256\"}],\"name\":\"BoletoComprado\",\"type\":\"event\"},{\"inputs\":[{\"internalType\":\"address\",\"name\":\"\",\"type\":\"address\"},{\"internalType\":\"uint256\",\"name\":\"\",\"type\":\"uint256\"}],\"name\":\"boletosComprados\",\"outputs\":[{\"internalType\":\"string\",\"name\":\"artista\",\"type\":\"string\"},{\"internalType\":\"string\",\"name\":\"fecha\",\"type\":\"string\"},{\"internalType\":\"uint256\",\"name\":\"precio\",\"type\":\"uint256\"}],\"stateMutability\":\"view\",\"type\":\"function\"},{\"inputs\":[{\"internalType\":\"address\",\"name\":\"usuario\",\"type\":\"address\"}],\"name\":\"boletosUsuario\",\"outputs\":[{\"components\":[{\"internalType\":\"string\",\"name\":\"artista\",\"type\":\"string\"},{\"internalType\":\"string\",\"name\":\"fecha\",\"type\":\"string\"},{\"internalType\":\"uint256\",\"name\":\"precio\",\"type\":\"uint256\"}],\"internalType\":\"struct BoletosVIP.Boleto[]\",\"name\":\"\",\"type\":\"tuple[]\"}],\"stateMutability\":\"view\",\"type\":\"function\"},{\"inputs\":[{\"internalType\":\"string\",\"name\":\"artista\",\"type\":\"string\"},{\"internalType\":\"string\",\"name\":\"fecha\",\"type\":\"string\"}],\"name\":\"comprarBoleto\",\"outputs\":[],\"stateMutability\":\"payable\",\"type\":\"function\"},{\"inputs\":[],\"name\":\"maxBoletosPorUsuario\",\"outputs\":[{\"internalType\":\"uint8\",\"name\":\"\",\"type\":\"uint8\"}],\"stateMutability\":\"view\",\"type\":\"function\"},{\"inputs\":[],\"name\":\"owner\",\"outputs\":[{\"internalType\":\"address\",\"name\":\"\",\"type\":\"address\"}],\"stateMutability\":\"view\",\"type\":\"function\"},{\"inputs\":[],\"name\":\"precioBoleto\",\"outputs\":[{\"internalType\":\"uint256\",\"name\":\"\",\"type\":\"uint256\"}],\"stateMutability\":\"view\",\"type\":\"function\"},{\"inputs\":[],\"name\":\"retirarFondos\",\"outputs\":[],\"stateMutability\":\"nonpayable\",\"type\":\"function\"}]);\nvar boletosvip = boletosvipContract.deploy({\n     data: '0x608060405266038d7ea4c680006001556004600260006101000a81548160ff021916908360ff160217905550348015603657600080fd5b50336000806101000a81548173ffffffffffffffffffffffffffffffffffffffff021916908373ffffffffffffffffffffffffffffffffffffffff160217905550611233806100866000396000f3fe6080604052600436106100705760003560e01c80638da5cb5b1161004e5780638da5cb5b146100d35780639e56d253146100fe578063e8c7844b1461013b578063ee5ade831461017a57610070565b80630d1d4bc7146100755780637ebe4eb0146100a05780638af01880146100bc575b600080fd5b34801561008157600080fd5b5061008a6101a5565b60405161009791906107ee565b60405180910390f35b6100ba60048036038101906100b59190610963565b6101b8565b005b3480156100c857600080fd5b506100d161038e565b005b3480156100df57600080fd5b506100e8610485565b6040516100f59190610a1c565b60405180910390f35b34801561010a57600080fd5b5061012560048036038101906101209190610a63565b6104a9565b6040516101329190610c41565b60405180910390f35b34801561014757600080fd5b50610162600480360381019061015d9190610c8f565b610675565b60405161017193929190610d28565b60405180910390f35b34801561018657600080fd5b5061018f6107cc565b60405161019c9190610d6d565b60405180910390f35b600260009054906101000a900460ff1681565b60015434146101fc576040517f08c379a00000000000000000000000000000000000000000000000000000000081526004016101f390610dd4565b60405180910390fd5b600260009054906101000a900460ff1660ff16600360003373ffffffffffffffffffffffffffffffffffffffff1673ffffffffffffffffffffffffffffffffffffffff1681526020019081526020016000208054905010610292576040517f08c379a000000000000000000000000000000000000000000000000000000000815260040161028990610e40565b60405180910390fd5b600360003373ffffffffffffffffffffffffffffffffffffffff1673ffffffffffffffffffffffffffffffffffffffff1681526020019081526020016000206040518060600160405280848152602001838152602001348152509080600181540180825580915050600190039060005260206000209060030201600090919091909150600082015181600001908161032a919061106c565b506020820151816001019081610340919061106c565b506040820151816002015550507f48a8478d0d46eeed0517258af2d50cc03e2e7cc2103605730852cb87e4b6f81233838334604051610382949392919061113e565b60405180910390a15050565b60008054906101000a900473ffffffffffffffffffffffffffffffffffffffff1673ffffffffffffffffffffffffffffffffffffffff163373ffffffffffffffffffffffffffffffffffffffff161461041c576040517f08c379a0000000000000000000000000000000000000000000000000000000008152600401610413906111dd565b60405180910390fd5b60008054906101000a900473ffffffffffffffffffffffffffffffffffffffff1673ffffffffffffffffffffffffffffffffffffffff166108fc479081150290604051600060405180830381858888f19350505050158015610482573d6000803e3d6000fd5b50565b60008054906101000a900473ffffffffffffffffffffffffffffffffffffffff1681565b6060600360008373ffffffffffffffffffffffffffffffffffffffff1673ffffffffffffffffffffffffffffffffffffffff168152602001908152602001600020805480602002602001604051908101604052809291908181526020016000905b8282101561066a578382906000526020600020906003020160405180606001604052908160008201805461053d90610e8f565b80601f016020809104026020016040519081016040528092919081815260200182805461056990610e8f565b80156105b65780601f1061058b576101008083540402835291602001916105b6565b820191906000526020600020905b81548152906001019060200180831161059957829003601f168201915b505050505081526020016001820180546105cf90610e8f565b80601f01602080910402602001604051908101604052809291908181526020018280546105fb90610e8f565b80156106485780601f1061061d57610100808354040283529160200191610648565b820191906000526020600020905b81548152906001019060200180831161062b57829003601f168201915b505050505081526020016002820154815250508152602001906001019061050a565b505050509050919050565b6003602052816000526040600020818154811061069157600080fd5b9060005260206000209060030201600091509150508060000180546106b590610e8f565b80601f01602080910402602001604051908101604052809291908181526020018280546106e190610e8f565b801561072e5780601f106107035761010080835404028352916020019161072e565b820191906000526020600020905b81548152906001019060200180831161071157829003601f168201915b50505050509080600101805461074390610e8f565b80601f016020809104026020016040519081016040528092919081815260200182805461076f90610e8f565b80156107bc5780601f10610791576101008083540402835291602001916107bc565b820191906000526020600020905b81548152906001019060200180831161079f57829003601f168201915b5050505050908060020154905083565b60015481565b600060ff82169050919050565b6107e8816107d2565b82525050565b600060208201905061080360008301846107df565b92915050565b6000604051905090565b600080fd5b600080fd5b600080fd5b600080fd5b6000601f19601f8301169050919050565b7f4e487b7100000000000000000000000000000000000000000000000000000000600052604160045260246000fd5b61087082610827565b810181811067ffffffffffffffff8211171561088f5761088e610838565b5b80604052505050565b60006108a2610809565b90506108ae8282610867565b919050565b600067ffffffffffffffff8211156108ce576108cd610838565b5b6108d782610827565b9050602081019050919050565b82818337600083830152505050565b6000610906610901846108b3565b610898565b90508281526020810184848401111561092257610921610822565b5b61092d8482856108e4565b509392505050565b600082601f83011261094a5761094961081d565b5b813561095a8482602086016108f3565b91505092915050565b6000806040838503121561097a57610979610813565b5b600083013567ffffffffffffffff81111561099857610997610818565b5b6109a485828601610935565b925050602083013567ffffffffffffffff8111156109c5576109c4610818565b5b6109d185828601610935565b9150509250929050565b600073ffffffffffffffffffffffffffffffffffffffff82169050919050565b6000610a06826109db565b9050919050565b610a16816109fb565b82525050565b6000602082019050610a316000830184610a0d565b92915050565b610a40816109fb565b8114610a4b57600080fd5b50565b600081359050610a5d81610a37565b92915050565b600060208284031215610a7957610a78610813565b5b6000610a8784828501610a4e565b91505092915050565b600081519050919050565b600082825260208201905092915050565b6000819050602082019050919050565b600081519050919050565b600082825260208201905092915050565b60005b83811015610af6578082015181840152602081019050610adb565b60008484015250505050565b6000610b0d82610abc565b610b178185610ac7565b9350610b27818560208601610ad8565b610b3081610827565b840191505092915050565b6000819050919050565b610b4e81610b3b565b82525050565b60006060830160008301518482036000860152610b718282610b02565b91505060208301518482036020860152610b8b8282610b02565b9150506040830151610ba06040860182610b45565b508091505092915050565b6000610bb78383610b54565b905092915050565b6000602082019050919050565b6000610bd782610a90565b610be18185610a9b565b935083602082028501610bf385610aac565b8060005b85811015610c2f5784840389528151610c108582610bab565b9450610c1b83610bbf565b925060208a01995050600181019050610bf7565b50829750879550505050505092915050565b60006020820190508181036000830152610c5b8184610bcc565b905092915050565b610c6c81610b3b565b8114610c7757600080fd5b50565b600081359050610c8981610c63565b92915050565b60008060408385031215610ca657610ca5610813565b5b6000610cb485828601610a4e565b9250506020610cc585828601610c7a565b9150509250929050565b600082825260208201905092915050565b6000610ceb82610abc565b610cf58185610ccf565b9350610d05818560208601610ad8565b610d0e81610827565b840191505092915050565b610d2281610b3b565b82525050565b60006060820190508181036000830152610d428186610ce0565b90508181036020830152610d568185610ce0565b9050610d656040830184610d19565b949350505050565b6000602082019050610d826000830184610d19565b92915050565b7f4d6f6e746f20696e636f72726563746f00000000000000000000000000000000600082015250565b6000610dbe601083610ccf565b9150610dc982610d88565b602082019050919050565b60006020820190508181036000830152610ded81610db1565b9050919050565b7f4c696d69746520646520626f6c65746f7320616c63616e7a61646f0000000000600082015250565b6000610e2a601b83610ccf565b9150610e3582610df4565b602082019050919050565b60006020820190508181036000830152610e5981610e1d565b9050919050565b7f4e487b7100000000000000000000000000000000000000000000000000000000600052602260045260246000fd5b60006002820490506001821680610ea757607f821691505b602082108103610eba57610eb9610e60565b5b50919050565b60008190508160005260206000209050919050565b60006020601f8301049050919050565b600082821b905092915050565b600060088302610f227fffffffffffffffffffffffffffffffffffffffffffffffffffffffffffffffff82610ee5565b610f2c8683610ee5565b95508019841693508086168417925050509392505050565b6000819050919050565b6000610f69610f64610f5f84610b3b565b610f44565b610b3b565b9050919050565b6000819050919050565b610f8383610f4e565b610f97610f8f82610f70565b848454610ef2565b825550505050565b600090565b610fac610f9f565b610fb7818484610f7a565b505050565b5b81811015610fdb57610fd0600082610fa4565b600181019050610fbd565b5050565b601f82111561102057610ff181610ec0565b610ffa84610ed5565b81016020851015611009578190505b61101d61101585610ed5565b830182610fbc565b50505b505050565b600082821c905092915050565b600061104360001984600802611025565b1980831691505092915050565b600061105c8383611032565b9150826002028217905092915050565b61107582610abc565b67ffffffffffffffff81111561108e5761108d610838565b5b6110988254610e8f565b6110a3828285610fdf565b600060209050601f8311600181146110d657600084156110c4578287015190505b6110ce8582611050565b865550611136565b601f1984166110e486610ec0565b60005b8281101561110c578489015182556001820191506020850194506020810190506110e7565b868310156111295784890151611125601f891682611032565b8355505b6001600288020188555050505b505050505050565b60006080820190506111536000830187610a0d565b81810360208301526111658186610ce0565b905081810360408301526111798185610ce0565b90506111886060830184610d19565b95945050505050565b7f4e6f206572657320656c206f776e657200000000000000000000000000000000600082015250565b60006111c7601083610ccf565b91506111d282611191565b602082019050919050565b600060208201905081810360008301526111f6816111ba565b905091905056fea2646970667358221220addf37a112a284aa1a9c693fc09f44bd1783df89f95369574254a9eda2f4681c64736f6c634300081e0033', \n     arguments: [\n     ]\n}).send({\n     from: web3.eth.accounts[0], \n     gas: '4700000'\n   }, function (e, contract){\n    console.log(e, contract);\n    if (typeof contract.address !== 'undefined') {\n         console.log('Contract mined! address: ' + contract.address + ' transactionHash: ' + contract.transactionHash);\n    }\n })",
	"functionHashes": {
		"e8c7844b": "boletosComprados(address,uint256)",
		"9e56d253": "boletosUsuario(address)",
		"7ebe4eb0": "comprarBoleto(string,string)",
		"0d1d4bc7": "maxBoletosPorUsuario()",
		"8da5cb5b": "owner()",
		"ee5ade83": "precioBoleto()",
		"8af01880": "retirarFondos()"
	},
	"gasEstimates": {
		"Creation": {
			"codeDepositCost": "931800",
			"executionCost": "62707",
			"totalCost": "994507"
		},
		"External": {
			"boletosComprados(address,uint256)": "infinite",
			"boletosUsuario(address)": "infinite",
			"comprarBoleto(string,string)": "infinite",
			"maxBoletosPorUsuario()": "1172",
			"owner()": "1211",
			"precioBoleto()": "1195",
			"retirarFondos()": "infinite"
		}
	},
	"devdoc": {
		"kind": "dev",
		"methods": {},
		"version": 1
	},
	"userdoc": {
		"kind": "user",
		"methods": {},
		"version": 1
	},
	"Runtime Bytecode": {
		"immutableReferences": {},
		"linkReferences": {},
		"object": "6080604052600436106100705760003560e01c80638da5cb5b1161004e5780638da5cb5b146100d35780639e56d253146100fe578063e8c7844b1461013b578063ee5ade831461017a57610070565b80630d1d4bc7146100755780637ebe4eb0146100a05780638af01880146100bc575b600080fd5b34801561008157600080fd5b5061008a6101a5565b60405161009791906107ee565b60405180910390f35b6100ba60048036038101906100b59190610963565b6101b8565b005b3480156100c857600080fd5b506100d161038e565b005b3480156100df57600080fd5b506100e8610485565b6040516100f59190610a1c565b60405180910390f35b34801561010a57600080fd5b5061012560048036038101906101209190610a63565b6104a9565b6040516101329190610c41565b60405180910390f35b34801561014757600080fd5b50610162600480360381019061015d9190610c8f565b610675565b60405161017193929190610d28565b60405180910390f35b34801561018657600080fd5b5061018f6107cc565b60405161019c9190610d6d565b60405180910390f35b600260009054906101000a900460ff1681565b60015434146101fc576040517f08c379a00000000000000000000000000000000000000000000000000000000081526004016101f390610dd4565b60405180910390fd5b600260009054906101000a900460ff1660ff16600360003373ffffffffffffffffffffffffffffffffffffffff1673ffffffffffffffffffffffffffffffffffffffff1681526020019081526020016000208054905010610292576040517f08c379a000000000000000000000000000000000000000000000000000000000815260040161028990610e40565b60405180910390fd5b600360003373ffffffffffffffffffffffffffffffffffffffff1673ffffffffffffffffffffffffffffffffffffffff1681526020019081526020016000206040518060600160405280848152602001838152602001348152509080600181540180825580915050600190039060005260206000209060030201600090919091909150600082015181600001908161032a919061106c565b506020820151816001019081610340919061106c565b506040820151816002015550507f48a8478d0d46eeed0517258af2d50cc03e2e7cc2103605730852cb87e4b6f81233838334604051610382949392919061113e565b60405180910390a15050565b60008054906101000a900473ffffffffffffffffffffffffffffffffffffffff1673ffffffffffffffffffffffffffffffffffffffff163373ffffffffffffffffffffffffffffffffffffffff161461041c576040517f08c379a0000000000000000000000000000000000000000000000000000000008152600401610413906111dd565b60405180910390fd5b60008054906101000a900473ffffffffffffffffffffffffffffffffffffffff1673ffffffffffffffffffffffffffffffffffffffff166108fc479081150290604051600060405180830381858888f19350505050158015610482573d6000803e3d6000fd5b50565b60008054906101000a900473ffffffffffffffffffffffffffffffffffffffff1681565b6060600360008373ffffffffffffffffffffffffffffffffffffffff1673ffffffffffffffffffffffffffffffffffffffff168152602001908152602001600020805480602002602001604051908101604052809291908181526020016000905b8282101561066a578382906000526020600020906003020160405180606001604052908160008201805461053d90610e8f565b80601f016020809104026020016040519081016040528092919081815260200182805461056990610e8f565b80156105b65780601f1061058b576101008083540402835291602001916105b6565b820191906000526020600020905b81548152906001019060200180831161059957829003601f168201915b505050505081526020016001820180546105cf90610e8f565b80601f01602080910402602001604051908101604052809291908181526020018280546105fb90610e8f565b80156106485780601f1061061d57610100808354040283529160200191610648565b820191906000526020600020905b81548152906001019060200180831161062b57829003601f168201915b505050505081526020016002820154815250508152602001906001019061050a565b505050509050919050565b6003602052816000526040600020818154811061069157600080fd5b9060005260206000209060030201600091509150508060000180546106b590610e8f565b80601f01602080910402602001604051908101604052809291908181526020018280546106e190610e8f565b801561072e5780601f106107035761010080835404028352916020019161072e565b820191906000526020600020905b81548152906001019060200180831161071157829003601f168201915b50505050509080600101805461074390610e8f565b80601f016020809104026020016040519081016040528092919081815260200182805461076f90610e8f565b80156107bc5780601f10610791576101008083540402835291602001916107bc565b820191906000526020600020905b81548152906001019060200180831161079f57829003601f168201915b5050505050908060020154905083565b60015481565b600060ff82169050919050565b6107e8816107d2565b82525050565b600060208201905061080360008301846107df565b92915050565b6000604051905090565b600080fd5b600080fd5b600080fd5b600080fd5b6000601f19601f8301169050919050565b7f4e487b7100000000000000000000000000000000000000000000000000000000600052604160045260246000fd5b61087082610827565b810181811067ffffffffffffffff8211171561088f5761088e610838565b5b80604052505050565b60006108a2610809565b90506108ae8282610867565b919050565b600067ffffffffffffffff8211156108ce576108cd610838565b5b6108d782610827565b9050602081019050919050565b82818337600083830152505050565b6000610906610901846108b3565b610898565b90508281526020810184848401111561092257610921610822565b5b61092d8482856108e4565b509392505050565b600082601f83011261094a5761094961081d565b5b813561095a8482602086016108f3565b91505092915050565b6000806040838503121561097a57610979610813565b5b600083013567ffffffffffffffff81111561099857610997610818565b5b6109a485828601610935565b925050602083013567ffffffffffffffff8111156109c5576109c4610818565b5b6109d185828601610935565b9150509250929050565b600073ffffffffffffffffffffffffffffffffffffffff82169050919050565b6000610a06826109db565b9050919050565b610a16816109fb565b82525050565b6000602082019050610a316000830184610a0d565b92915050565b610a40816109fb565b8114610a4b57600080fd5b50565b600081359050610a5d81610a37565b92915050565b600060208284031215610a7957610a78610813565b5b6000610a8784828501610a4e565b91505092915050565b600081519050919050565b600082825260208201905092915050565b6000819050602082019050919050565b600081519050919050565b600082825260208201905092915050565b60005b83811015610af6578082015181840152602081019050610adb565b60008484015250505050565b6000610b0d82610abc565b610b178185610ac7565b9350610b27818560208601610ad8565b610b3081610827565b840191505092915050565b6000819050919050565b610b4e81610b3b565b82525050565b60006060830160008301518482036000860152610b718282610b02565b91505060208301518482036020860152610b8b8282610b02565b9150506040830151610ba06040860182610b45565b508091505092915050565b6000610bb78383610b54565b905092915050565b6000602082019050919050565b6000610bd782610a90565b610be18185610a9b565b935083602082028501610bf385610aac565b8060005b85811015610c2f5784840389528151610c108582610bab565b9450610c1b83610bbf565b925060208a01995050600181019050610bf7565b50829750879550505050505092915050565b60006020820190508181036000830152610c5b8184610bcc565b905092915050565b610c6c81610b3b565b8114610c7757600080fd5b50565b600081359050610c8981610c63565b92915050565b60008060408385031215610ca657610ca5610813565b5b6000610cb485828601610a4e565b9250506020610cc585828601610c7a565b9150509250929050565b600082825260208201905092915050565b6000610ceb82610abc565b610cf58185610ccf565b9350610d05818560208601610ad8565b610d0e81610827565b840191505092915050565b610d2281610b3b565b82525050565b60006060820190508181036000830152610d428186610ce0565b90508181036020830152610d568185610ce0565b9050610d656040830184610d19565b949350505050565b6000602082019050610d826000830184610d19565b92915050565b7f4d6f6e746f20696e636f72726563746f00000000000000000000000000000000600082015250565b6000610dbe601083610ccf565b9150610dc982610d88565b602082019050919050565b60006020820190508181036000830152610ded81610db1565b9050919050565b7f4c696d69746520646520626f6c65746f7320616c63616e7a61646f0000000000600082015250565b6000610e2a601b83610ccf565b9150610e3582610df4565b602082019050919050565b60006020820190508181036000830152610e5981610e1d565b9050919050565b7f4e487b7100000000000000000000000000000000000000000000000000000000600052602260045260246000fd5b60006002820490506001821680610ea757607f821691505b602082108103610eba57610eb9610e60565b5b50919050565b60008190508160005260206000209050919050565b60006020601f8301049050919050565b600082821b905092915050565b600060088302610f227fffffffffffffffffffffffffffffffffffffffffffffffffffffffffffffffff82610ee5565b610f2c8683610ee5565b95508019841693508086168417925050509392505050565b6000819050919050565b6000610f69610f64610f5f84610b3b565b610f44565b610b3b565b9050919050565b6000819050919050565b610f8383610f4e565b610f97610f8f82610f70565b848454610ef2565b825550505050565b600090565b610fac610f9f565b610fb7818484610f7a565b505050565b5b81811015610fdb57610fd0600082610fa4565b600181019050610fbd565b5050565b601f82111561102057610ff181610ec0565b610ffa84610ed5565b81016020851015611009578190505b61101d61101585610ed5565b830182610fbc565b50505b505050565b600082821c905092915050565b600061104360001984600802611025565b1980831691505092915050565b600061105c8383611032565b9150826002028217905092915050565b61107582610abc565b67ffffffffffffffff81111561108e5761108d610838565b5b6110988254610e8f565b6110a3828285610fdf565b600060209050601f8311600181146110d657600084156110c4578287015190505b6110ce8582611050565b865550611136565b601f1984166110e486610ec0565b60005b8281101561110c578489015182556001820191506020850194506020810190506110e7565b868310156111295784890151611125601f891682611032565b8355505b6001600288020188555050505b505050505050565b60006080820190506111536000830187610a0d565b81810360208301526111658186610ce0565b905081810360408301526111798185610ce0565b90506111886060830184610d19565b95945050505050565b7f4e6f206572657320656c206f776e657200000000000000000000000000000000600082015250565b60006111c7601083610ccf565b91506111d282611191565b602082019050919050565b600060208201905081810360008301526111f6816111ba565b905091905056fea2646970667358221220addf37a112a284aa1a9c693fc09f44bd1783df89f95369574254a9eda2f4681c64736f6c634300081e0033",
		"opcodes": "PUSH1 0x80 PUSH1 0x40 MSTORE PUSH1 0x4 CALLDATASIZE LT PUSH2 0x70 JUMPI PUSH1 0x0 CALLDATALOAD PUSH1 0xE0 SHR DUP1 PUSH4 0x8DA5CB5B GT PUSH2 0x4E JUMPI DUP1 PUSH4 0x8DA5CB5B EQ PUSH2 0xD3 JUMPI DUP1 PUSH4 0x9E56D253 EQ PUSH2 0xFE JUMPI DUP1 PUSH4 0xE8C7844B EQ PUSH2 0x13B JUMPI DUP1 PUSH4 0xEE5ADE83 EQ PUSH2 0x17A JUMPI PUSH2 0x70 JUMP JUMPDEST DUP1 PUSH4 0xD1D4BC7 EQ PUSH2 0x75 JUMPI DUP1 PUSH4 0x7EBE4EB0 EQ PUSH2 0xA0 JUMPI DUP1 PUSH4 0x8AF01880 EQ PUSH2 0xBC JUMPI JUMPDEST PUSH1 0x0 DUP1 REVERT JUMPDEST CALLVALUE DUP1 ISZERO PUSH2 0x81 JUMPI PUSH1 0x0 DUP1 REVERT JUMPDEST POP PUSH2 0x8A PUSH2 0x1A5 JUMP JUMPDEST PUSH1 0x40 MLOAD PUSH2 0x97 SWAP2 SWAP1 PUSH2 0x7EE JUMP JUMPDEST PUSH1 0x40 MLOAD DUP1 SWAP2 SUB SWAP1 RETURN JUMPDEST PUSH2 0xBA PUSH1 0x4 DUP1 CALLDATASIZE SUB DUP2 ADD SWAP1 PUSH2 0xB5 SWAP2 SWAP1 PUSH2 0x963 JUMP JUMPDEST PUSH2 0x1B8 JUMP JUMPDEST STOP JUMPDEST CALLVALUE DUP1 ISZERO PUSH2 0xC8 JUMPI PUSH1 0x0 DUP1 REVERT JUMPDEST POP PUSH2 0xD1 PUSH2 0x38E JUMP JUMPDEST STOP JUMPDEST CALLVALUE DUP1 ISZERO PUSH2 0xDF JUMPI PUSH1 0x0 DUP1 REVERT JUMPDEST POP PUSH2 0xE8 PUSH2 0x485 JUMP JUMPDEST PUSH1 0x40 MLOAD PUSH2 0xF5 SWAP2 SWAP1 PUSH2 0xA1C JUMP JUMPDEST PUSH1 0x40 MLOAD DUP1 SWAP2 SUB SWAP1 RETURN JUMPDEST CALLVALUE DUP1 ISZERO PUSH2 0x10A JUMPI PUSH1 0x0 DUP1 REVERT JUMPDEST POP PUSH2 0x125 PUSH1 0x4 DUP1 CALLDATASIZE SUB DUP2 ADD SWAP1 PUSH2 0x120 SWAP2 SWAP1 PUSH2 0xA63 JUMP JUMPDEST PUSH2 0x4A9 JUMP JUMPDEST PUSH1 0x40 MLOAD PUSH2 0x132 SWAP2 SWAP1 PUSH2 0xC41 JUMP JUMPDEST PUSH1 0x40 MLOAD DUP1 SWAP2 SUB SWAP1 RETURN JUMPDEST CALLVALUE DUP1 ISZERO PUSH2 0x147 JUMPI PUSH1 0x0 DUP1 REVERT JUMPDEST POP PUSH2 0x162 PUSH1 0x4 DUP1 CALLDATASIZE SUB DUP2 ADD SWAP1 PUSH2 0x15D SWAP2 SWAP1 PUSH2 0xC8F JUMP JUMPDEST PUSH2 0x675 JUMP JUMPDEST PUSH1 0x40 MLOAD PUSH2 0x171 SWAP4 SWAP3 SWAP2 SWAP1 PUSH2 0xD28 JUMP JUMPDEST PUSH1 0x40 MLOAD DUP1 SWAP2 SUB SWAP1 RETURN JUMPDEST CALLVALUE DUP1 ISZERO PUSH2 0x186 JUMPI PUSH1 0x0 DUP1 REVERT JUMPDEST POP PUSH2 0x18F PUSH2 0x7CC JUMP JUMPDEST PUSH1 0x40 MLOAD PUSH2 0x19C SWAP2 SWAP1 PUSH2 0xD6D JUMP JUMPDEST PUSH1 0x40 MLOAD DUP1 SWAP2 SUB SWAP1 RETURN JUMPDEST PUSH1 0x2 PUSH1 0x0 SWAP1 SLOAD SWAP1 PUSH2 0x100 EXP SWAP1 DIV PUSH1 0xFF AND DUP2 JUMP JUMPDEST PUSH1 0x1 SLOAD CALLVALUE EQ PUSH2 0x1FC JUMPI PUSH1 0x40 MLOAD PUSH32 0x8C379A000000000000000000000000000000000000000000000000000000000 DUP2 MSTORE PUSH1 0x4 ADD PUSH2 0x1F3 SWAP1 PUSH2 0xDD4 JUMP JUMPDEST PUSH1 0x40 MLOAD DUP1 SWAP2 SUB SWAP1 REVERT JUMPDEST PUSH1 0x2 PUSH1 0x0 SWAP1 SLOAD SWAP1 PUSH2 0x100 EXP SWAP1 DIV PUSH1 0xFF AND PUSH1 0xFF AND PUSH1 0x3 PUSH1 0x0 CALLER PUSH20 0xFFFFFFFFFFFFFFFFFFFFFFFFFFFFFFFFFFFFFFFF AND PUSH20 0xFFFFFFFFFFFFFFFFFFFFFFFFFFFFFFFFFFFFFFFF AND DUP2 MSTORE PUSH1 0x20 ADD SWAP1 DUP2 MSTORE PUSH1 0x20 ADD PUSH1 0x0 KECCAK256 DUP1 SLOAD SWAP1 POP LT PUSH2 0x292 JUMPI PUSH1 0x40 MLOAD PUSH32 0x8C379A000000000000000000000000000000000000000000000000000000000 DUP2 MSTORE PUSH1 0x4 ADD PUSH2 0x289 SWAP1 PUSH2 0xE40 JUMP JUMPDEST PUSH1 0x40 MLOAD DUP1 SWAP2 SUB SWAP1 REVERT JUMPDEST PUSH1 0x3 PUSH1 0x0 CALLER PUSH20 0xFFFFFFFFFFFFFFFFFFFFFFFFFFFFFFFFFFFFFFFF AND PUSH20 0xFFFFFFFFFFFFFFFFFFFFFFFFFFFFFFFFFFFFFFFF AND DUP2 MSTORE PUSH1 0x20 ADD SWAP1 DUP2 MSTORE PUSH1 0x20 ADD PUSH1 0x0 KECCAK256 PUSH1 0x40 MLOAD DUP1 PUSH1 0x60 ADD PUSH1 0x40 MSTORE DUP1 DUP5 DUP2 MSTORE PUSH1 0x20 ADD DUP4 DUP2 MSTORE PUSH1 0x20 ADD CALLVALUE DUP2 MSTORE POP SWAP1 DUP1 PUSH1 0x1 DUP2 SLOAD ADD DUP1 DUP3 SSTORE DUP1 SWAP2 POP POP PUSH1 0x1 SWAP1 SUB SWAP1 PUSH1 0x0 MSTORE PUSH1 0x20 PUSH1 0x0 KECCAK256 SWAP1 PUSH1 0x3 MUL ADD PUSH1 0x0 SWAP1 SWAP2 SWAP1 SWAP2 SWAP1 SWAP2 POP PUSH1 0x0 DUP3 ADD MLOAD DUP2 PUSH1 0x0 ADD SWAP1 DUP2 PUSH2 0x32A SWAP2 SWAP1 PUSH2 0x106C JUMP JUMPDEST POP PUSH1 0x20 DUP3 ADD MLOAD DUP2 PUSH1 0x1 ADD SWAP1 DUP2 PUSH2 0x340 SWAP2 SWAP1 PUSH2 0x106C JUMP JUMPDEST POP PUSH1 0x40 DUP3 ADD MLOAD DUP2 PUSH1 0x2 ADD SSTORE POP POP PUSH32 0x48A8478D0D46EEED0517258AF2D50CC03E2E7CC2103605730852CB87E4B6F812 CALLER DUP4 DUP4 CALLVALUE PUSH1 0x40 MLOAD PUSH2 0x382 SWAP5 SWAP4 SWAP3 SWAP2 SWAP1 PUSH2 0x113E JUMP JUMPDEST PUSH1 0x40 MLOAD DUP1 SWAP2 SUB SWAP1 LOG1 POP POP JUMP JUMPDEST PUSH1 0x0 DUP1 SLOAD SWAP1 PUSH2 0x100 EXP SWAP1 DIV PUSH20 0xFFFFFFFFFFFFFFFFFFFFFFFFFFFFFFFFFFFFFFFF AND PUSH20 0xFFFFFFFFFFFFFFFFFFFFFFFFFFFFFFFFFFFFFFFF AND CALLER PUSH20 0xFFFFFFFFFFFFFFFFFFFFFFFFFFFFFFFFFFFFFFFF AND EQ PUSH2 0x41C JUMPI PUSH1 0x40 MLOAD PUSH32 0x8C379A000000000000000000000000000000000000000000000000000000000 DUP2 MSTORE PUSH1 0x4 ADD PUSH2 0x413 SWAP1 PUSH2 0x11DD JUMP JUMPDEST PUSH1 0x40 MLOAD DUP1 SWAP2 SUB SWAP1 REVERT JUMPDEST PUSH1 0x0 DUP1 SLOAD SWAP1 PUSH2 0x100 EXP SWAP1 DIV PUSH20 0xFFFFFFFFFFFFFFFFFFFFFFFFFFFFFFFFFFFFFFFF AND PUSH20 0xFFFFFFFFFFFFFFFFFFFFFFFFFFFFFFFFFFFFFFFF AND PUSH2 0x8FC SELFBALANCE SWAP1 DUP2 ISZERO MUL SWAP1 PUSH1 0x40 MLOAD PUSH1 0x0 PUSH1 0x40 MLOAD DUP1 DUP4 SUB DUP2 DUP6 DUP9 DUP9 CALL SWAP4 POP POP POP POP ISZERO DUP1 ISZERO PUSH2 0x482 JUMPI RETURNDATASIZE PUSH1 0x0 DUP1 RETURNDATACOPY RETURNDATASIZE PUSH1 0x0 REVERT JUMPDEST POP JUMP JUMPDEST PUSH1 0x0 DUP1 SLOAD SWAP1 PUSH2 0x100 EXP SWAP1 DIV PUSH20 0xFFFFFFFFFFFFFFFFFFFFFFFFFFFFFFFFFFFFFFFF AND DUP2 JUMP JUMPDEST PUSH1 0x60 PUSH1 0x3 PUSH1 0x0 DUP4 PUSH20 0xFFFFFFFFFFFFFFFFFFFFFFFFFFFFFFFFFFFFFFFF AND PUSH20 0xFFFFFFFFFFFFFFFFFFFFFFFFFFFFFFFFFFFFFFFF AND DUP2 MSTORE PUSH1 0x20 ADD SWAP1 DUP2 MSTORE PUSH1 0x20 ADD PUSH1 0x0 KECCAK256 DUP1 SLOAD DUP1 PUSH1 0x20 MUL PUSH1 0x20 ADD PUSH1 0x40 MLOAD SWAP1 DUP2 ADD PUSH1 0x40 MSTORE DUP1 SWAP3 SWAP2 SWAP1 DUP2 DUP2 MSTORE PUSH1 0x20 ADD PUSH1 0x0 SWAP1 JUMPDEST DUP3 DUP3 LT ISZERO PUSH2 0x66A JUMPI DUP4 DUP3 SWAP1 PUSH1 0x0 MSTORE PUSH1 0x20 PUSH1 0x0 KECCAK256 SWAP1 PUSH1 0x3 MUL ADD PUSH1 0x40 MLOAD DUP1 PUSH1 0x60 ADD PUSH1 0x40 MSTORE SWAP1 DUP2 PUSH1 0x0 DUP3 ADD DUP1 SLOAD PUSH2 0x53D SWAP1 PUSH2 0xE8F JUMP JUMPDEST DUP1 PUSH1 0x1F ADD PUSH1 0x20 DUP1 SWAP2 DIV MUL PUSH1 0x20 ADD PUSH1 0x40 MLOAD SWAP1 DUP2 ADD PUSH1 0x40 MSTORE DUP1 SWAP3 SWAP2 SWAP1 DUP2 DUP2 MSTORE PUSH1 0x20 ADD DUP3 DUP1 SLOAD PUSH2 0x569 SWAP1 PUSH2 0xE8F JUMP JUMPDEST DUP1 ISZERO PUSH2 0x5B6 JUMPI DUP1 PUSH1 0x1F LT PUSH2 0x58B JUMPI PUSH2 0x100 DUP1 DUP4 SLOAD DIV MUL DUP4 MSTORE SWAP2 PUSH1 0x20 ADD SWAP2 PUSH2 0x5B6 JUMP JUMPDEST DUP3 ADD SWAP2 SWAP1 PUSH1 0x0 MSTORE PUSH1 0x20 PUSH1 0x0 KECCAK256 SWAP1 JUMPDEST DUP2 SLOAD DUP2 MSTORE SWAP1 PUSH1 0x1 ADD SWAP1 PUSH1 0x20 ADD DUP1 DUP4 GT PUSH2 0x599 JUMPI DUP3 SWAP1 SUB PUSH1 0x1F AND DUP3 ADD SWAP2 JUMPDEST POP POP POP POP POP DUP2 MSTORE PUSH1 0x20 ADD PUSH1 0x1 DUP3 ADD DUP1 SLOAD PUSH2 0x5CF SWAP1 PUSH2 0xE8F JUMP JUMPDEST DUP1 PUSH1 0x1F ADD PUSH1 0x20 DUP1 SWAP2 DIV MUL PUSH1 0x20 ADD PUSH1 0x40 MLOAD SWAP1 DUP2 ADD PUSH1 0x40 MSTORE DUP1 SWAP3 SWAP2 SWAP1 DUP2 DUP2 MSTORE PUSH1 0x20 ADD DUP3 DUP1 SLOAD PUSH2 0x5FB SWAP1 PUSH2 0xE8F JUMP JUMPDEST DUP1 ISZERO PUSH2 0x648 JUMPI DUP1 PUSH1 0x1F LT PUSH2 0x61D JUMPI PUSH2 0x100 DUP1 DUP4 SLOAD DIV MUL DUP4 MSTORE SWAP2 PUSH1 0x20 ADD SWAP2 PUSH2 0x648 JUMP JUMPDEST DUP3 ADD SWAP2 SWAP1 PUSH1 0x0 MSTORE PUSH1 0x20 PUSH1 0x0 KECCAK256 SWAP1 JUMPDEST DUP2 SLOAD DUP2 MSTORE SWAP1 PUSH1 0x1 ADD SWAP1 PUSH1 0x20 ADD DUP1 DUP4 GT PUSH2 0x62B JUMPI DUP3 SWAP1 SUB PUSH1 0x1F AND DUP3 ADD SWAP2 JUMPDEST POP POP POP POP POP DUP2 MSTORE PUSH1 0x20 ADD PUSH1 0x2 DUP3 ADD SLOAD DUP2 MSTORE POP POP DUP2 MSTORE PUSH1 0x20 ADD SWAP1 PUSH1 0x1 ADD SWAP1 PUSH2 0x50A JUMP JUMPDEST POP POP POP POP SWAP1 POP SWAP2 SWAP1 POP JUMP JUMPDEST PUSH1 0x3 PUSH1 0x20 MSTORE DUP2 PUSH1 0x0 MSTORE PUSH1 0x40 PUSH1 0x0 KECCAK256 DUP2 DUP2 SLOAD DUP2 LT PUSH2 0x691 JUMPI PUSH1 0x0 DUP1 REVERT JUMPDEST SWAP1 PUSH1 0x0 MSTORE PUSH1 0x20 PUSH1 0x0 KECCAK256 SWAP1 PUSH1 0x3 MUL ADD PUSH1 0x0 SWAP2 POP SWAP2 POP POP DUP1 PUSH1 0x0 ADD DUP1 SLOAD PUSH2 0x6B5 SWAP1 PUSH2 0xE8F JUMP JUMPDEST DUP1 PUSH1 0x1F ADD PUSH1 0x20 DUP1 SWAP2 DIV MUL PUSH1 0x20 ADD PUSH1 0x40 MLOAD SWAP1 DUP2 ADD PUSH1 0x40 MSTORE DUP1 SWAP3 SWAP2 SWAP1 DUP2 DUP2 MSTORE PUSH1 0x20 ADD DUP3 DUP1 SLOAD PUSH2 0x6E1 SWAP1 PUSH2 0xE8F JUMP JUMPDEST DUP1 ISZERO PUSH2 0x72E JUMPI DUP1 PUSH1 0x1F LT PUSH2 0x703 JUMPI PUSH2 0x100 DUP1 DUP4 SLOAD DIV MUL DUP4 MSTORE SWAP2 PUSH1 0x20 ADD SWAP2 PUSH2 0x72E JUMP JUMPDEST DUP3 ADD SWAP2 SWAP1 PUSH1 0x0 MSTORE PUSH1 0x20 PUSH1 0x0 KECCAK256 SWAP1 JUMPDEST DUP2 SLOAD DUP2 MSTORE SWAP1 PUSH1 0x1 ADD SWAP1 PUSH1 0x20 ADD DUP1 DUP4 GT PUSH2 0x711 JUMPI DUP3 SWAP1 SUB PUSH1 0x1F AND DUP3 ADD SWAP2 JUMPDEST POP POP POP POP POP SWAP1 DUP1 PUSH1 0x1 ADD DUP1 SLOAD PUSH2 0x743 SWAP1 PUSH2 0xE8F JUMP JUMPDEST DUP1 PUSH1 0x1F ADD PUSH1 0x20 DUP1 SWAP2 DIV MUL PUSH1 0x20 ADD PUSH1 0x40 MLOAD SWAP1 DUP2 ADD PUSH1 0x40 MSTORE DUP1 SWAP3 SWAP2 SWAP1 DUP2 DUP2 MSTORE PUSH1 0x20 ADD DUP3 DUP1 SLOAD PUSH2 0x76F SWAP1 PUSH2 0xE8F JUMP JUMPDEST DUP1 ISZERO PUSH2 0x7BC JUMPI DUP1 PUSH1 0x1F LT PUSH2 0x791 JUMPI PUSH2 0x100 DUP1 DUP4 SLOAD DIV MUL DUP4 MSTORE SWAP2 PUSH1 0x20 ADD SWAP2 PUSH2 0x7BC JUMP JUMPDEST DUP3 ADD SWAP2 SWAP1 PUSH1 0x0 MSTORE PUSH1 0x20 PUSH1 0x0 KECCAK256 SWAP1 JUMPDEST DUP2 SLOAD DUP2 MSTORE SWAP1 PUSH1 0x1 ADD SWAP1 PUSH1 0x20 ADD DUP1 DUP4 GT PUSH2 0x79F JUMPI DUP3 SWAP1 SUB PUSH1 0x1F AND DUP3 ADD SWAP2 JUMPDEST POP POP POP POP POP SWAP1 DUP1 PUSH1 0x2 ADD SLOAD SWAP1 POP DUP4 JUMP JUMPDEST PUSH1 0x1 SLOAD DUP2 JUMP JUMPDEST PUSH1 0x0 PUSH1 0xFF DUP3 AND SWAP1 POP SWAP2 SWAP1 POP JUMP JUMPDEST PUSH2 0x7E8 DUP2 PUSH2 0x7D2 JUMP JUMPDEST DUP3 MSTORE POP POP JUMP JUMPDEST PUSH1 0x0 PUSH1 0x20 DUP3 ADD SWAP1 POP PUSH2 0x803 PUSH1 0x0 DUP4 ADD DUP5 PUSH2 0x7DF JUMP JUMPDEST SWAP3 SWAP2 POP POP JUMP JUMPDEST PUSH1 0x0 PUSH1 0x40 MLOAD SWAP1 POP SWAP1 JUMP JUMPDEST PUSH1 0x0 DUP1 REVERT JUMPDEST PUSH1 0x0 DUP1 REVERT JUMPDEST PUSH1 0x0 DUP1 REVERT JUMPDEST PUSH1 0x0 DUP1 REVERT JUMPDEST PUSH1 0x0 PUSH1 0x1F NOT PUSH1 0x1F DUP4 ADD AND SWAP1 POP SWAP2 SWAP1 POP JUMP JUMPDEST PUSH32 0x4E487B7100000000000000000000000000000000000000000000000000000000 PUSH1 0x0 MSTORE PUSH1 0x41 PUSH1 0x4 MSTORE PUSH1 0x24 PUSH1 0x0 REVERT JUMPDEST PUSH2 0x870 DUP3 PUSH2 0x827 JUMP JUMPDEST DUP2 ADD DUP2 DUP2 LT PUSH8 0xFFFFFFFFFFFFFFFF DUP3 GT OR ISZERO PUSH2 0x88F JUMPI PUSH2 0x88E PUSH2 0x838 JUMP JUMPDEST JUMPDEST DUP1 PUSH1 0x40 MSTORE POP POP POP JUMP JUMPDEST PUSH1 0x0 PUSH2 0x8A2 PUSH2 0x809 JUMP JUMPDEST SWAP1 POP PUSH2 0x8AE DUP3 DUP3 PUSH2 0x867 JUMP JUMPDEST SWAP2 SWAP1 POP JUMP JUMPDEST PUSH1 0x0 PUSH8 0xFFFFFFFFFFFFFFFF DUP3 GT ISZERO PUSH2 0x8CE JUMPI PUSH2 0x8CD PUSH2 0x838 JUMP JUMPDEST JUMPDEST PUSH2 0x8D7 DUP3 PUSH2 0x827 JUMP JUMPDEST SWAP1 POP PUSH1 0x20 DUP2 ADD SWAP1 POP SWAP2 SWAP1 POP JUMP JUMPDEST DUP3 DUP2 DUP4 CALLDATACOPY PUSH1 0x0 DUP4 DUP4 ADD MSTORE POP POP POP JUMP JUMPDEST PUSH1 0x0 PUSH2 0x906 PUSH2 0x901 DUP5 PUSH2 0x8B3 JUMP JUMPDEST PUSH2 0x898 JUMP JUMPDEST SWAP1 POP DUP3 DUP2 MSTORE PUSH1 0x20 DUP2 ADD DUP5 DUP5 DUP5 ADD GT ISZERO PUSH2 0x922 JUMPI PUSH2 0x921 PUSH2 0x822 JUMP JUMPDEST JUMPDEST PUSH2 0x92D DUP5 DUP3 DUP6 PUSH2 0x8E4 JUMP JUMPDEST POP SWAP4 SWAP3 POP POP POP JUMP JUMPDEST PUSH1 0x0 DUP3 PUSH1 0x1F DUP4 ADD SLT PUSH2 0x94A JUMPI PUSH2 0x949 PUSH2 0x81D JUMP JUMPDEST JUMPDEST DUP2 CALLDATALOAD PUSH2 0x95A DUP5 DUP3 PUSH1 0x20 DUP7 ADD PUSH2 0x8F3 JUMP JUMPDEST SWAP2 POP POP SWAP3 SWAP2 POP POP JUMP JUMPDEST PUSH1 0x0 DUP1 PUSH1 0x40 DUP4 DUP6 SUB SLT ISZERO PUSH2 0x97A JUMPI PUSH2 0x979 PUSH2 0x813 JUMP JUMPDEST JUMPDEST PUSH1 0x0 DUP4 ADD CALLDATALOAD PUSH8 0xFFFFFFFFFFFFFFFF DUP2 GT ISZERO PUSH2 0x998 JUMPI PUSH2 0x997 PUSH2 0x818 JUMP JUMPDEST JUMPDEST PUSH2 0x9A4 DUP6 DUP3 DUP7 ADD PUSH2 0x935 JUMP JUMPDEST SWAP3 POP POP PUSH1 0x20 DUP4 ADD CALLDATALOAD PUSH8 0xFFFFFFFFFFFFFFFF DUP2 GT ISZERO PUSH2 0x9C5 JUMPI PUSH2 0x9C4 PUSH2 0x818 JUMP JUMPDEST JUMPDEST PUSH2 0x9D1 DUP6 DUP3 DUP7 ADD PUSH2 0x935 JUMP JUMPDEST SWAP2 POP POP SWAP3 POP SWAP3 SWAP1 POP JUMP JUMPDEST PUSH1 0x0 PUSH20 0xFFFFFFFFFFFFFFFFFFFFFFFFFFFFFFFFFFFFFFFF DUP3 AND SWAP1 POP SWAP2 SWAP1 POP JUMP JUMPDEST PUSH1 0x0 PUSH2 0xA06 DUP3 PUSH2 0x9DB JUMP JUMPDEST SWAP1 POP SWAP2 SWAP1 POP JUMP JUMPDEST PUSH2 0xA16 DUP2 PUSH2 0x9FB JUMP JUMPDEST DUP3 MSTORE POP POP JUMP JUMPDEST PUSH1 0x0 PUSH1 0x20 DUP3 ADD SWAP1 POP PUSH2 0xA31 PUSH1 0x0 DUP4 ADD DUP5 PUSH2 0xA0D JUMP JUMPDEST SWAP3 SWAP2 POP POP JUMP JUMPDEST PUSH2 0xA40 DUP2 PUSH2 0x9FB JUMP JUMPDEST DUP2 EQ PUSH2 0xA4B JUMPI PUSH1 0x0 DUP1 REVERT JUMPDEST POP JUMP JUMPDEST PUSH1 0x0 DUP2 CALLDATALOAD SWAP1 POP PUSH2 0xA5D DUP2 PUSH2 0xA37 JUMP JUMPDEST SWAP3 SWAP2 POP POP JUMP JUMPDEST PUSH1 0x0 PUSH1 0x20 DUP3 DUP5 SUB SLT ISZERO PUSH2 0xA79 JUMPI PUSH2 0xA78 PUSH2 0x813 JUMP JUMPDEST JUMPDEST PUSH1 0x0 PUSH2 0xA87 DUP5 DUP3 DUP6 ADD PUSH2 0xA4E JUMP JUMPDEST SWAP2 POP POP SWAP3 SWAP2 POP POP JUMP JUMPDEST PUSH1 0x0 DUP2 MLOAD SWAP1 POP SWAP2 SWAP1 POP JUMP JUMPDEST PUSH1 0x0 DUP3 DUP3 MSTORE PUSH1 0x20 DUP3 ADD SWAP1 POP SWAP3 SWAP2 POP POP JUMP JUMPDEST PUSH1 0x0 DUP2 SWAP1 POP PUSH1 0x20 DUP3 ADD SWAP1 POP SWAP2 SWAP1 POP JUMP JUMPDEST PUSH1 0x0 DUP2 MLOAD SWAP1 POP SWAP2 SWAP1 POP JUMP JUMPDEST PUSH1 0x0 DUP3 DUP3 MSTORE PUSH1 0x20 DUP3 ADD SWAP1 POP SWAP3 SWAP2 POP POP JUMP JUMPDEST PUSH1 0x0 JUMPDEST DUP4 DUP2 LT ISZERO PUSH2 0xAF6 JUMPI DUP1 DUP3 ADD MLOAD DUP2 DUP5 ADD MSTORE PUSH1 0x20 DUP2 ADD SWAP1 POP PUSH2 0xADB JUMP JUMPDEST PUSH1 0x0 DUP5 DUP5 ADD MSTORE POP POP POP POP JUMP JUMPDEST PUSH1 0x0 PUSH2 0xB0D DUP3 PUSH2 0xABC JUMP JUMPDEST PUSH2 0xB17 DUP2 DUP6 PUSH2 0xAC7 JUMP JUMPDEST SWAP4 POP PUSH2 0xB27 DUP2 DUP6 PUSH1 0x20 DUP7 ADD PUSH2 0xAD8 JUMP JUMPDEST PUSH2 0xB30 DUP2 PUSH2 0x827 JUMP JUMPDEST DUP5 ADD SWAP2 POP POP SWAP3 SWAP2 POP POP JUMP JUMPDEST PUSH1 0x0 DUP2 SWAP1 POP SWAP2 SWAP1 POP JUMP JUMPDEST PUSH2 0xB4E DUP2 PUSH2 0xB3B JUMP JUMPDEST DUP3 MSTORE POP POP JUMP JUMPDEST PUSH1 0x0 PUSH1 0x60 DUP4 ADD PUSH1 0x0 DUP4 ADD MLOAD DUP5 DUP3 SUB PUSH1 0x0 DUP7 ADD MSTORE PUSH2 0xB71 DUP3 DUP3 PUSH2 0xB02 JUMP JUMPDEST SWAP2 POP POP PUSH1 0x20 DUP4 ADD MLOAD DUP5 DUP3 SUB PUSH1 0x20 DUP7 ADD MSTORE PUSH2 0xB8B DUP3 DUP3 PUSH2 0xB02 JUMP JUMPDEST SWAP2 POP POP PUSH1 0x40 DUP4 ADD MLOAD PUSH2 0xBA0 PUSH1 0x40 DUP7 ADD DUP3 PUSH2 0xB45 JUMP JUMPDEST POP DUP1 SWAP2 POP POP SWAP3 SWAP2 POP POP JUMP JUMPDEST PUSH1 0x0 PUSH2 0xBB7 DUP4 DUP4 PUSH2 0xB54 JUMP JUMPDEST SWAP1 POP SWAP3 SWAP2 POP POP JUMP JUMPDEST PUSH1 0x0 PUSH1 0x20 DUP3 ADD SWAP1 POP SWAP2 SWAP1 POP JUMP JUMPDEST PUSH1 0x0 PUSH2 0xBD7 DUP3 PUSH2 0xA90 JUMP JUMPDEST PUSH2 0xBE1 DUP2 DUP6 PUSH2 0xA9B JUMP JUMPDEST SWAP4 POP DUP4 PUSH1 0x20 DUP3 MUL DUP6 ADD PUSH2 0xBF3 DUP6 PUSH2 0xAAC JUMP JUMPDEST DUP1 PUSH1 0x0 JUMPDEST DUP6 DUP2 LT ISZERO PUSH2 0xC2F JUMPI DUP5 DUP5 SUB DUP10 MSTORE DUP2 MLOAD PUSH2 0xC10 DUP6 DUP3 PUSH2 0xBAB JUMP JUMPDEST SWAP5 POP PUSH2 0xC1B DUP4 PUSH2 0xBBF JUMP JUMPDEST SWAP3 POP PUSH1 0x20 DUP11 ADD SWAP10 POP POP PUSH1 0x1 DUP2 ADD SWAP1 POP PUSH2 0xBF7 JUMP JUMPDEST POP DUP3 SWAP8 POP DUP8 SWAP6 POP POP POP POP POP POP SWAP3 SWAP2 POP POP JUMP JUMPDEST PUSH1 0x0 PUSH1 0x20 DUP3 ADD SWAP1 POP DUP2 DUP2 SUB PUSH1 0x0 DUP4 ADD MSTORE PUSH2 0xC5B DUP2 DUP5 PUSH2 0xBCC JUMP JUMPDEST SWAP1 POP SWAP3 SWAP2 POP POP JUMP JUMPDEST PUSH2 0xC6C DUP2 PUSH2 0xB3B JUMP JUMPDEST DUP2 EQ PUSH2 0xC77 JUMPI PUSH1 0x0 DUP1 REVERT JUMPDEST POP JUMP JUMPDEST PUSH1 0x0 DUP2 CALLDATALOAD SWAP1 POP PUSH2 0xC89 DUP2 PUSH2 0xC63 JUMP JUMPDEST SWAP3 SWAP2 POP POP JUMP JUMPDEST PUSH1 0x0 DUP1 PUSH1 0x40 DUP4 DUP6 SUB SLT ISZERO PUSH2 0xCA6 JUMPI PUSH2 0xCA5 PUSH2 0x813 JUMP JUMPDEST JUMPDEST PUSH1 0x0 PUSH2 0xCB4 DUP6 DUP3 DUP7 ADD PUSH2 0xA4E JUMP JUMPDEST SWAP3 POP POP PUSH1 0x20 PUSH2 0xCC5 DUP6 DUP3 DUP7 ADD PUSH2 0xC7A JUMP JUMPDEST SWAP2 POP POP SWAP3 POP SWAP3 SWAP1 POP JUMP JUMPDEST PUSH1 0x0 DUP3 DUP3 MSTORE PUSH1 0x20 DUP3 ADD SWAP1 POP SWAP3 SWAP2 POP POP JUMP JUMPDEST PUSH1 0x0 PUSH2 0xCEB DUP3 PUSH2 0xABC JUMP JUMPDEST PUSH2 0xCF5 DUP2 DUP6 PUSH2 0xCCF JUMP JUMPDEST SWAP4 POP PUSH2 0xD05 DUP2 DUP6 PUSH1 0x20 DUP7 ADD PUSH2 0xAD8 JUMP JUMPDEST PUSH2 0xD0E DUP2 PUSH2 0x827 JUMP JUMPDEST DUP5 ADD SWAP2 POP POP SWAP3 SWAP2 POP POP JUMP JUMPDEST PUSH2 0xD22 DUP2 PUSH2 0xB3B JUMP JUMPDEST DUP3 MSTORE POP POP JUMP JUMPDEST PUSH1 0x0 PUSH1 0x60 DUP3 ADD SWAP1 POP DUP2 DUP2 SUB PUSH1 0x0 DUP4 ADD MSTORE PUSH2 0xD42 DUP2 DUP7 PUSH2 0xCE0 JUMP JUMPDEST SWAP1 POP DUP2 DUP2 SUB PUSH1 0x20 DUP4 ADD MSTORE PUSH2 0xD56 DUP2 DUP6 PUSH2 0xCE0 JUMP JUMPDEST SWAP1 POP PUSH2 0xD65 PUSH1 0x40 DUP4 ADD DUP5 PUSH2 0xD19 JUMP JUMPDEST SWAP5 SWAP4 POP POP POP POP JUMP JUMPDEST PUSH1 0x0 PUSH1 0x20 DUP3 ADD SWAP1 POP PUSH2 0xD82 PUSH1 0x0 DUP4 ADD DUP5 PUSH2 0xD19 JUMP JUMPDEST SWAP3 SWAP2 POP POP JUMP JUMPDEST PUSH32 0x4D6F6E746F20696E636F72726563746F00000000000000000000000000000000 PUSH1 0x0 DUP3 ADD MSTORE POP JUMP JUMPDEST PUSH1 0x0 PUSH2 0xDBE PUSH1 0x10 DUP4 PUSH2 0xCCF JUMP JUMPDEST SWAP2 POP PUSH2 0xDC9 DUP3 PUSH2 0xD88 JUMP JUMPDEST PUSH1 0x20 DUP3 ADD SWAP1 POP SWAP2 SWAP1 POP JUMP JUMPDEST PUSH1 0x0 PUSH1 0x20 DUP3 ADD SWAP1 POP DUP2 DUP2 SUB PUSH1 0x0 DUP4 ADD MSTORE PUSH2 0xDED DUP2 PUSH2 0xDB1 JUMP JUMPDEST SWAP1 POP SWAP2 SWAP1 POP JUMP JUMPDEST PUSH32 0x4C696D69746520646520626F6C65746F7320616C63616E7A61646F0000000000 PUSH1 0x0 DUP3 ADD MSTORE POP JUMP JUMPDEST PUSH1 0x0 PUSH2 0xE2A PUSH1 0x1B DUP4 PUSH2 0xCCF JUMP JUMPDEST SWAP2 POP PUSH2 0xE35 DUP3 PUSH2 0xDF4 JUMP JUMPDEST PUSH1 0x20 DUP3 ADD SWAP1 POP SWAP2 SWAP1 POP JUMP JUMPDEST PUSH1 0x0 PUSH1 0x20 DUP3 ADD SWAP1 POP DUP2 DUP2 SUB PUSH1 0x0 DUP4 ADD MSTORE PUSH2 0xE59 DUP2 PUSH2 0xE1D JUMP JUMPDEST SWAP1 POP SWAP2 SWAP1 POP JUMP JUMPDEST PUSH32 0x4E487B7100000000000000000000000000000000000000000000000000000000 PUSH1 0x0 MSTORE PUSH1 0x22 PUSH1 0x4 MSTORE PUSH1 0x24 PUSH1 0x0 REVERT JUMPDEST PUSH1 0x0 PUSH1 0x2 DUP3 DIV SWAP1 POP PUSH1 0x1 DUP3 AND DUP1 PUSH2 0xEA7 JUMPI PUSH1 0x7F DUP3 AND SWAP2 POP JUMPDEST PUSH1 0x20 DUP3 LT DUP2 SUB PUSH2 0xEBA JUMPI PUSH2 0xEB9 PUSH2 0xE60 JUMP JUMPDEST JUMPDEST POP SWAP2 SWAP1 POP JUMP JUMPDEST PUSH1 0x0 DUP2 SWAP1 POP DUP2 PUSH1 0x0 MSTORE PUSH1 0x20 PUSH1 0x0 KECCAK256 SWAP1 POP SWAP2 SWAP1 POP JUMP JUMPDEST PUSH1 0x0 PUSH1 0x20 PUSH1 0x1F DUP4 ADD DIV SWAP1 POP SWAP2 SWAP1 POP JUMP JUMPDEST PUSH1 0x0 DUP3 DUP3 SHL SWAP1 POP SWAP3 SWAP2 POP POP JUMP JUMPDEST PUSH1 0x0 PUSH1 0x8 DUP4 MUL PUSH2 0xF22 PUSH32 0xFFFFFFFFFFFFFFFFFFFFFFFFFFFFFFFFFFFFFFFFFFFFFFFFFFFFFFFFFFFFFFFF DUP3 PUSH2 0xEE5 JUMP JUMPDEST PUSH2 0xF2C DUP7 DUP4 PUSH2 0xEE5 JUMP JUMPDEST SWAP6 POP DUP1 NOT DUP5 AND SWAP4 POP DUP1 DUP7 AND DUP5 OR SWAP3 POP POP POP SWAP4 SWAP3 POP POP POP JUMP JUMPDEST PUSH1 0x0 DUP2 SWAP1 POP SWAP2 SWAP1 POP JUMP JUMPDEST PUSH1 0x0 PUSH2 0xF69 PUSH2 0xF64 PUSH2 0xF5F DUP5 PUSH2 0xB3B JUMP JUMPDEST PUSH2 0xF44 JUMP JUMPDEST PUSH2 0xB3B JUMP JUMPDEST SWAP1 POP SWAP2 SWAP1 POP JUMP JUMPDEST PUSH1 0x0 DUP2 SWAP1 POP SWAP2 SWAP1 POP JUMP JUMPDEST PUSH2 0xF83 DUP4 PUSH2 0xF4E JUMP JUMPDEST PUSH2 0xF97 PUSH2 0xF8F DUP3 PUSH2 0xF70 JUMP JUMPDEST DUP5 DUP5 SLOAD PUSH2 0xEF2 JUMP JUMPDEST DUP3 SSTORE POP POP POP POP JUMP JUMPDEST PUSH1 0x0 SWAP1 JUMP JUMPDEST PUSH2 0xFAC PUSH2 0xF9F JUMP JUMPDEST PUSH2 0xFB7 DUP2 DUP5 DUP5 PUSH2 0xF7A JUMP JUMPDEST POP POP POP JUMP JUMPDEST JUMPDEST DUP2 DUP2 LT ISZERO PUSH2 0xFDB JUMPI PUSH2 0xFD0 PUSH1 0x0 DUP3 PUSH2 0xFA4 JUMP JUMPDEST PUSH1 0x1 DUP2 ADD SWAP1 POP PUSH2 0xFBD JUMP JUMPDEST POP POP JUMP JUMPDEST PUSH1 0x1F DUP3 GT ISZERO PUSH2 0x1020 JUMPI PUSH2 0xFF1 DUP2 PUSH2 0xEC0 JUMP JUMPDEST PUSH2 0xFFA DUP5 PUSH2 0xED5 JUMP JUMPDEST DUP2 ADD PUSH1 0x20 DUP6 LT ISZERO PUSH2 0x1009 JUMPI DUP2 SWAP1 POP JUMPDEST PUSH2 0x101D PUSH2 0x1015 DUP6 PUSH2 0xED5 JUMP JUMPDEST DUP4 ADD DUP3 PUSH2 0xFBC JUMP JUMPDEST POP POP JUMPDEST POP POP POP JUMP JUMPDEST PUSH1 0x0 DUP3 DUP3 SHR SWAP1 POP SWAP3 SWAP2 POP POP JUMP JUMPDEST PUSH1 0x0 PUSH2 0x1043 PUSH1 0x0 NOT DUP5 PUSH1 0x8 MUL PUSH2 0x1025 JUMP JUMPDEST NOT DUP1 DUP4 AND SWAP2 POP POP SWAP3 SWAP2 POP POP JUMP JUMPDEST PUSH1 0x0 PUSH2 0x105C DUP4 DUP4 PUSH2 0x1032 JUMP JUMPDEST SWAP2 POP DUP3 PUSH1 0x2 MUL DUP3 OR SWAP1 POP SWAP3 SWAP2 POP POP JUMP JUMPDEST PUSH2 0x1075 DUP3 PUSH2 0xABC JUMP JUMPDEST PUSH8 0xFFFFFFFFFFFFFFFF DUP2 GT ISZERO PUSH2 0x108E JUMPI PUSH2 0x108D PUSH2 0x838 JUMP JUMPDEST JUMPDEST PUSH2 0x1098 DUP3 SLOAD PUSH2 0xE8F JUMP JUMPDEST PUSH2 0x10A3 DUP3 DUP3 DUP6 PUSH2 0xFDF JUMP JUMPDEST PUSH1 0x0 PUSH1 0x20 SWAP1 POP PUSH1 0x1F DUP4 GT PUSH1 0x1 DUP2 EQ PUSH2 0x10D6 JUMPI PUSH1 0x0 DUP5 ISZERO PUSH2 0x10C4 JUMPI DUP3 DUP8 ADD MLOAD SWAP1 POP JUMPDEST PUSH2 0x10CE DUP6 DUP3 PUSH2 0x1050 JUMP JUMPDEST DUP7 SSTORE POP PUSH2 0x1136 JUMP JUMPDEST PUSH1 0x1F NOT DUP5 AND PUSH2 0x10E4 DUP7 PUSH2 0xEC0 JUMP JUMPDEST PUSH1 0x0 JUMPDEST DUP3 DUP2 LT ISZERO PUSH2 0x110C JUMPI DUP5 DUP10 ADD MLOAD DUP3 SSTORE PUSH1 0x1 DUP3 ADD SWAP2 POP PUSH1 0x20 DUP6 ADD SWAP5 POP PUSH1 0x20 DUP2 ADD SWAP1 POP PUSH2 0x10E7 JUMP JUMPDEST DUP7 DUP4 LT ISZERO PUSH2 0x1129 JUMPI DUP5 DUP10 ADD MLOAD PUSH2 0x1125 PUSH1 0x1F DUP10 AND DUP3 PUSH2 0x1032 JUMP JUMPDEST DUP4 SSTORE POP JUMPDEST PUSH1 0x1 PUSH1 0x2 DUP9 MUL ADD DUP9 SSTORE POP POP POP JUMPDEST POP POP POP POP POP POP JUMP JUMPDEST PUSH1 0x0 PUSH1 0x80 DUP3 ADD SWAP1 POP PUSH2 0x1153 PUSH1 0x0 DUP4 ADD DUP8 PUSH2 0xA0D JUMP JUMPDEST DUP2 DUP2 SUB PUSH1 0x20 DUP4 ADD MSTORE PUSH2 0x1165 DUP2 DUP7 PUSH2 0xCE0 JUMP JUMPDEST SWAP1 POP DUP2 DUP2 SUB PUSH1 0x40 DUP4 ADD MSTORE PUSH2 0x1179 DUP2 DUP6 PUSH2 0xCE0 JUMP JUMPDEST SWAP1 POP PUSH2 0x1188 PUSH1 0x60 DUP4 ADD DUP5 PUSH2 0xD19 JUMP JUMPDEST SWAP6 SWAP5 POP POP POP POP POP JUMP JUMPDEST PUSH32 0x4E6F206572657320656C206F776E657200000000000000000000000000000000 PUSH1 0x0 DUP3 ADD MSTORE POP JUMP JUMPDEST PUSH1 0x0 PUSH2 0x11C7 PUSH1 0x10 DUP4 PUSH2 0xCCF JUMP JUMPDEST SWAP2 POP PUSH2 0x11D2 DUP3 PUSH2 0x1191 JUMP JUMPDEST PUSH1 0x20 DUP3 ADD SWAP1 POP SWAP2 SWAP1 POP JUMP JUMPDEST PUSH1 0x0 PUSH1 0x20 DUP3 ADD SWAP1 POP DUP2 DUP2 SUB PUSH1 0x0 DUP4 ADD MSTORE PUSH2 0x11F6 DUP2 PUSH2 0x11BA JUMP JUMPDEST SWAP1 POP SWAP2 SWAP1 POP JUMP INVALID LOG2 PUSH5 0x6970667358 0x22 SLT KECCAK256 0xAD 0xDF CALLDATACOPY LOG1 SLT LOG2 DUP5 0xAA BYTE SWAP13 PUSH10 0x3FC09F44BD1783DF89F9 MSTORE8 PUSH10 0x574254A9EDA2F4681C64 PUSH20 0x6F6C634300081E00330000000000000000000000 "
	},
	"Assembly": ".code\n  PUSH 80\t\t\tcontract BoletosVIP {\\n    add...\n  PUSH 40\t\t\tcontract BoletosVIP {\\n    add...\n  MSTORE \t\t\tcontract BoletosVIP {\\n    add...\n  PUSH 38D7EA4C68000\t\t\t0.001 ether\n  PUSH 1\t\t\tuint256 public precioBoleto = ...\n  SSTORE \t\t\tuint256 public precioBoleto = ...\n  PUSH 4\t\t\t4\n  PUSH 2\t\t\tuint8 public maxBoletosPorUsua...\n  PUSH 0\t\t\tuint8 public maxBoletosPorUsua...\n  PUSH 100\t\t\tuint8 public maxBoletosPorUsua...\n  EXP \t\t\tuint8 public maxBoletosPorUsua...\n  DUP2 \t\t\tuint8 public maxBoletosPorUsua...\n  SLOAD \t\t\tuint8 public maxBoletosPorUsua...\n  DUP2 \t\t\tuint8 public maxBoletosPorUsua...\n  PUSH FF\t\t\tuint8 public maxBoletosPorUsua...\n  MUL \t\t\tuint8 public maxBoletosPorUsua...\n  NOT \t\t\tuint8 public maxBoletosPorUsua...\n  AND \t\t\tuint8 public maxBoletosPorUsua...\n  SWAP1 \t\t\tuint8 public maxBoletosPorUsua...\n  DUP4 \t\t\tuint8 public maxBoletosPorUsua...\n  PUSH FF\t\t\tuint8 public maxBoletosPorUsua...\n  AND \t\t\tuint8 public maxBoletosPorUsua...\n  MUL \t\t\tuint8 public maxBoletosPorUsua...\n  OR \t\t\tuint8 public maxBoletosPorUsua...\n  SWAP1 \t\t\tuint8 public maxBoletosPorUsua...\n  SSTORE \t\t\tuint8 public maxBoletosPorUsua...\n  POP \t\t\tuint8 public maxBoletosPorUsua...\n  CALLVALUE \t\t\tconstructor() {\\n        owner...\n  DUP1 \t\t\tconstructor() {\\n        owner...\n  ISZERO \t\t\tconstructor() {\\n        owner...\n  PUSH [tag] 1\t\t\tconstructor() {\\n        owner...\n  JUMPI \t\t\tconstructor() {\\n        owner...\n  PUSH 0\t\t\tconstructor() {\\n        owner...\n  DUP1 \t\t\tconstructor() {\\n        owner...\n  REVERT \t\t\tconstructor() {\\n        owner...\ntag 1\t\t\tconstructor() {\\n        owner...\n  JUMPDEST \t\t\tconstructor() {\\n        owner...\n  POP \t\t\tconstructor() {\\n        owner...\n  CALLER \t\t\tmsg.sender\n  PUSH 0\t\t\towner\n  DUP1 \t\t\towner\n  PUSH 100\t\t\towner = msg.sender\n  EXP \t\t\towner = msg.sender\n  DUP2 \t\t\towner = msg.sender\n  SLOAD \t\t\towner = msg.sender\n  DUP2 \t\t\towner = msg.sender\n  PUSH FFFFFFFFFFFFFFFFFFFFFFFFFFFFFFFFFFFFFFFF\t\t\towner = msg.sender\n  MUL \t\t\towner = msg.sender\n  NOT \t\t\towner = msg.sender\n  AND \t\t\towner = msg.sender\n  SWAP1 \t\t\towner = msg.sender\n  DUP4 \t\t\towner = msg.sender\n  PUSH FFFFFFFFFFFFFFFFFFFFFFFFFFFFFFFFFFFFFFFF\t\t\towner = msg.sender\n  AND \t\t\towner = msg.sender\n  MUL \t\t\towner = msg.sender\n  OR \t\t\towner = msg.sender\n  SWAP1 \t\t\towner = msg.sender\n  SSTORE \t\t\towner = msg.sender\n  POP \t\t\towner = msg.sender\n  PUSH #[$] 0000000000000000000000000000000000000000000000000000000000000000\t\t\tcontract BoletosVIP {\\n    add...\n  DUP1 \t\t\tcontract BoletosVIP {\\n    add...\n  PUSH [$] 0000000000000000000000000000000000000000000000000000000000000000\t\t\tcontract BoletosVIP {\\n    add...\n  PUSH 0\t\t\tcontract BoletosVIP {\\n    add...\n  CODECOPY \t\t\tcontract BoletosVIP {\\n    add...\n  PUSH 0\t\t\tcontract BoletosVIP {\\n    add...\n  RETURN \t\t\tcontract BoletosVIP {\\n    add...\n.data\n  0:\n    .code\n      PUSH 80\t\t\tcontract BoletosVIP {\\n    add...\n      PUSH 40\t\t\tcontract BoletosVIP {\\n    add...\n      MSTORE \t\t\tcontract BoletosVIP {\\n    add...\n      PUSH 4\t\t\tcontract BoletosVIP {\\n    add...\n      CALLDATASIZE \t\t\tcontract BoletosVIP {\\n    add...\n      LT \t\t\tcontract BoletosVIP {\\n    add...\n      PUSH [tag] 1\t\t\tcontract BoletosVIP {\\n    add...\n      JUMPI \t\t\tcontract BoletosVIP {\\n    add...\n      PUSH 0\t\t\tcontract BoletosVIP {\\n    add...\n      CALLDATALOAD \t\t\tcontract BoletosVIP {\\n    add...\n      PUSH E0\t\t\tcontract BoletosVIP {\\n    add...\n      SHR \t\t\tcontract BoletosVIP {\\n    add...\n      DUP1 \t\t\tcontract BoletosVIP {\\n    add...\n      PUSH 8DA5CB5B\t\t\tcontract BoletosVIP {\\n    add...\n      GT \t\t\tcontract BoletosVIP {\\n    add...\n      PUSH [tag] 9\t\t\tcontract BoletosVIP {\\n    add...\n      JUMPI \t\t\tcontract BoletosVIP {\\n    add...\n      DUP1 \t\t\tcontract BoletosVIP {\\n    add...\n      PUSH 8DA5CB5B\t\t\tcontract BoletosVIP {\\n    add...\n      EQ \t\t\tcontract BoletosVIP {\\n    add...\n      PUSH [tag] 5\t\t\tcontract BoletosVIP {\\n    add...\n      JUMPI \t\t\tcontract BoletosVIP {\\n    add...\n      DUP1 \t\t\tcontract BoletosVIP {\\n    add...\n      PUSH 9E56D253\t\t\tcontract BoletosVIP {\\n    add...\n      EQ \t\t\tcontract BoletosVIP {\\n    add...\n      PUSH [tag] 6\t\t\tcontract BoletosVIP {\\n    add...\n      JUMPI \t\t\tcontract BoletosVIP {\\n    add...\n      DUP1 \t\t\tcontract BoletosVIP {\\n    add...\n      PUSH E8C7844B\t\t\tcontract BoletosVIP {\\n    add...\n      EQ \t\t\tcontract BoletosVIP {\\n    add...\n      PUSH [tag] 7\t\t\tcontract BoletosVIP {\\n    add...\n      JUMPI \t\t\tcontract BoletosVIP {\\n    add...\n      DUP1 \t\t\tcontract BoletosVIP {\\n    add...\n      PUSH EE5ADE83\t\t\tcontract BoletosVIP {\\n    add...\n      EQ \t\t\tcontract BoletosVIP {\\n    add...\n      PUSH [tag] 8\t\t\tcontract BoletosVIP {\\n    add...\n      JUMPI \t\t\tcontract BoletosVIP {\\n    add...\n      PUSH [tag] 1\t\t\tcontract BoletosVIP {\\n    add...\n      JUMP \t\t\tcontract BoletosVIP {\\n    add...\n    tag 9\t\t\tcontract BoletosVIP {\\n    add...\n      JUMPDEST \t\t\tcontract BoletosVIP {\\n    add...\n      DUP1 \t\t\tcontract BoletosVIP {\\n    add...\n      PUSH D1D4BC7\t\t\tcontract BoletosVIP {\\n    add...\n      EQ \t\t\tcontract BoletosVIP {\\n    add...\n      PUSH [tag] 2\t\t\tcontract BoletosVIP {\\n    add...\n      JUMPI \t\t\tcontract BoletosVIP {\\n    add...\n      DUP1 \t\t\tcontract BoletosVIP {\\n    add...\n      PUSH 7EBE4EB0\t\t\tcontract BoletosVIP {\\n    add...\n      EQ \t\t\tcontract BoletosVIP {\\n    add...\n      PUSH [tag] 3\t\t\tcontract BoletosVIP {\\n    add...\n      JUMPI \t\t\tcontract BoletosVIP {\\n    add...\n      DUP1 \t\t\tcontract BoletosVIP {\\n    add...\n      PUSH 8AF01880\t\t\tcontract BoletosVIP {\\n    add...\n      EQ \t\t\tcontract BoletosVIP {\\n    add...\n      PUSH [tag] 4\t\t\tcontract BoletosVIP {\\n    add...\n      JUMPI \t\t\tcontract BoletosVIP {\\n    add...\n    tag 1\t\t\tcontract BoletosVIP {\\n    add...\n      JUMPDEST \t\t\tcontract BoletosVIP {\\n    add...\n      PUSH 0\t\t\tcontract BoletosVIP {\\n    add...\n      DUP1 \t\t\tcontract BoletosVIP {\\n    add...\n      REVERT \t\t\tcontract BoletosVIP {\\n    add...\n    tag 2\t\t\tuint8 public maxBoletosPorUsua...\n      JUMPDEST \t\t\tuint8 public maxBoletosPorUsua...\n      CALLVALUE \t\t\tuint8 public maxBoletosPorUsua...\n      DUP1 \t\t\tuint8 public maxBoletosPorUsua...\n      ISZERO \t\t\tuint8 public maxBoletosPorUsua...\n      PUSH [tag] 10\t\t\tuint8 public maxBoletosPorUsua...\n      JUMPI \t\t\tuint8 public maxBoletosPorUsua...\n      PUSH 0\t\t\tuint8 public maxBoletosPorUsua...\n      DUP1 \t\t\tuint8 public maxBoletosPorUsua...\n      REVERT \t\t\tuint8 public maxBoletosPorUsua...\n    tag 10\t\t\tuint8 public maxBoletosPorUsua...\n      JUMPDEST \t\t\tuint8 public maxBoletosPorUsua...\n      POP \t\t\tuint8 public maxBoletosPorUsua...\n      PUSH [tag] 11\t\t\tuint8 public maxBoletosPorUsua...\n      PUSH [tag] 12\t\t\tuint8 public maxBoletosPorUsua...\n      JUMP \t\t\tuint8 public maxBoletosPorUsua...\n    tag 11\t\t\tuint8 public maxBoletosPorUsua...\n      JUMPDEST \t\t\tuint8 public maxBoletosPorUsua...\n      PUSH 40\t\t\tuint8 public maxBoletosPorUsua...\n      MLOAD \t\t\tuint8 public maxBoletosPorUsua...\n      PUSH [tag] 13\t\t\tuint8 public maxBoletosPorUsua...\n      SWAP2 \t\t\tuint8 public maxBoletosPorUsua...\n      SWAP1 \t\t\tuint8 public maxBoletosPorUsua...\n      PUSH [tag] 14\t\t\tuint8 public maxBoletosPorUsua...\n      JUMP \t\t\tuint8 public maxBoletosPorUsua...\n    tag 13\t\t\tuint8 public maxBoletosPorUsua...\n      JUMPDEST \t\t\tuint8 public maxBoletosPorUsua...\n      PUSH 40\t\t\tuint8 public maxBoletosPorUsua...\n      MLOAD \t\t\tuint8 public maxBoletosPorUsua...\n      DUP1 \t\t\tuint8 public maxBoletosPorUsua...\n      SWAP2 \t\t\tuint8 public maxBoletosPorUsua...\n      SUB \t\t\tuint8 public maxBoletosPorUsua...\n      SWAP1 \t\t\tuint8 public maxBoletosPorUsua...\n      RETURN \t\t\tuint8 public maxBoletosPorUsua...\n    tag 3\t\t\tfunction comprarBoleto(string ...\n      JUMPDEST \t\t\tfunction comprarBoleto(string ...\n      PUSH [tag] 15\t\t\tfunction comprarBoleto(string ...\n      PUSH 4\t\t\tfunction comprarBoleto(string ...\n      DUP1 \t\t\tfunction comprarBoleto(string ...\n      CALLDATASIZE \t\t\tfunction comprarBoleto(string ...\n      SUB \t\t\tfunction comprarBoleto(string ...\n      DUP2 \t\t\tfunction comprarBoleto(string ...\n      ADD \t\t\tfunction comprarBoleto(string ...\n      SWAP1 \t\t\tfunction comprarBoleto(string ...\n      PUSH [tag] 16\t\t\tfunction comprarBoleto(string ...\n      SWAP2 \t\t\tfunction comprarBoleto(string ...\n      SWAP1 \t\t\tfunction comprarBoleto(string ...\n      PUSH [tag] 17\t\t\tfunction comprarBoleto(string ...\n      JUMP \t\t\tfunction comprarBoleto(string ...\n    tag 16\t\t\tfunction comprarBoleto(string ...\n      JUMPDEST \t\t\tfunction comprarBoleto(string ...\n      PUSH [tag] 18\t\t\tfunction comprarBoleto(string ...\n      JUMP \t\t\tfunction comprarBoleto(string ...\n    tag 15\t\t\tfunction comprarBoleto(string ...\n      JUMPDEST \t\t\tfunction comprarBoleto(string ...\n      STOP \t\t\tfunction comprarBoleto(string ...\n    tag 4\t\t\tfunction retirarFondos() publi...\n      JUMPDEST \t\t\tfunction retirarFondos() publi...\n      CALLVALUE \t\t\tfunction retirarFondos() publi...\n      DUP1 \t\t\tfunction retirarFondos() publi...\n      ISZERO \t\t\tfunction retirarFondos() publi...\n      PUSH [tag] 19\t\t\tfunction retirarFondos() publi...\n      JUMPI \t\t\tfunction retirarFondos() publi...\n      PUSH 0\t\t\tfunction retirarFondos() publi...\n      DUP1 \t\t\tfunction retirarFondos() publi...\n      REVERT \t\t\tfunction retirarFondos() publi...\n    tag 19\t\t\tfunction retirarFondos() publi...\n      JUMPDEST \t\t\tfunction retirarFondos() publi...\n      POP \t\t\tfunction retirarFondos() publi...\n      PUSH [tag] 20\t\t\tfunction retirarFondos() publi...\n      PUSH [tag] 21\t\t\tfunction retirarFondos() publi...\n      JUMP \t\t\tfunction retirarFondos() publi...\n    tag 20\t\t\tfunction retirarFondos() publi...\n      JUMPDEST \t\t\tfunction retirarFondos() publi...\n      STOP \t\t\tfunction retirarFondos() publi...\n    tag 5\t\t\taddress public owner\n      JUMPDEST \t\t\taddress public owner\n      CALLVALUE \t\t\taddress public owner\n      DUP1 \t\t\taddress public owner\n      ISZERO \t\t\taddress public owner\n      PUSH [tag] 22\t\t\taddress public owner\n      JUMPI \t\t\taddress public owner\n      PUSH 0\t\t\taddress public owner\n      DUP1 \t\t\taddress public owner\n      REVERT \t\t\taddress public owner\n    tag 22\t\t\taddress public owner\n      JUMPDEST \t\t\taddress public owner\n      POP \t\t\taddress public owner\n      PUSH [tag] 23\t\t\taddress public owner\n      PUSH [tag] 24\t\t\taddress public owner\n      JUMP \t\t\taddress public owner\n    tag 23\t\t\taddress public owner\n      JUMPDEST \t\t\taddress public owner\n      PUSH 40\t\t\taddress public owner\n      MLOAD \t\t\taddress public owner\n      PUSH [tag] 25\t\t\taddress public owner\n      SWAP2 \t\t\taddress public owner\n      SWAP1 \t\t\taddress public owner\n      PUSH [tag] 26\t\t\taddress public owner\n      JUMP \t\t\taddress public owner\n    tag 25\t\t\taddress public owner\n      JUMPDEST \t\t\taddress public owner\n      PUSH 40\t\t\taddress public owner\n      MLOAD \t\t\taddress public owner\n      DUP1 \t\t\taddress public owner\n      SWAP2 \t\t\taddress public owner\n      SUB \t\t\taddress public owner\n      SWAP1 \t\t\taddress public owner\n      RETURN \t\t\taddress public owner\n    tag 6\t\t\tfunction boletosUsuario(addres...\n      JUMPDEST \t\t\tfunction boletosUsuario(addres...\n      CALLVALUE \t\t\tfunction boletosUsuario(addres...\n      DUP1 \t\t\tfunction boletosUsuario(addres...\n      ISZERO \t\t\tfunction boletosUsuario(addres...\n      PUSH [tag] 27\t\t\tfunction boletosUsuario(addres...\n      JUMPI \t\t\tfunction boletosUsuario(addres...\n      PUSH 0\t\t\tfunction boletosUsuario(addres...\n      DUP1 \t\t\tfunction boletosUsuario(addres...\n      REVERT \t\t\tfunction boletosUsuario(addres...\n    tag 27\t\t\tfunction boletosUsuario(addres...\n      JUMPDEST \t\t\tfunction boletosUsuario(addres...\n      POP \t\t\tfunction boletosUsuario(addres...\n      PUSH [tag] 28\t\t\tfunction boletosUsuario(addres...\n      PUSH 4\t\t\tfunction boletosUsuario(addres...\n      DUP1 \t\t\tfunction boletosUsuario(addres...\n      CALLDATASIZE \t\t\tfunction boletosUsuario(addres...\n      SUB \t\t\tfunction boletosUsuario(addres...\n      DUP2 \t\t\tfunction boletosUsuario(addres...\n      ADD \t\t\tfunction boletosUsuario(addres...\n      SWAP1 \t\t\tfunction boletosUsuario(addres...\n      PUSH [tag] 29\t\t\tfunction boletosUsuario(addres...\n      SWAP2 \t\t\tfunction boletosUsuario(addres...\n      SWAP1 \t\t\tfunction boletosUsuario(addres...\n      PUSH [tag] 30\t\t\tfunction boletosUsuario(addres...\n      JUMP \t\t\tfunction boletosUsuario(addres...\n    tag 29\t\t\tfunction boletosUsuario(addres...\n      JUMPDEST \t\t\tfunction boletosUsuario(addres...\n      PUSH [tag] 31\t\t\tfunction boletosUsuario(addres...\n      JUMP \t\t\tfunction boletosUsuario(addres...\n    tag 28\t\t\tfunction boletosUsuario(addres...\n      JUMPDEST \t\t\tfunction boletosUsuario(addres...\n      PUSH 40\t\t\tfunction boletosUsuario(addres...\n      MLOAD \t\t\tfunction boletosUsuario(addres...\n      PUSH [tag] 32\t\t\tfunction boletosUsuario(addres...\n      SWAP2 \t\t\tfunction boletosUsuario(addres...\n      SWAP1 \t\t\tfunction boletosUsuario(addres...\n      PUSH [tag] 33\t\t\tfunction boletosUsuario(addres...\n      JUMP \t\t\tfunction boletosUsuario(addres...\n    tag 32\t\t\tfunction boletosUsuario(addres...\n      JUMPDEST \t\t\tfunction boletosUsuario(addres...\n      PUSH 40\t\t\tfunction boletosUsuario(addres...\n      MLOAD \t\t\tfunction boletosUsuario(addres...\n      DUP1 \t\t\tfunction boletosUsuario(addres...\n      SWAP2 \t\t\tfunction boletosUsuario(addres...\n      SUB \t\t\tfunction boletosUsuario(addres...\n      SWAP1 \t\t\tfunction boletosUsuario(addres...\n      RETURN \t\t\tfunction boletosUsuario(addres...\n    tag 7\t\t\tmapping(address => Boleto[]) p...\n      JUMPDEST \t\t\tmapping(address => Boleto[]) p...\n      CALLVALUE \t\t\tmapping(address => Boleto[]) p...\n      DUP1 \t\t\tmapping(address => Boleto[]) p...\n      ISZERO \t\t\tmapping(address => Boleto[]) p...\n      PUSH [tag] 34\t\t\tmapping(address => Boleto[]) p...\n      JUMPI \t\t\tmapping(address => Boleto[]) p...\n      PUSH 0\t\t\tmapping(address => Boleto[]) p...\n      DUP1 \t\t\tmapping(address => Boleto[]) p...\n      REVERT \t\t\tmapping(address => Boleto[]) p...\n    tag 34\t\t\tmapping(address => Boleto[]) p...\n      JUMPDEST \t\t\tmapping(address => Boleto[]) p...\n      POP \t\t\tmapping(address => Boleto[]) p...\n      PUSH [tag] 35\t\t\tmapping(address => Boleto[]) p...\n      PUSH 4\t\t\tmapping(address => Boleto[]) p...\n      DUP1 \t\t\tmapping(address => Boleto[]) p...\n      CALLDATASIZE \t\t\tmapping(address => Boleto[]) p...\n      SUB \t\t\tmapping(address => Boleto[]) p...\n      DUP2 \t\t\tmapping(address => Boleto[]) p...\n      ADD \t\t\tmapping(address => Boleto[]) p...\n      SWAP1 \t\t\tmapping(address => Boleto[]) p...\n      PUSH [tag] 36\t\t\tmapping(address => Boleto[]) p...\n      SWAP2 \t\t\tmapping(address => Boleto[]) p...\n      SWAP1 \t\t\tmapping(address => Boleto[]) p...\n      PUSH [tag] 37\t\t\tmapping(address => Boleto[]) p...\n      JUMP \t\t\tmapping(address => Boleto[]) p...\n    tag 36\t\t\tmapping(address => Boleto[]) p...\n      JUMPDEST \t\t\tmapping(address => Boleto[]) p...\n      PUSH [tag] 38\t\t\tmapping(address => Boleto[]) p...\n      JUMP \t\t\tmapping(address => Boleto[]) p...\n    tag 35\t\t\tmapping(address => Boleto[]) p...\n      JUMPDEST \t\t\tmapping(address => Boleto[]) p...\n      PUSH 40\t\t\tmapping(address => Boleto[]) p...\n      MLOAD \t\t\tmapping(address => Boleto[]) p...\n      PUSH [tag] 39\t\t\tmapping(address => Boleto[]) p...\n      SWAP4 \t\t\tmapping(address => Boleto[]) p...\n      SWAP3 \t\t\tmapping(address => Boleto[]) p...\n      SWAP2 \t\t\tmapping(address => Boleto[]) p...\n      SWAP1 \t\t\tmapping(address => Boleto[]) p...\n      PUSH [tag] 40\t\t\tmapping(address => Boleto[]) p...\n      JUMP \t\t\tmapping(address => Boleto[]) p...\n    tag 39\t\t\tmapping(address => Boleto[]) p...\n      JUMPDEST \t\t\tmapping(address => Boleto[]) p...\n      PUSH 40\t\t\tmapping(address => Boleto[]) p...\n      MLOAD \t\t\tmapping(address => Boleto[]) p...\n      DUP1 \t\t\tmapping(address => Boleto[]) p...\n      SWAP2 \t\t\tmapping(address => Boleto[]) p...\n      SUB \t\t\tmapping(address => Boleto[]) p...\n      SWAP1 \t\t\tmapping(address => Boleto[]) p...\n      RETURN \t\t\tmapping(address => Boleto[]) p...\n    tag 8\t\t\tuint256 public precioBoleto = ...\n      JUMPDEST \t\t\tuint256 public precioBoleto = ...\n      CALLVALUE \t\t\tuint256 public precioBoleto = ...\n      DUP1 \t\t\tuint256 public precioBoleto = ...\n      ISZERO \t\t\tuint256 public precioBoleto = ...\n      PUSH [tag] 41\t\t\tuint256 public precioBoleto = ...\n      JUMPI \t\t\tuint256 public precioBoleto = ...\n      PUSH 0\t\t\tuint256 public precioBoleto = ...\n      DUP1 \t\t\tuint256 public precioBoleto = ...\n      REVERT \t\t\tuint256 public precioBoleto = ...\n    tag 41\t\t\tuint256 public precioBoleto = ...\n      JUMPDEST \t\t\tuint256 public precioBoleto = ...\n      POP \t\t\tuint256 public precioBoleto = ...\n      PUSH [tag] 42\t\t\tuint256 public precioBoleto = ...\n      PUSH [tag] 43\t\t\tuint256 public precioBoleto = ...\n      JUMP \t\t\tuint256 public precioBoleto = ...\n    tag 42\t\t\tuint256 public precioBoleto = ...\n      JUMPDEST \t\t\tuint256 public precioBoleto = ...\n      PUSH 40\t\t\tuint256 public precioBoleto = ...\n      MLOAD \t\t\tuint256 public precioBoleto = ...\n      PUSH [tag] 44\t\t\tuint256 public precioBoleto = ...\n      SWAP2 \t\t\tuint256 public precioBoleto = ...\n      SWAP1 \t\t\tuint256 public precioBoleto = ...\n      PUSH [tag] 45\t\t\tuint256 public precioBoleto = ...\n      JUMP \t\t\tuint256 public precioBoleto = ...\n    tag 44\t\t\tuint256 public precioBoleto = ...\n      JUMPDEST \t\t\tuint256 public precioBoleto = ...\n      PUSH 40\t\t\tuint256 public precioBoleto = ...\n      MLOAD \t\t\tuint256 public precioBoleto = ...\n      DUP1 \t\t\tuint256 public precioBoleto = ...\n      SWAP2 \t\t\tuint256 public precioBoleto = ...\n      SUB \t\t\tuint256 public precioBoleto = ...\n      SWAP1 \t\t\tuint256 public precioBoleto = ...\n      RETURN \t\t\tuint256 public precioBoleto = ...\n    tag 12\t\t\tuint8 public maxBoletosPorUsua...\n      JUMPDEST \t\t\tuint8 public maxBoletosPorUsua...\n      PUSH 2\t\t\tuint8 public maxBoletosPorUsua...\n      PUSH 0\t\t\tuint8 public maxBoletosPorUsua...\n      SWAP1 \t\t\tuint8 public maxBoletosPorUsua...\n      SLOAD \t\t\tuint8 public maxBoletosPorUsua...\n      SWAP1 \t\t\tuint8 public maxBoletosPorUsua...\n      PUSH 100\t\t\tuint8 public maxBoletosPorUsua...\n      EXP \t\t\tuint8 public maxBoletosPorUsua...\n      SWAP1 \t\t\tuint8 public maxBoletosPorUsua...\n      DIV \t\t\tuint8 public maxBoletosPorUsua...\n      PUSH FF\t\t\tuint8 public maxBoletosPorUsua...\n      AND \t\t\tuint8 public maxBoletosPorUsua...\n      DUP2 \t\t\tuint8 public maxBoletosPorUsua...\n      JUMP \t\t\tuint8 public maxBoletosPorUsua...\n    tag 18\t\t\tfunction comprarBoleto(string ...\n      JUMPDEST \t\t\tfunction comprarBoleto(string ...\n      PUSH 1\t\t\tprecioBoleto\n      SLOAD \t\t\tprecioBoleto\n      CALLVALUE \t\t\tmsg.value\n      EQ \t\t\tmsg.value == precioBoleto\n      PUSH [tag] 47\t\t\trequire(msg.value == precioBol...\n      JUMPI \t\t\trequire(msg.value == precioBol...\n      PUSH 40\t\t\trequire(msg.value == precioBol...\n      MLOAD \t\t\trequire(msg.value == precioBol...\n      PUSH 8C379A000000000000000000000000000000000000000000000000000000000\t\t\trequire(msg.value == precioBol...\n      DUP2 \t\t\trequire(msg.value == precioBol...\n      MSTORE \t\t\trequire(msg.value == precioBol...\n      PUSH 4\t\t\trequire(msg.value == precioBol...\n      ADD \t\t\trequire(msg.value == precioBol...\n      PUSH [tag] 48\t\t\trequire(msg.value == precioBol...\n      SWAP1 \t\t\trequire(msg.value == precioBol...\n      PUSH [tag] 49\t\t\trequire(msg.value == precioBol...\n      JUMP \t\t\trequire(msg.value == precioBol...\n    tag 48\t\t\trequire(msg.value == precioBol...\n      JUMPDEST \t\t\trequire(msg.value == precioBol...\n      PUSH 40\t\t\trequire(msg.value == precioBol...\n      MLOAD \t\t\trequire(msg.value == precioBol...\n      DUP1 \t\t\trequire(msg.value == precioBol...\n      SWAP2 \t\t\trequire(msg.value == precioBol...\n      SUB \t\t\trequire(msg.value == precioBol...\n      SWAP1 \t\t\trequire(msg.value == precioBol...\n      REVERT \t\t\trequire(msg.value == precioBol...\n    tag 47\t\t\trequire(msg.value == precioBol...\n      JUMPDEST \t\t\trequire(msg.value == precioBol...\n      PUSH 2\t\t\tmaxBoletosPorUsuario\n      PUSH 0\t\t\tmaxBoletosPorUsuario\n      SWAP1 \t\t\tmaxBoletosPorUsuario\n      SLOAD \t\t\tmaxBoletosPorUsuario\n      SWAP1 \t\t\tmaxBoletosPorUsuario\n      PUSH 100\t\t\tmaxBoletosPorUsuario\n      EXP \t\t\tmaxBoletosPorUsuario\n      SWAP1 \t\t\tmaxBoletosPorUsuario\n      DIV \t\t\tmaxBoletosPorUsuario\n      PUSH FF\t\t\tmaxBoletosPorUsuario\n      AND \t\t\tmaxBoletosPorUsuario\n      PUSH FF\t\t\tboletosComprados[msg.sender].l...\n      AND \t\t\tboletosComprados[msg.sender].l...\n      PUSH 3\t\t\tboletosComprados\n      PUSH 0\t\t\tboletosComprados[msg.sender]\n      CALLER \t\t\tmsg.sender\n      PUSH FFFFFFFFFFFFFFFFFFFFFFFFFFFFFFFFFFFFFFFF\t\t\tboletosComprados[msg.sender]\n      AND \t\t\tboletosComprados[msg.sender]\n      PUSH FFFFFFFFFFFFFFFFFFFFFFFFFFFFFFFFFFFFFFFF\t\t\tboletosComprados[msg.sender]\n      AND \t\t\tboletosComprados[msg.sender]\n      DUP2 \t\t\tboletosComprados[msg.sender]\n      MSTORE \t\t\tboletosComprados[msg.sender]\n      PUSH 20\t\t\tboletosComprados[msg.sender]\n      ADD \t\t\tboletosComprados[msg.sender]\n      SWAP1 \t\t\tboletosComprados[msg.sender]\n      DUP2 \t\t\tboletosComprados[msg.sender]\n      MSTORE \t\t\tboletosComprados[msg.sender]\n      PUSH 20\t\t\tboletosComprados[msg.sender]\n      ADD \t\t\tboletosComprados[msg.sender]\n      PUSH 0\t\t\tboletosComprados[msg.sender]\n      KECCAK256 \t\t\tboletosComprados[msg.sender]\n      DUP1 \t\t\tboletosComprados[msg.sender].l...\n      SLOAD \t\t\tboletosComprados[msg.sender].l...\n      SWAP1 \t\t\tboletosComprados[msg.sender].l...\n      POP \t\t\tboletosComprados[msg.sender].l...\n      LT \t\t\tboletosComprados[msg.sender].l...\n      PUSH [tag] 50\t\t\trequire(boletosComprados[msg.s...\n      JUMPI \t\t\trequire(boletosComprados[msg.s...\n      PUSH 40\t\t\trequire(boletosComprados[msg.s...\n      MLOAD \t\t\trequire(boletosComprados[msg.s...\n      PUSH 8C379A000000000000000000000000000000000000000000000000000000000\t\t\trequire(boletosComprados[msg.s...\n      DUP2 \t\t\trequire(boletosComprados[msg.s...\n      MSTORE \t\t\trequire(boletosComprados[msg.s...\n      PUSH 4\t\t\trequire(boletosComprados[msg.s...\n      ADD \t\t\trequire(boletosComprados[msg.s...\n      PUSH [tag] 51\t\t\trequire(boletosComprados[msg.s...\n      SWAP1 \t\t\trequire(boletosComprados[msg.s...\n      PUSH [tag] 52\t\t\trequire(boletosComprados[msg.s...\n      JUMP \t\t\trequire(boletosComprados[msg.s...\n    tag 51\t\t\trequire(boletosComprados[msg.s...\n      JUMPDEST \t\t\trequire(boletosComprados[msg.s...\n      PUSH 40\t\t\trequire(boletosComprados[msg.s...\n      MLOAD \t\t\trequire(boletosComprados[msg.s...\n      DUP1 \t\t\trequire(boletosComprados[msg.s...\n      SWAP2 \t\t\trequire(boletosComprados[msg.s...\n      SUB \t\t\trequire(boletosComprados[msg.s...\n      SWAP1 \t\t\trequire(boletosComprados[msg.s...\n      REVERT \t\t\trequire(boletosComprados[msg.s...\n    tag 50\t\t\trequire(boletosComprados[msg.s...\n      JUMPDEST \t\t\trequire(boletosComprados[msg.s...\n      PUSH 3\t\t\tboletosComprados\n      PUSH 0\t\t\tboletosComprados[msg.sender]\n      CALLER \t\t\tmsg.sender\n      PUSH FFFFFFFFFFFFFFFFFFFFFFFFFFFFFFFFFFFFFFFF\t\t\tboletosComprados[msg.sender]\n      AND \t\t\tboletosComprados[msg.sender]\n      PUSH FFFFFFFFFFFFFFFFFFFFFFFFFFFFFFFFFFFFFFFF\t\t\tboletosComprados[msg.sender]\n      AND \t\t\tboletosComprados[msg.sender]\n      DUP2 \t\t\tboletosComprados[msg.sender]\n      MSTORE \t\t\tboletosComprados[msg.sender]\n      PUSH 20\t\t\tboletosComprados[msg.sender]\n      ADD \t\t\tboletosComprados[msg.sender]\n      SWAP1 \t\t\tboletosComprados[msg.sender]\n      DUP2 \t\t\tboletosComprados[msg.sender]\n      MSTORE \t\t\tboletosComprados[msg.sender]\n      PUSH 20\t\t\tboletosComprados[msg.sender]\n      ADD \t\t\tboletosComprados[msg.sender]\n      PUSH 0\t\t\tboletosComprados[msg.sender]\n      KECCAK256 \t\t\tboletosComprados[msg.sender]\n      PUSH 40\t\t\tBoleto(artista, fecha, msg.val...\n      MLOAD \t\t\tBoleto(artista, fecha, msg.val...\n      DUP1 \t\t\tBoleto(artista, fecha, msg.val...\n      PUSH 60\t\t\tBoleto(artista, fecha, msg.val...\n      ADD \t\t\tBoleto(artista, fecha, msg.val...\n      PUSH 40\t\t\tBoleto(artista, fecha, msg.val...\n      MSTORE \t\t\tBoleto(artista, fecha, msg.val...\n      DUP1 \t\t\tBoleto(artista, fecha, msg.val...\n      DUP5 \t\t\tartista\n      DUP2 \t\t\tBoleto(artista, fecha, msg.val...\n      MSTORE \t\t\tBoleto(artista, fecha, msg.val...\n      PUSH 20\t\t\tBoleto(artista, fecha, msg.val...\n      ADD \t\t\tBoleto(artista, fecha, msg.val...\n      DUP4 \t\t\tfecha\n      DUP2 \t\t\tBoleto(artista, fecha, msg.val...\n      MSTORE \t\t\tBoleto(artista, fecha, msg.val...\n      PUSH 20\t\t\tBoleto(artista, fecha, msg.val...\n      ADD \t\t\tBoleto(artista, fecha, msg.val...\n      CALLVALUE \t\t\tmsg.value\n      DUP2 \t\t\tBoleto(artista, fecha, msg.val...\n      MSTORE \t\t\tBoleto(artista, fecha, msg.val...\n      POP \t\t\tBoleto(artista, fecha, msg.val...\n      SWAP1 \t\t\tboletosComprados[msg.sender].p...\n      DUP1 \t\t\tboletosComprados[msg.sender].p...\n      PUSH 1\t\t\tboletosComprados[msg.sender].p...\n      DUP2 \t\t\tboletosComprados[msg.sender].p...\n      SLOAD \t\t\tboletosComprados[msg.sender].p...\n      ADD \t\t\tboletosComprados[msg.sender].p...\n      DUP1 \t\t\tboletosComprados[msg.sender].p...\n      DUP3 \t\t\tboletosComprados[msg.sender].p...\n      SSTORE \t\t\tboletosComprados[msg.sender].p...\n      DUP1 \t\t\tboletosComprados[msg.sender].p...\n      SWAP2 \t\t\tboletosComprados[msg.sender].p...\n      POP \t\t\tboletosComprados[msg.sender].p...\n      POP \t\t\tboletosComprados[msg.sender].p...\n      PUSH 1\t\t\tboletosComprados[msg.sender].p...\n      SWAP1 \t\t\tboletosComprados[msg.sender].p...\n      SUB \t\t\tboletosComprados[msg.sender].p...\n      SWAP1 \t\t\tboletosComprados[msg.sender].p...\n      PUSH 0\t\t\tboletosComprados[msg.sender].p...\n      MSTORE \t\t\tboletosComprados[msg.sender].p...\n      PUSH 20\t\t\tboletosComprados[msg.sender].p...\n      PUSH 0\t\t\tboletosComprados[msg.sender].p...\n      KECCAK256 \t\t\tboletosComprados[msg.sender].p...\n      SWAP1 \t\t\tboletosComprados[msg.sender].p...\n      PUSH 3\t\t\tboletosComprados[msg.sender].p...\n      MUL \t\t\tboletosComprados[msg.sender].p...\n      ADD \t\t\tboletosComprados[msg.sender].p...\n      PUSH 0\t\t\tboletosComprados[msg.sender].p...\n      SWAP1 \t\t\tboletosComprados[msg.sender].p...\n      SWAP2 \t\t\tboletosComprados[msg.sender].p...\n      SWAP1 \t\t\tboletosComprados[msg.sender].p...\n      SWAP2 \t\t\tboletosComprados[msg.sender].p...\n      SWAP1 \t\t\tboletosComprados[msg.sender].p...\n      SWAP2 \t\t\tboletosComprados[msg.sender].p...\n      POP \t\t\tboletosComprados[msg.sender].p...\n      PUSH 0\t\t\tboletosComprados[msg.sender].p...\n      DUP3 \t\t\tboletosComprados[msg.sender].p...\n      ADD \t\t\tboletosComprados[msg.sender].p...\n      MLOAD \t\t\tboletosComprados[msg.sender].p...\n      DUP2 \t\t\tboletosComprados[msg.sender].p...\n      PUSH 0\t\t\tboletosComprados[msg.sender].p...\n      ADD \t\t\tboletosComprados[msg.sender].p...\n      SWAP1 \t\t\tboletosComprados[msg.sender].p...\n      DUP2 \t\t\tboletosComprados[msg.sender].p...\n      PUSH [tag] 54\t\t\tboletosComprados[msg.sender].p...\n      SWAP2 \t\t\tboletosComprados[msg.sender].p...\n      SWAP1 \t\t\tboletosComprados[msg.sender].p...\n      PUSH [tag] 55\t\t\tboletosComprados[msg.sender].p...\n      JUMP \t\t\tboletosComprados[msg.sender].p...\n    tag 54\t\t\tboletosComprados[msg.sender].p...\n      JUMPDEST \t\t\tboletosComprados[msg.sender].p...\n      POP \t\t\tboletosComprados[msg.sender].p...\n      PUSH 20\t\t\tboletosComprados[msg.sender].p...\n      DUP3 \t\t\tboletosComprados[msg.sender].p...\n      ADD \t\t\tboletosComprados[msg.sender].p...\n      MLOAD \t\t\tboletosComprados[msg.sender].p...\n      DUP2 \t\t\tboletosComprados[msg.sender].p...\n      PUSH 1\t\t\tboletosComprados[msg.sender].p...\n      ADD \t\t\tboletosComprados[msg.sender].p...\n      SWAP1 \t\t\tboletosComprados[msg.sender].p...\n      DUP2 \t\t\tboletosComprados[msg.sender].p...\n      PUSH [tag] 56\t\t\tboletosComprados[msg.sender].p...\n      SWAP2 \t\t\tboletosComprados[msg.sender].p...\n      SWAP1 \t\t\tboletosComprados[msg.sender].p...\n      PUSH [tag] 55\t\t\tboletosComprados[msg.sender].p...\n      JUMP \t\t\tboletosComprados[msg.sender].p...\n    tag 56\t\t\tboletosComprados[msg.sender].p...\n      JUMPDEST \t\t\tboletosComprados[msg.sender].p...\n      POP \t\t\tboletosComprados[msg.sender].p...\n      PUSH 40\t\t\tboletosComprados[msg.sender].p...\n      DUP3 \t\t\tboletosComprados[msg.sender].p...\n      ADD \t\t\tboletosComprados[msg.sender].p...\n      MLOAD \t\t\tboletosComprados[msg.sender].p...\n      DUP2 \t\t\tboletosComprados[msg.sender].p...\n      PUSH 2\t\t\tboletosComprados[msg.sender].p...\n      ADD \t\t\tboletosComprados[msg.sender].p...\n      SSTORE \t\t\tboletosComprados[msg.sender].p...\n      POP \t\t\tboletosComprados[msg.sender].p...\n      POP \t\t\tboletosComprados[msg.sender].p...\n      PUSH 48A8478D0D46EEED0517258AF2D50CC03E2E7CC2103605730852CB87E4B6F812\t\t\tBoletoComprado(msg.sender, art...\n      CALLER \t\t\tmsg.sender\n      DUP4 \t\t\tartista\n      DUP4 \t\t\tfecha\n      CALLVALUE \t\t\tmsg.value\n      PUSH 40\t\t\tBoletoComprado(msg.sender, art...\n      MLOAD \t\t\tBoletoComprado(msg.sender, art...\n      PUSH [tag] 57\t\t\tBoletoComprado(msg.sender, art...\n      SWAP5 \t\t\tBoletoComprado(msg.sender, art...\n      SWAP4 \t\t\tBoletoComprado(msg.sender, art...\n      SWAP3 \t\t\tBoletoComprado(msg.sender, art...\n      SWAP2 \t\t\tBoletoComprado(msg.sender, art...\n      SWAP1 \t\t\tBoletoComprado(msg.sender, art...\n      PUSH [tag] 58\t\t\tBoletoComprado(msg.sender, art...\n      JUMP \t\t\tBoletoComprado(msg.sender, art...\n    tag 57\t\t\tBoletoComprado(msg.sender, art...\n      JUMPDEST \t\t\tBoletoComprado(msg.sender, art...\n      PUSH 40\t\t\tBoletoComprado(msg.sender, art...\n      MLOAD \t\t\tBoletoComprado(msg.sender, art...\n      DUP1 \t\t\tBoletoComprado(msg.sender, art...\n      SWAP2 \t\t\tBoletoComprado(msg.sender, art...\n      SUB \t\t\tBoletoComprado(msg.sender, art...\n      SWAP1 \t\t\tBoletoComprado(msg.sender, art...\n      LOG1 \t\t\tBoletoComprado(msg.sender, art...\n      POP \t\t\tfunction comprarBoleto(string ...\n      POP \t\t\tfunction comprarBoleto(string ...\n      JUMP \t\t\tfunction comprarBoleto(string ...\n    tag 21\t\t\tfunction retirarFondos() publi...\n      JUMPDEST \t\t\tfunction retirarFondos() publi...\n      PUSH 0\t\t\towner\n      DUP1 \t\t\towner\n      SLOAD \t\t\towner\n      SWAP1 \t\t\towner\n      PUSH 100\t\t\towner\n      EXP \t\t\towner\n      SWAP1 \t\t\towner\n      DIV \t\t\towner\n      PUSH FFFFFFFFFFFFFFFFFFFFFFFFFFFFFFFFFFFFFFFF\t\t\towner\n      AND \t\t\towner\n      PUSH FFFFFFFFFFFFFFFFFFFFFFFFFFFFFFFFFFFFFFFF\t\t\tmsg.sender == owner\n      AND \t\t\tmsg.sender == owner\n      CALLER \t\t\tmsg.sender\n      PUSH FFFFFFFFFFFFFFFFFFFFFFFFFFFFFFFFFFFFFFFF\t\t\tmsg.sender == owner\n      AND \t\t\tmsg.sender == owner\n      EQ \t\t\tmsg.sender == owner\n      PUSH [tag] 60\t\t\trequire(msg.sender == owner, \"...\n      JUMPI \t\t\trequire(msg.sender == owner, \"...\n      PUSH 40\t\t\trequire(msg.sender == owner, \"...\n      MLOAD \t\t\trequire(msg.sender == owner, \"...\n      PUSH 8C379A000000000000000000000000000000000000000000000000000000000\t\t\trequire(msg.sender == owner, \"...\n      DUP2 \t\t\trequire(msg.sender == owner, \"...\n      MSTORE \t\t\trequire(msg.sender == owner, \"...\n      PUSH 4\t\t\trequire(msg.sender == owner, \"...\n      ADD \t\t\trequire(msg.sender == owner, \"...\n      PUSH [tag] 61\t\t\trequire(msg.sender == owner, \"...\n      SWAP1 \t\t\trequire(msg.sender == owner, \"...\n      PUSH [tag] 62\t\t\trequire(msg.sender == owner, \"...\n      JUMP \t\t\trequire(msg.sender == owner, \"...\n    tag 61\t\t\trequire(msg.sender == owner, \"...\n      JUMPDEST \t\t\trequire(msg.sender == owner, \"...\n      PUSH 40\t\t\trequire(msg.sender == owner, \"...\n      MLOAD \t\t\trequire(msg.sender == owner, \"...\n      DUP1 \t\t\trequire(msg.sender == owner, \"...\n      SWAP2 \t\t\trequire(msg.sender == owner, \"...\n      SUB \t\t\trequire(msg.sender == owner, \"...\n      SWAP1 \t\t\trequire(msg.sender == owner, \"...\n      REVERT \t\t\trequire(msg.sender == owner, \"...\n    tag 60\t\t\trequire(msg.sender == owner, \"...\n      JUMPDEST \t\t\trequire(msg.sender == owner, \"...\n      PUSH 0\t\t\towner\n      DUP1 \t\t\towner\n      SLOAD \t\t\towner\n      SWAP1 \t\t\towner\n      PUSH 100\t\t\towner\n      EXP \t\t\towner\n      SWAP1 \t\t\towner\n      DIV \t\t\towner\n      PUSH FFFFFFFFFFFFFFFFFFFFFFFFFFFFFFFFFFFFFFFF\t\t\towner\n      AND \t\t\towner\n      PUSH FFFFFFFFFFFFFFFFFFFFFFFFFFFFFFFFFFFFFFFF\t\t\tpayable(owner).transfer\n      AND \t\t\tpayable(owner).transfer\n      PUSH 8FC\t\t\tpayable(owner).transfer(addres...\n      SELFBALANCE \t\t\taddress(this).balance\n      SWAP1 \t\t\tpayable(owner).transfer(addres...\n      DUP2 \t\t\tpayable(owner).transfer(addres...\n      ISZERO \t\t\tpayable(owner).transfer(addres...\n      MUL \t\t\tpayable(owner).transfer(addres...\n      SWAP1 \t\t\tpayable(owner).transfer(addres...\n      PUSH 40\t\t\tpayable(owner).transfer(addres...\n      MLOAD \t\t\tpayable(owner).transfer(addres...\n      PUSH 0\t\t\tpayable(owner).transfer(addres...\n      PUSH 40\t\t\tpayable(owner).transfer(addres...\n      MLOAD \t\t\tpayable(owner).transfer(addres...\n      DUP1 \t\t\tpayable(owner).transfer(addres...\n      DUP4 \t\t\tpayable(owner).transfer(addres...\n      SUB \t\t\tpayable(owner).transfer(addres...\n      DUP2 \t\t\tpayable(owner).transfer(addres...\n      DUP6 \t\t\tpayable(owner).transfer(addres...\n      DUP9 \t\t\tpayable(owner).transfer(addres...\n      DUP9 \t\t\tpayable(owner).transfer(addres...\n      CALL \t\t\tpayable(owner).transfer(addres...\n      SWAP4 \t\t\tpayable(owner).transfer(addres...\n      POP \t\t\tpayable(owner).transfer(addres...\n      POP \t\t\tpayable(owner).transfer(addres...\n      POP \t\t\tpayable(owner).transfer(addres...\n      POP \t\t\tpayable(owner).transfer(addres...\n      ISZERO \t\t\tpayable(owner).transfer(addres...\n      DUP1 \t\t\tpayable(owner).transfer(addres...\n      ISZERO \t\t\tpayable(owner).transfer(addres...\n      PUSH [tag] 64\t\t\tpayable(owner).transfer(addres...\n      JUMPI \t\t\tpayable(owner).transfer(addres...\n      RETURNDATASIZE \t\t\tpayable(owner).transfer(addres...\n      PUSH 0\t\t\tpayable(owner).transfer(addres...\n      DUP1 \t\t\tpayable(owner).transfer(addres...\n      RETURNDATACOPY \t\t\tpayable(owner).transfer(addres...\n      RETURNDATASIZE \t\t\tpayable(owner).transfer(addres...\n      PUSH 0\t\t\tpayable(owner).transfer(addres...\n      REVERT \t\t\tpayable(owner).transfer(addres...\n    tag 64\t\t\tpayable(owner).transfer(addres...\n      JUMPDEST \t\t\tpayable(owner).transfer(addres...\n      POP \t\t\tpayable(owner).transfer(addres...\n      JUMP \t\t\tfunction retirarFondos() publi...\n    tag 24\t\t\taddress public owner\n      JUMPDEST \t\t\taddress public owner\n      PUSH 0\t\t\taddress public owner\n      DUP1 \t\t\taddress public owner\n      SLOAD \t\t\taddress public owner\n      SWAP1 \t\t\taddress public owner\n      PUSH 100\t\t\taddress public owner\n      EXP \t\t\taddress public owner\n      SWAP1 \t\t\taddress public owner\n      DIV \t\t\taddress public owner\n      PUSH FFFFFFFFFFFFFFFFFFFFFFFFFFFFFFFFFFFFFFFF\t\t\taddress public owner\n      AND \t\t\taddress public owner\n      DUP2 \t\t\taddress public owner\n      JUMP \t\t\taddress public owner\n    tag 31\t\t\tfunction boletosUsuario(addres...\n      JUMPDEST \t\t\tfunction boletosUsuario(addres...\n      PUSH 60\t\t\tBoleto[] memory\n      PUSH 3\t\t\tboletosComprados\n      PUSH 0\t\t\tboletosComprados[usuario]\n      DUP4 \t\t\tusuario\n      PUSH FFFFFFFFFFFFFFFFFFFFFFFFFFFFFFFFFFFFFFFF\t\t\tboletosComprados[usuario]\n      AND \t\t\tboletosComprados[usuario]\n      PUSH FFFFFFFFFFFFFFFFFFFFFFFFFFFFFFFFFFFFFFFF\t\t\tboletosComprados[usuario]\n      AND \t\t\tboletosComprados[usuario]\n      DUP2 \t\t\tboletosComprados[usuario]\n      MSTORE \t\t\tboletosComprados[usuario]\n      PUSH 20\t\t\tboletosComprados[usuario]\n      ADD \t\t\tboletosComprados[usuario]\n      SWAP1 \t\t\tboletosComprados[usuario]\n      DUP2 \t\t\tboletosComprados[usuario]\n      MSTORE \t\t\tboletosComprados[usuario]\n      PUSH 20\t\t\tboletosComprados[usuario]\n      ADD \t\t\tboletosComprados[usuario]\n      PUSH 0\t\t\tboletosComprados[usuario]\n      KECCAK256 \t\t\tboletosComprados[usuario]\n      DUP1 \t\t\treturn boletosComprados[usuari...\n      SLOAD \t\t\treturn boletosComprados[usuari...\n      DUP1 \t\t\treturn boletosComprados[usuari...\n      PUSH 20\t\t\treturn boletosComprados[usuari...\n      MUL \t\t\treturn boletosComprados[usuari...\n      PUSH 20\t\t\treturn boletosComprados[usuari...\n      ADD \t\t\treturn boletosComprados[usuari...\n      PUSH 40\t\t\treturn boletosComprados[usuari...\n      MLOAD \t\t\treturn boletosComprados[usuari...\n      SWAP1 \t\t\treturn boletosComprados[usuari...\n      DUP2 \t\t\treturn boletosComprados[usuari...\n      ADD \t\t\treturn boletosComprados[usuari...\n      PUSH 40\t\t\treturn boletosComprados[usuari...\n      MSTORE \t\t\treturn boletosComprados[usuari...\n      DUP1 \t\t\treturn boletosComprados[usuari...\n      SWAP3 \t\t\treturn boletosComprados[usuari...\n      SWAP2 \t\t\treturn boletosComprados[usuari...\n      SWAP1 \t\t\treturn boletosComprados[usuari...\n      DUP2 \t\t\treturn boletosComprados[usuari...\n      DUP2 \t\t\treturn boletosComprados[usuari...\n      MSTORE \t\t\treturn boletosComprados[usuari...\n      PUSH 20\t\t\treturn boletosComprados[usuari...\n      ADD \t\t\treturn boletosComprados[usuari...\n      PUSH 0\t\t\treturn boletosComprados[usuari...\n      SWAP1 \t\t\treturn boletosComprados[usuari...\n    tag 66\t\t\treturn boletosComprados[usuari...\n      JUMPDEST \t\t\treturn boletosComprados[usuari...\n      DUP3 \t\t\treturn boletosComprados[usuari...\n      DUP3 \t\t\treturn boletosComprados[usuari...\n      LT \t\t\treturn boletosComprados[usuari...\n      ISZERO \t\t\treturn boletosComprados[usuari...\n      PUSH [tag] 67\t\t\treturn boletosComprados[usuari...\n      JUMPI \t\t\treturn boletosComprados[usuari...\n      DUP4 \t\t\treturn boletosComprados[usuari...\n      DUP3 \t\t\treturn boletosComprados[usuari...\n      SWAP1 \t\t\treturn boletosComprados[usuari...\n      PUSH 0\t\t\treturn boletosComprados[usuari...\n      MSTORE \t\t\treturn boletosComprados[usuari...\n      PUSH 20\t\t\treturn boletosComprados[usuari...\n      PUSH 0\t\t\treturn boletosComprados[usuari...\n      KECCAK256 \t\t\treturn boletosComprados[usuari...\n      SWAP1 \t\t\treturn boletosComprados[usuari...\n      PUSH 3\t\t\treturn boletosComprados[usuari...\n      MUL \t\t\treturn boletosComprados[usuari...\n      ADD \t\t\treturn boletosComprados[usuari...\n      PUSH 40\t\t\treturn boletosComprados[usuari...\n      MLOAD \t\t\treturn boletosComprados[usuari...\n      DUP1 \t\t\treturn boletosComprados[usuari...\n      PUSH 60\t\t\treturn boletosComprados[usuari...\n      ADD \t\t\treturn boletosComprados[usuari...\n      PUSH 40\t\t\treturn boletosComprados[usuari...\n      MSTORE \t\t\treturn boletosComprados[usuari...\n      SWAP1 \t\t\treturn boletosComprados[usuari...\n      DUP2 \t\t\treturn boletosComprados[usuari...\n      PUSH 0\t\t\treturn boletosComprados[usuari...\n      DUP3 \t\t\treturn boletosComprados[usuari...\n      ADD \t\t\treturn boletosComprados[usuari...\n      DUP1 \t\t\treturn boletosComprados[usuari...\n      SLOAD \t\t\treturn boletosComprados[usuari...\n      PUSH [tag] 69\t\t\treturn boletosComprados[usuari...\n      SWAP1 \t\t\treturn boletosComprados[usuari...\n      PUSH [tag] 70\t\t\treturn boletosComprados[usuari...\n      JUMP \t\t\treturn boletosComprados[usuari...\n    tag 69\t\t\treturn boletosComprados[usuari...\n      JUMPDEST \t\t\treturn boletosComprados[usuari...\n      DUP1 \t\t\treturn boletosComprados[usuari...\n      PUSH 1F\t\t\treturn boletosComprados[usuari...\n      ADD \t\t\treturn boletosComprados[usuari...\n      PUSH 20\t\t\treturn boletosComprados[usuari...\n      DUP1 \t\t\treturn boletosComprados[usuari...\n      SWAP2 \t\t\treturn boletosComprados[usuari...\n      DIV \t\t\treturn boletosComprados[usuari...\n      MUL \t\t\treturn boletosComprados[usuari...\n      PUSH 20\t\t\treturn boletosComprados[usuari...\n      ADD \t\t\treturn boletosComprados[usuari...\n      PUSH 40\t\t\treturn boletosComprados[usuari...\n      MLOAD \t\t\treturn boletosComprados[usuari...\n      SWAP1 \t\t\treturn boletosComprados[usuari...\n      DUP2 \t\t\treturn boletosComprados[usuari...\n      ADD \t\t\treturn boletosComprados[usuari...\n      PUSH 40\t\t\treturn boletosComprados[usuari...\n      MSTORE \t\t\treturn boletosComprados[usuari...\n      DUP1 \t\t\treturn boletosComprados[usuari...\n      SWAP3 \t\t\treturn boletosComprados[usuari...\n      SWAP2 \t\t\treturn boletosComprados[usuari...\n      SWAP1 \t\t\treturn boletosComprados[usuari...\n      DUP2 \t\t\treturn boletosComprados[usuari...\n      DUP2 \t\t\treturn boletosComprados[usuari...\n      MSTORE \t\t\treturn boletosComprados[usuari...\n      PUSH 20\t\t\treturn boletosComprados[usuari...\n      ADD \t\t\treturn boletosComprados[usuari...\n      DUP3 \t\t\treturn boletosComprados[usuari...\n      DUP1 \t\t\treturn boletosComprados[usuari...\n      SLOAD \t\t\treturn boletosComprados[usuari...\n      PUSH [tag] 71\t\t\treturn boletosComprados[usuari...\n      SWAP1 \t\t\treturn boletosComprados[usuari...\n      PUSH [tag] 70\t\t\treturn boletosComprados[usuari...\n      JUMP \t\t\treturn boletosComprados[usuari...\n    tag 71\t\t\treturn boletosComprados[usuari...\n      JUMPDEST \t\t\treturn boletosComprados[usuari...\n      DUP1 \t\t\treturn boletosComprados[usuari...\n      ISZERO \t\t\treturn boletosComprados[usuari...\n      PUSH [tag] 72\t\t\treturn boletosComprados[usuari...\n      JUMPI \t\t\treturn boletosComprados[usuari...\n      DUP1 \t\t\treturn boletosComprados[usuari...\n      PUSH 1F\t\t\treturn boletosComprados[usuari...\n      LT \t\t\treturn boletosComprados[usuari...\n      PUSH [tag] 73\t\t\treturn boletosComprados[usuari...\n      JUMPI \t\t\treturn boletosComprados[usuari...\n      PUSH 100\t\t\treturn boletosComprados[usuari...\n      DUP1 \t\t\treturn boletosComprados[usuari...\n      DUP4 \t\t\treturn boletosComprados[usuari...\n      SLOAD \t\t\treturn boletosComprados[usuari...\n      DIV \t\t\treturn boletosComprados[usuari...\n      MUL \t\t\treturn boletosComprados[usuari...\n      DUP4 \t\t\treturn boletosComprados[usuari...\n      MSTORE \t\t\treturn boletosComprados[usuari...\n      SWAP2 \t\t\treturn boletosComprados[usuari...\n      PUSH 20\t\t\treturn boletosComprados[usuari...\n      ADD \t\t\treturn boletosComprados[usuari...\n      SWAP2 \t\t\treturn boletosComprados[usuari...\n      PUSH [tag] 72\t\t\treturn boletosComprados[usuari...\n      JUMP \t\t\treturn boletosComprados[usuari...\n    tag 73\t\t\treturn boletosComprados[usuari...\n      JUMPDEST \t\t\treturn boletosComprados[usuari...\n      DUP3 \t\t\treturn boletosComprados[usuari...\n      ADD \t\t\treturn boletosComprados[usuari...\n      SWAP2 \t\t\treturn boletosComprados[usuari...\n      SWAP1 \t\t\treturn boletosComprados[usuari...\n      PUSH 0\t\t\treturn boletosComprados[usuari...\n      MSTORE \t\t\treturn boletosComprados[usuari...\n      PUSH 20\t\t\treturn boletosComprados[usuari...\n      PUSH 0\t\t\treturn boletosComprados[usuari...\n      KECCAK256 \t\t\treturn boletosComprados[usuari...\n      SWAP1 \t\t\treturn boletosComprados[usuari...\n    tag 74\t\t\treturn boletosComprados[usuari...\n      JUMPDEST \t\t\treturn boletosComprados[usuari...\n      DUP2 \t\t\treturn boletosComprados[usuari...\n      SLOAD \t\t\treturn boletosComprados[usuari...\n      DUP2 \t\t\treturn boletosComprados[usuari...\n      MSTORE \t\t\treturn boletosComprados[usuari...\n      SWAP1 \t\t\treturn boletosComprados[usuari...\n      PUSH 1\t\t\treturn boletosComprados[usuari...\n      ADD \t\t\treturn boletosComprados[usuari...\n      SWAP1 \t\t\treturn boletosComprados[usuari...\n      PUSH 20\t\t\treturn boletosComprados[usuari...\n      ADD \t\t\treturn boletosComprados[usuari...\n      DUP1 \t\t\treturn boletosComprados[usuari...\n      DUP4 \t\t\treturn boletosComprados[usuari...\n      GT \t\t\treturn boletosComprados[usuari...\n      PUSH [tag] 74\t\t\treturn boletosComprados[usuari...\n      JUMPI \t\t\treturn boletosComprados[usuari...\n      DUP3 \t\t\treturn boletosComprados[usuari...\n      SWAP1 \t\t\treturn boletosComprados[usuari...\n      SUB \t\t\treturn boletosComprados[usuari...\n      PUSH 1F\t\t\treturn boletosComprados[usuari...\n      AND \t\t\treturn boletosComprados[usuari...\n      DUP3 \t\t\treturn boletosComprados[usuari...\n      ADD \t\t\treturn boletosComprados[usuari...\n      SWAP2 \t\t\treturn boletosComprados[usuari...\n    tag 72\t\t\treturn boletosComprados[usuari...\n      JUMPDEST \t\t\treturn boletosComprados[usuari...\n      POP \t\t\treturn boletosComprados[usuari...\n      POP \t\t\treturn boletosComprados[usuari...\n      POP \t\t\treturn boletosComprados[usuari...\n      POP \t\t\treturn boletosComprados[usuari...\n      POP \t\t\treturn boletosComprados[usuari...\n      DUP2 \t\t\treturn boletosComprados[usuari...\n      MSTORE \t\t\treturn boletosComprados[usuari...\n      PUSH 20\t\t\treturn boletosComprados[usuari...\n      ADD \t\t\treturn boletosComprados[usuari...\n      PUSH 1\t\t\treturn boletosComprados[usuari...\n      DUP3 \t\t\treturn boletosComprados[usuari...\n      ADD \t\t\treturn boletosComprados[usuari...\n      DUP1 \t\t\treturn boletosComprados[usuari...\n      SLOAD \t\t\treturn boletosComprados[usuari...\n      PUSH [tag] 75\t\t\treturn boletosComprados[usuari...\n      SWAP1 \t\t\treturn boletosComprados[usuari...\n      PUSH [tag] 70\t\t\treturn boletosComprados[usuari...\n      JUMP \t\t\treturn boletosComprados[usuari...\n    tag 75\t\t\treturn boletosComprados[usuari...\n      JUMPDEST \t\t\treturn boletosComprados[usuari...\n      DUP1 \t\t\treturn boletosComprados[usuari...\n      PUSH 1F\t\t\treturn boletosComprados[usuari...\n      ADD \t\t\treturn boletosComprados[usuari...\n      PUSH 20\t\t\treturn boletosComprados[usuari...\n      DUP1 \t\t\treturn boletosComprados[usuari...\n      SWAP2 \t\t\treturn boletosComprados[usuari...\n      DIV \t\t\treturn boletosComprados[usuari...\n      MUL \t\t\treturn boletosComprados[usuari...\n      PUSH 20\t\t\treturn boletosComprados[usuari...\n      ADD \t\t\treturn boletosComprados[usuari...\n      PUSH 40\t\t\treturn boletosComprados[usuari...\n      MLOAD \t\t\treturn boletosComprados[usuari...\n      SWAP1 \t\t\treturn boletosComprados[usuari...\n      DUP2 \t\t\treturn boletosComprados[usuari...\n      ADD \t\t\treturn boletosComprados[usuari...\n      PUSH 40\t\t\treturn boletosComprados[usuari...\n      MSTORE \t\t\treturn boletosComprados[usuari...\n      DUP1 \t\t\treturn boletosComprados[usuari...\n      SWAP3 \t\t\treturn boletosComprados[usuari...\n      SWAP2 \t\t\treturn boletosComprados[usuari...\n      SWAP1 \t\t\treturn boletosComprados[usuari...\n      DUP2 \t\t\treturn boletosComprados[usuari...\n      DUP2 \t\t\treturn boletosComprados[usuari...\n      MSTORE \t\t\treturn boletosComprados[usuari...\n      PUSH 20\t\t\treturn boletosComprados[usuari...\n      ADD \t\t\treturn boletosComprados[usuari...\n      DUP3 \t\t\treturn boletosComprados[usuari...\n      DUP1 \t\t\treturn boletosComprados[usuari...\n      SLOAD \t\t\treturn boletosComprados[usuari...\n      PUSH [tag] 76\t\t\treturn boletosComprados[usuari...\n      SWAP1 \t\t\treturn boletosComprados[usuari...\n      PUSH [tag] 70\t\t\treturn boletosComprados[usuari...\n      JUMP \t\t\treturn boletosComprados[usuari...\n    tag 76\t\t\treturn boletosComprados[usuari...\n      JUMPDEST \t\t\treturn boletosComprados[usuari...\n      DUP1 \t\t\treturn boletosComprados[usuari...\n      ISZERO \t\t\treturn boletosComprados[usuari...\n      PUSH [tag] 77\t\t\treturn boletosComprados[usuari...\n      JUMPI \t\t\treturn boletosComprados[usuari...\n      DUP1 \t\t\treturn boletosComprados[usuari...\n      PUSH 1F\t\t\treturn boletosComprados[usuari...\n      LT \t\t\treturn boletosComprados[usuari...\n      PUSH [tag] 78\t\t\treturn boletosComprados[usuari...\n      JUMPI \t\t\treturn boletosComprados[usuari...\n      PUSH 100\t\t\treturn boletosComprados[usuari...\n      DUP1 \t\t\treturn boletosComprados[usuari...\n      DUP4 \t\t\treturn boletosComprados[usuari...\n      SLOAD \t\t\treturn boletosComprados[usuari...\n      DIV \t\t\treturn boletosComprados[usuari...\n      MUL \t\t\treturn boletosComprados[usuari...\n      DUP4 \t\t\treturn boletosComprados[usuari...\n      MSTORE \t\t\treturn boletosComprados[usuari...\n      SWAP2 \t\t\treturn boletosComprados[usuari...\n      PUSH 20\t\t\treturn boletosComprados[usuari...\n      ADD \t\t\treturn boletosComprados[usuari...\n      SWAP2 \t\t\treturn boletosComprados[usuari...\n      PUSH [tag] 77\t\t\treturn boletosComprados[usuari...\n      JUMP \t\t\treturn boletosComprados[usuari...\n    tag 78\t\t\treturn boletosComprados[usuari...\n      JUMPDEST \t\t\treturn boletosComprados[usuari...\n      DUP3 \t\t\treturn boletosComprados[usuari...\n      ADD \t\t\treturn boletosComprados[usuari...\n      SWAP2 \t\t\treturn boletosComprados[usuari...\n      SWAP1 \t\t\treturn boletosComprados[usuari...\n      PUSH 0\t\t\treturn boletosComprados[usuari...\n      MSTORE \t\t\treturn boletosComprados[usuari...\n      PUSH 20\t\t\treturn boletosComprados[usuari...\n      PUSH 0\t\t\treturn boletosComprados[usuari...\n      KECCAK256 \t\t\treturn boletosComprados[usuari...\n      SWAP1 \t\t\treturn boletosComprados[usuari...\n    tag 79\t\t\treturn boletosComprados[usuari...\n      JUMPDEST \t\t\treturn boletosComprados[usuari...\n      DUP2 \t\t\treturn boletosComprados[usuari...\n      SLOAD \t\t\treturn boletosComprados[usuari...\n      DUP2 \t\t\treturn boletosComprados[usuari...\n      MSTORE \t\t\treturn boletosComprados[usuari...\n      SWAP1 \t\t\treturn boletosComprados[usuari...\n      PUSH 1\t\t\treturn boletosComprados[usuari...\n      ADD \t\t\treturn boletosComprados[usuari...\n      SWAP1 \t\t\treturn boletosComprados[usuari...\n      PUSH 20\t\t\treturn boletosComprados[usuari...\n      ADD \t\t\treturn boletosComprados[usuari...\n      DUP1 \t\t\treturn boletosComprados[usuari...\n      DUP4 \t\t\treturn boletosComprados[usuari...\n      GT \t\t\treturn boletosComprados[usuari...\n      PUSH [tag] 79\t\t\treturn boletosComprados[usuari...\n      JUMPI \t\t\treturn boletosComprados[usuari...\n      DUP3 \t\t\treturn boletosComprados[usuari...\n      SWAP1 \t\t\treturn boletosComprados[usuari...\n      SUB \t\t\treturn boletosComprados[usuari...\n      PUSH 1F\t\t\treturn boletosComprados[usuari...\n      AND \t\t\treturn boletosComprados[usuari...\n      DUP3 \t\t\treturn boletosComprados[usuari...\n      ADD \t\t\treturn boletosComprados[usuari...\n      SWAP2 \t\t\treturn boletosComprados[usuari...\n    tag 77\t\t\treturn boletosComprados[usuari...\n      JUMPDEST \t\t\treturn boletosComprados[usuari...\n      POP \t\t\treturn boletosComprados[usuari...\n      POP \t\t\treturn boletosComprados[usuari...\n      POP \t\t\treturn boletosComprados[usuari...\n      POP \t\t\treturn boletosComprados[usuari...\n      POP \t\t\treturn boletosComprados[usuari...\n      DUP2 \t\t\treturn boletosComprados[usuari...\n      MSTORE \t\t\treturn boletosComprados[usuari...\n      PUSH 20\t\t\treturn boletosComprados[usuari...\n      ADD \t\t\treturn boletosComprados[usuari...\n      PUSH 2\t\t\treturn boletosComprados[usuari...\n      DUP3 \t\t\treturn boletosComprados[usuari...\n      ADD \t\t\treturn boletosComprados[usuari...\n      SLOAD \t\t\treturn boletosComprados[usuari...\n      DUP2 \t\t\treturn boletosComprados[usuari...\n      MSTORE \t\t\treturn boletosComprados[usuari...\n      POP \t\t\treturn boletosComprados[usuari...\n      POP \t\t\treturn boletosComprados[usuari...\n      DUP2 \t\t\treturn boletosComprados[usuari...\n      MSTORE \t\t\treturn boletosComprados[usuari...\n      PUSH 20\t\t\treturn boletosComprados[usuari...\n      ADD \t\t\treturn boletosComprados[usuari...\n      SWAP1 \t\t\treturn boletosComprados[usuari...\n      PUSH 1\t\t\treturn boletosComprados[usuari...\n      ADD \t\t\treturn boletosComprados[usuari...\n      SWAP1 \t\t\treturn boletosComprados[usuari...\n      PUSH [tag] 66\t\t\treturn boletosComprados[usuari...\n      JUMP \t\t\treturn boletosComprados[usuari...\n    tag 67\t\t\treturn boletosComprados[usuari...\n      JUMPDEST \t\t\treturn boletosComprados[usuari...\n      POP \t\t\treturn boletosComprados[usuari...\n      POP \t\t\treturn boletosComprados[usuari...\n      POP \t\t\treturn boletosComprados[usuari...\n      POP \t\t\treturn boletosComprados[usuari...\n      SWAP1 \t\t\treturn boletosComprados[usuari...\n      POP \t\t\treturn boletosComprados[usuari...\n      SWAP2 \t\t\tfunction boletosUsuario(addres...\n      SWAP1 \t\t\tfunction boletosUsuario(addres...\n      POP \t\t\tfunction boletosUsuario(addres...\n      JUMP \t\t\tfunction boletosUsuario(addres...\n    tag 38\t\t\tmapping(address => Boleto[]) p...\n      JUMPDEST \t\t\tmapping(address => Boleto[]) p...\n      PUSH 3\t\t\tmapping(address => Boleto[]) p...\n      PUSH 20\t\t\tmapping(address => Boleto[]) p...\n      MSTORE \t\t\tmapping(address => Boleto[]) p...\n      DUP2 \t\t\tmapping(address => Boleto[]) p...\n      PUSH 0\t\t\tmapping(address => Boleto[]) p...\n      MSTORE \t\t\tmapping(address => Boleto[]) p...\n      PUSH 40\t\t\tmapping(address => Boleto[]) p...\n      PUSH 0\t\t\tmapping(address => Boleto[]) p...\n      KECCAK256 \t\t\tmapping(address => Boleto[]) p...\n      DUP2 \t\t\tmapping(address => Boleto[]) p...\n      DUP2 \t\t\tmapping(address => Boleto[]) p...\n      SLOAD \t\t\tmapping(address => Boleto[]) p...\n      DUP2 \t\t\tmapping(address => Boleto[]) p...\n      LT \t\t\tmapping(address => Boleto[]) p...\n      PUSH [tag] 80\t\t\tmapping(address => Boleto[]) p...\n      JUMPI \t\t\tmapping(address => Boleto[]) p...\n      PUSH 0\t\t\tmapping(address => Boleto[]) p...\n      DUP1 \t\t\tmapping(address => Boleto[]) p...\n      REVERT \t\t\tmapping(address => Boleto[]) p...\n    tag 80\t\t\tmapping(address => Boleto[]) p...\n      JUMPDEST \t\t\tmapping(address => Boleto[]) p...\n      SWAP1 \t\t\tmapping(address => Boleto[]) p...\n      PUSH 0\t\t\tmapping(address => Boleto[]) p...\n      MSTORE \t\t\tmapping(address => Boleto[]) p...\n      PUSH 20\t\t\tmapping(address => Boleto[]) p...\n      PUSH 0\t\t\tmapping(address => Boleto[]) p...\n      KECCAK256 \t\t\tmapping(address => Boleto[]) p...\n      SWAP1 \t\t\tmapping(address => Boleto[]) p...\n      PUSH 3\t\t\tmapping(address => Boleto[]) p...\n      MUL \t\t\tmapping(address => Boleto[]) p...\n      ADD \t\t\tmapping(address => Boleto[]) p...\n      PUSH 0\t\t\tmapping(address => Boleto[]) p...\n      SWAP2 \t\t\tmapping(address => Boleto[]) p...\n      POP \t\t\tmapping(address => Boleto[]) p...\n      SWAP2 \t\t\tmapping(address => Boleto[]) p...\n      POP \t\t\tmapping(address => Boleto[]) p...\n      POP \t\t\tmapping(address => Boleto[]) p...\n      DUP1 \t\t\tmapping(address => Boleto[]) p...\n      PUSH 0\t\t\tmapping(address => Boleto[]) p...\n      ADD \t\t\tmapping(address => Boleto[]) p...\n      DUP1 \t\t\tmapping(address => Boleto[]) p...\n      SLOAD \t\t\tmapping(address => Boleto[]) p...\n      PUSH [tag] 82\t\t\tmapping(address => Boleto[]) p...\n      SWAP1 \t\t\tmapping(address => Boleto[]) p...\n      PUSH [tag] 70\t\t\tmapping(address => Boleto[]) p...\n      JUMP \t\t\tmapping(address => Boleto[]) p...\n    tag 82\t\t\tmapping(address => Boleto[]) p...\n      JUMPDEST \t\t\tmapping(address => Boleto[]) p...\n      DUP1 \t\t\tmapping(address => Boleto[]) p...\n      PUSH 1F\t\t\tmapping(address => Boleto[]) p...\n      ADD \t\t\tmapping(address => Boleto[]) p...\n      PUSH 20\t\t\tmapping(address => Boleto[]) p...\n      DUP1 \t\t\tmapping(address => Boleto[]) p...\n      SWAP2 \t\t\tmapping(address => Boleto[]) p...\n      DIV \t\t\tmapping(address => Boleto[]) p...\n      MUL \t\t\tmapping(address => Boleto[]) p...\n      PUSH 20\t\t\tmapping(address => Boleto[]) p...\n      ADD \t\t\tmapping(address => Boleto[]) p...\n      PUSH 40\t\t\tmapping(address => Boleto[]) p...\n      MLOAD \t\t\tmapping(address => Boleto[]) p...\n      SWAP1 \t\t\tmapping(address => Boleto[]) p...\n      DUP2 \t\t\tmapping(address => Boleto[]) p...\n      ADD \t\t\tmapping(address => Boleto[]) p...\n      PUSH 40\t\t\tmapping(address => Boleto[]) p...\n      MSTORE \t\t\tmapping(address => Boleto[]) p...\n      DUP1 \t\t\tmapping(address => Boleto[]) p...\n      SWAP3 \t\t\tmapping(address => Boleto[]) p...\n      SWAP2 \t\t\tmapping(address => Boleto[]) p...\n      SWAP1 \t\t\tmapping(address => Boleto[]) p...\n      DUP2 \t\t\tmapping(address => Boleto[]) p...\n      DUP2 \t\t\tmapping(address => Boleto[]) p...\n      MSTORE \t\t\tmapping(address => Boleto[]) p...\n      PUSH 20\t\t\tmapping(address => Boleto[]) p...\n      ADD \t\t\tmapping(address => Boleto[]) p...\n      DUP3 \t\t\tmapping(address => Boleto[]) p...\n      DUP1 \t\t\tmapping(address => Boleto[]) p...\n      SLOAD \t\t\tmapping(address => Boleto[]) p...\n      PUSH [tag] 83\t\t\tmapping(address => Boleto[]) p...\n      SWAP1 \t\t\tmapping(address => Boleto[]) p...\n      PUSH [tag] 70\t\t\tmapping(address => Boleto[]) p...\n      JUMP \t\t\tmapping(address => Boleto[]) p...\n    tag 83\t\t\tmapping(address => Boleto[]) p...\n      JUMPDEST \t\t\tmapping(address => Boleto[]) p...\n      DUP1 \t\t\tmapping(address => Boleto[]) p...\n      ISZERO \t\t\tmapping(address => Boleto[]) p...\n      PUSH [tag] 84\t\t\tmapping(address => Boleto[]) p...\n      JUMPI \t\t\tmapping(address => Boleto[]) p...\n      DUP1 \t\t\tmapping(address => Boleto[]) p...\n      PUSH 1F\t\t\tmapping(address => Boleto[]) p...\n      LT \t\t\tmapping(address => Boleto[]) p...\n      PUSH [tag] 85\t\t\tmapping(address => Boleto[]) p...\n      JUMPI \t\t\tmapping(address => Boleto[]) p...\n      PUSH 100\t\t\tmapping(address => Boleto[]) p...\n      DUP1 \t\t\tmapping(address => Boleto[]) p...\n      DUP4 \t\t\tmapping(address => Boleto[]) p...\n      SLOAD \t\t\tmapping(address => Boleto[]) p...\n      DIV \t\t\tmapping(address => Boleto[]) p...\n      MUL \t\t\tmapping(address => Boleto[]) p...\n      DUP4 \t\t\tmapping(address => Boleto[]) p...\n      MSTORE \t\t\tmapping(address => Boleto[]) p...\n      SWAP2 \t\t\tmapping(address => Boleto[]) p...\n      PUSH 20\t\t\tmapping(address => Boleto[]) p...\n      ADD \t\t\tmapping(address => Boleto[]) p...\n      SWAP2 \t\t\tmapping(address => Boleto[]) p...\n      PUSH [tag] 84\t\t\tmapping(address => Boleto[]) p...\n      JUMP \t\t\tmapping(address => Boleto[]) p...\n    tag 85\t\t\tmapping(address => Boleto[]) p...\n      JUMPDEST \t\t\tmapping(address => Boleto[]) p...\n      DUP3 \t\t\tmapping(address => Boleto[]) p...\n      ADD \t\t\tmapping(address => Boleto[]) p...\n      SWAP2 \t\t\tmapping(address => Boleto[]) p...\n      SWAP1 \t\t\tmapping(address => Boleto[]) p...\n      PUSH 0\t\t\tmapping(address => Boleto[]) p...\n      MSTORE \t\t\tmapping(address => Boleto[]) p...\n      PUSH 20\t\t\tmapping(address => Boleto[]) p...\n      PUSH 0\t\t\tmapping(address => Boleto[]) p...\n      KECCAK256 \t\t\tmapping(address => Boleto[]) p...\n      SWAP1 \t\t\tmapping(address => Boleto[]) p...\n    tag 86\t\t\tmapping(address => Boleto[]) p...\n      JUMPDEST \t\t\tmapping(address => Boleto[]) p...\n      DUP2 \t\t\tmapping(address => Boleto[]) p...\n      SLOAD \t\t\tmapping(address => Boleto[]) p...\n      DUP2 \t\t\tmapping(address => Boleto[]) p...\n      MSTORE \t\t\tmapping(address => Boleto[]) p...\n      SWAP1 \t\t\tmapping(address => Boleto[]) p...\n      PUSH 1\t\t\tmapping(address => Boleto[]) p...\n      ADD \t\t\tmapping(address => Boleto[]) p...\n      SWAP1 \t\t\tmapping(address => Boleto[]) p...\n      PUSH 20\t\t\tmapping(address => Boleto[]) p...\n      ADD \t\t\tmapping(address => Boleto[]) p...\n      DUP1 \t\t\tmapping(address => Boleto[]) p...\n      DUP4 \t\t\tmapping(address => Boleto[]) p...\n      GT \t\t\tmapping(address => Boleto[]) p...\n      PUSH [tag] 86\t\t\tmapping(address => Boleto[]) p...\n      JUMPI \t\t\tmapping(address => Boleto[]) p...\n      DUP3 \t\t\tmapping(address => Boleto[]) p...\n      SWAP1 \t\t\tmapping(address => Boleto[]) p...\n      SUB \t\t\tmapping(address => Boleto[]) p...\n      PUSH 1F\t\t\tmapping(address => Boleto[]) p...\n      AND \t\t\tmapping(address => Boleto[]) p...\n      DUP3 \t\t\tmapping(address => Boleto[]) p...\n      ADD \t\t\tmapping(address => Boleto[]) p...\n      SWAP2 \t\t\tmapping(address => Boleto[]) p...\n    tag 84\t\t\tmapping(address => Boleto[]) p...\n      JUMPDEST \t\t\tmapping(address => Boleto[]) p...\n      POP \t\t\tmapping(address => Boleto[]) p...\n      POP \t\t\tmapping(address => Boleto[]) p...\n      POP \t\t\tmapping(address => Boleto[]) p...\n      POP \t\t\tmapping(address => Boleto[]) p...\n      POP \t\t\tmapping(address => Boleto[]) p...\n      SWAP1 \t\t\tmapping(address => Boleto[]) p...\n      DUP1 \t\t\tmapping(address => Boleto[]) p...\n      PUSH 1\t\t\tmapping(address => Boleto[]) p...\n      ADD \t\t\tmapping(address => Boleto[]) p...\n      DUP1 \t\t\tmapping(address => Boleto[]) p...\n      SLOAD \t\t\tmapping(address => Boleto[]) p...\n      PUSH [tag] 87\t\t\tmapping(address => Boleto[]) p...\n      SWAP1 \t\t\tmapping(address => Boleto[]) p...\n      PUSH [tag] 70\t\t\tmapping(address => Boleto[]) p...\n      JUMP \t\t\tmapping(address => Boleto[]) p...\n    tag 87\t\t\tmapping(address => Boleto[]) p...\n      JUMPDEST \t\t\tmapping(address => Boleto[]) p...\n      DUP1 \t\t\tmapping(address => Boleto[]) p...\n      PUSH 1F\t\t\tmapping(address => Boleto[]) p...\n      ADD \t\t\tmapping(address => Boleto[]) p...\n      PUSH 20\t\t\tmapping(address => Boleto[]) p...\n      DUP1 \t\t\tmapping(address => Boleto[]) p...\n      SWAP2 \t\t\tmapping(address => Boleto[]) p...\n      DIV \t\t\tmapping(address => Boleto[]) p...\n      MUL \t\t\tmapping(address => Boleto[]) p...\n      PUSH 20\t\t\tmapping(address => Boleto[]) p...\n      ADD \t\t\tmapping(address => Boleto[]) p...\n      PUSH 40\t\t\tmapping(address => Boleto[]) p...\n      MLOAD \t\t\tmapping(address => Boleto[]) p...\n      SWAP1 \t\t\tmapping(address => Boleto[]) p...\n      DUP2 \t\t\tmapping(address => Boleto[]) p...\n      ADD \t\t\tmapping(address => Boleto[]) p...\n      PUSH 40\t\t\tmapping(address => Boleto[]) p...\n      MSTORE \t\t\tmapping(address => Boleto[]) p...\n      DUP1 \t\t\tmapping(address => Boleto[]) p...\n      SWAP3 \t\t\tmapping(address => Boleto[]) p...\n      SWAP2 \t\t\tmapping(address => Boleto[]) p...\n      SWAP1 \t\t\tmapping(address => Boleto[]) p...\n      DUP2 \t\t\tmapping(address => Boleto[]) p...\n      DUP2 \t\t\tmapping(address => Boleto[]) p...\n      MSTORE \t\t\tmapping(address => Boleto[]) p...\n      PUSH 20\t\t\tmapping(address => Boleto[]) p...\n      ADD \t\t\tmapping(address => Boleto[]) p...\n      DUP3 \t\t\tmapping(address => Boleto[]) p...\n      DUP1 \t\t\tmapping(address => Boleto[]) p...\n      SLOAD \t\t\tmapping(address => Boleto[]) p...\n      PUSH [tag] 88\t\t\tmapping(address => Boleto[]) p...\n      SWAP1 \t\t\tmapping(address => Boleto[]) p...\n      PUSH [tag] 70\t\t\tmapping(address => Boleto[]) p...\n      JUMP \t\t\tmapping(address => Boleto[]) p...\n    tag 88\t\t\tmapping(address => Boleto[]) p...\n      JUMPDEST \t\t\tmapping(address => Boleto[]) p...\n      DUP1 \t\t\tmapping(address => Boleto[]) p...\n      ISZERO \t\t\tmapping(address => Boleto[]) p...\n      PUSH [tag] 89\t\t\tmapping(address => Boleto[]) p...\n      JUMPI \t\t\tmapping(address => Boleto[]) p...\n      DUP1 \t\t\tmapping(address => Boleto[]) p...\n      PUSH 1F\t\t\tmapping(address => Boleto[]) p...\n      LT \t\t\tmapping(address => Boleto[]) p...\n      PUSH [tag] 90\t\t\tmapping(address => Boleto[]) p...\n      JUMPI \t\t\tmapping(address => Boleto[]) p...\n      PUSH 100\t\t\tmapping(address => Boleto[]) p...\n      DUP1 \t\t\tmapping(address => Boleto[]) p...\n      DUP4 \t\t\tmapping(address => Boleto[]) p...\n      SLOAD \t\t\tmapping(address => Boleto[]) p...\n      DIV \t\t\tmapping(address => Boleto[]) p...\n      MUL \t\t\tmapping(address => Boleto[]) p...\n      DUP4 \t\t\tmapping(address => Boleto[]) p...\n      MSTORE \t\t\tmapping(address => Boleto[]) p...\n      SWAP2 \t\t\tmapping(address => Boleto[]) p...\n      PUSH 20\t\t\tmapping(address => Boleto[]) p...\n      ADD \t\t\tmapping(address => Boleto[]) p...\n      SWAP2 \t\t\tmapping(address => Boleto[]) p...\n      PUSH [tag] 89\t\t\tmapping(address => Boleto[]) p...\n      JUMP \t\t\tmapping(address => Boleto[]) p...\n    tag 90\t\t\tmapping(address => Boleto[]) p...\n      JUMPDEST \t\t\tmapping(address => Boleto[]) p...\n      DUP3 \t\t\tmapping(address => Boleto[]) p...\n      ADD \t\t\tmapping(address => Boleto[]) p...\n      SWAP2 \t\t\tmapping(address => Boleto[]) p...\n      SWAP1 \t\t\tmapping(address => Boleto[]) p...\n      PUSH 0\t\t\tmapping(address => Boleto[]) p...\n      MSTORE \t\t\tmapping(address => Boleto[]) p...\n      PUSH 20\t\t\tmapping(address => Boleto[]) p...\n      PUSH 0\t\t\tmapping(address => Boleto[]) p...\n      KECCAK256 \t\t\tmapping(address => Boleto[]) p...\n      SWAP1 \t\t\tmapping(address => Boleto[]) p...\n    tag 91\t\t\tmapping(address => Boleto[]) p...\n      JUMPDEST \t\t\tmapping(address => Boleto[]) p...\n      DUP2 \t\t\tmapping(address => Boleto[]) p...\n      SLOAD \t\t\tmapping(address => Boleto[]) p...\n      DUP2 \t\t\tmapping(address => Boleto[]) p...\n      MSTORE \t\t\tmapping(address => Boleto[]) p...\n      SWAP1 \t\t\tmapping(address => Boleto[]) p...\n      PUSH 1\t\t\tmapping(address => Boleto[]) p...\n      ADD \t\t\tmapping(address => Boleto[]) p...\n      SWAP1 \t\t\tmapping(address => Boleto[]) p...\n      PUSH 20\t\t\tmapping(address => Boleto[]) p...\n      ADD \t\t\tmapping(address => Boleto[]) p...\n      DUP1 \t\t\tmapping(address => Boleto[]) p...\n      DUP4 \t\t\tmapping(address => Boleto[]) p...\n      GT \t\t\tmapping(address => Boleto[]) p...\n      PUSH [tag] 91\t\t\tmapping(address => Boleto[]) p...\n      JUMPI \t\t\tmapping(address => Boleto[]) p...\n      DUP3 \t\t\tmapping(address => Boleto[]) p...\n      SWAP1 \t\t\tmapping(address => Boleto[]) p...\n      SUB \t\t\tmapping(address => Boleto[]) p...\n      PUSH 1F\t\t\tmapping(address => Boleto[]) p...\n      AND \t\t\tmapping(address => Boleto[]) p...\n      DUP3 \t\t\tmapping(address => Boleto[]) p...\n      ADD \t\t\tmapping(address => Boleto[]) p...\n      SWAP2 \t\t\tmapping(address => Boleto[]) p...\n    tag 89\t\t\tmapping(address => Boleto[]) p...\n      JUMPDEST \t\t\tmapping(address => Boleto[]) p...\n      POP \t\t\tmapping(address => Boleto[]) p...\n      POP \t\t\tmapping(address => Boleto[]) p...\n      POP \t\t\tmapping(address => Boleto[]) p...\n      POP \t\t\tmapping(address => Boleto[]) p...\n      POP \t\t\tmapping(address => Boleto[]) p...\n      SWAP1 \t\t\tmapping(address => Boleto[]) p...\n      DUP1 \t\t\tmapping(address => Boleto[]) p...\n      PUSH 2\t\t\tmapping(address => Boleto[]) p...\n      ADD \t\t\tmapping(address => Boleto[]) p...\n      SLOAD \t\t\tmapping(address => Boleto[]) p...\n      SWAP1 \t\t\tmapping(address => Boleto[]) p...\n      POP \t\t\tmapping(address => Boleto[]) p...\n      DUP4 \t\t\tmapping(address => Boleto[]) p...\n      JUMP \t\t\tmapping(address => Boleto[]) p...\n    tag 43\t\t\tuint256 public precioBoleto = ...\n      JUMPDEST \t\t\tuint256 public precioBoleto = ...\n      PUSH 1\t\t\tuint256 public precioBoleto = ...\n      SLOAD \t\t\tuint256 public precioBoleto = ...\n      DUP2 \t\t\tuint256 public precioBoleto = ...\n      JUMP \t\t\tuint256 public precioBoleto = ...\n    tag 92\t\t\t-License-Identifier: MIT\\nprag...\n      JUMPDEST \t\t\t-License-Identifier: MIT\\nprag...\n      PUSH 0\t\t\tidity ^\n      PUSH FF\t\t\t  ad\n      DUP3 \t\t\tIP {\\n\n      AND \t\t\ttosVIP {\\n    add\n      SWAP1 \t\t\tntract BoletosVIP {\\n    add\n      POP \t\t\tntract BoletosVIP {\\n    add\n      SWAP2 \t\t\t-License-Identifier: MIT\\nprag...\n      SWAP1 \t\t\t-License-Identifier: MIT\\nprag...\n      POP \t\t\t-License-Identifier: MIT\\nprag...\n      JUMP \t\t\t-License-Identifier: MIT\\nprag...\n    tag 93\t\t\towner;\\n    uint256 public pre...\n      JUMPDEST \t\t\towner;\\n    uint256 public pre...\n      PUSH [tag] 155\t\t\trUsuario = 4;\\n\\n    str\n      DUP2 \t\t\t   st\n      PUSH [tag] 92\t\t\trUsuario = 4;\\n\\n    str\n      JUMP \t\t\trUsuario = 4;\\n\\n    str\n    tag 155\t\t\trUsuario = 4;\\n\\n    str\n      JUMPDEST \t\t\trUsuario = 4;\\n\\n    str\n      DUP3 \t\t\ttos\n      MSTORE \t\t\tmaxBoletosPorUsuario = 4;\\n\\n ...\n      POP \t\t\towner;\\n    uint256 public pre...\n      POP \t\t\towner;\\n    uint256 public pre...\n      JUMP \t\t\towner;\\n    uint256 public pre...\n    tag 14\t\t\t        string artista;\\n     ...\n      JUMPDEST \t\t\t        string artista;\\n     ...\n      PUSH 0\t\t\taddr\n      PUSH 20\t\t\tpr\n      DUP3 \t\t\t boletosC\n      ADD \t\t\tblic boletosCompra\n      SWAP1 \t\t\tto[]) public boletosCompra\n      POP \t\t\tto[]) public boletosCompra\n      PUSH [tag] 157\t\t\tevent BoletoComprado(address c...\n      PUSH 0\t\t\te\n      DUP4 \t\t\ta, string\n      ADD \t\t\ttista, string fec\n      DUP5 \t\t\tstring\n      PUSH [tag] 93\t\t\tevent BoletoComprado(address c...\n      JUMP \t\t\tevent BoletoComprado(address c...\n    tag 157\t\t\tevent BoletoComprado(address c...\n      JUMPDEST \t\t\tevent BoletoComprado(address c...\n      SWAP3 \t\t\t        string artista;\\n     ...\n      SWAP2 \t\t\t        string artista;\\n     ...\n      POP \t\t\t        string artista;\\n     ...\n      POP \t\t\t        string artista;\\n     ...\n      JUMP \t\t\t        string artista;\\n     ...\n    tag 94\t\t\tecio);\\n\\n    constructor() {\\...\n      JUMPDEST \t\t\tecio);\\n\\n    constructor() {\\...\n      PUSH 0\t\t\t   own\n      PUSH 40\t\t\t f\n      MLOAD \t\t\t}\\n\\n    fu\n      SWAP1 \t\t\tnder;\\n    }\\n\\n    fu\n      POP \t\t\tnder;\\n    }\\n\\n    fu\n      SWAP1 \t\t\tecio);\\n\\n    constructor() {\\...\n      JUMP \t\t\tecio);\\n\\n    constructor() {\\...\n    tag 95\t\t\tarBoleto(string memory artista...\n      JUMPDEST \t\t\tarBoleto(string memory artista...\n      PUSH 0\t\t\tt\n      DUP1 \t\t\to\n      REVERT \t\t\tprecioBoleto\n    tag 96\t\t\torrecto\");\\n        require(bo...\n      JUMPDEST \t\t\torrecto\");\\n        require(bo...\n      PUSH 0\t\t\ta\n      DUP1 \t\t\ta\n      REVERT \t\t\toletos alcan\n    tag 97\t\t\t     boletosComprados[msg.send...\n      JUMPDEST \t\t\t     boletosComprados[msg.send...\n      PUSH 0\t\t\tn\n      DUP1 \t\t\t.\n      REVERT \t\t\tado(msg.send\n    tag 98\t\t\t fecha, msg.value);\\n    }\\n\\n...\n      JUMPDEST \t\t\t fecha, msg.value);\\n    }\\n\\n...\n      PUSH 0\t\t\t \n      DUP1 \t\t\tr\n      REVERT \t\t\t[] memory) {\n    tag 99\t\t\turn boletosComprados[usuario];...\n      JUMPDEST \t\t\turn boletosComprados[usuario];...\n      PUSH 0\t\t\t funct\n      PUSH 1F\t\t\tms\n      NOT \t\t\tire(msg\n      PUSH 1F\t\t\t r\n      DUP4 \t\t\t     \n      ADD \t\t\tc {\\n        re\n      AND \t\t\tublic {\\n        require(msg.\n      SWAP1 \t\t\tFondos() public {\\n        req...\n      POP \t\t\tFondos() public {\\n        req...\n      SWAP2 \t\t\turn boletosComprados[usuario];...\n      SWAP1 \t\t\turn boletosComprados[usuario];...\n      POP \t\t\turn boletosComprados[usuario];...\n      JUMP \t\t\turn boletosComprados[usuario];...\n    tag 100\t\t\tner, \"No eres el owner\");\\n   ...\n      JUMPDEST \t\t\tner, \"No eres el owner\");\\n   ...\n      PUSH 4E487B7100000000000000000000000000000000000000000000000000000000\t\t\t.transfer(address(this).balanc...\n      PUSH 0\t\t\te\n      MSTORE \t\t\tble(owner).transfer(address(th...\n      PUSH 41\t\t\t\n      PUSH 4\t\t\t\n      MSTORE \t\t\t\n      PUSH 24\t\t\t\n      PUSH 0\t\t\t\n      REVERT \t\t\t\n    tag 101\t\t\t\n      JUMPDEST \t\t\t\n      PUSH [tag] 166\t\t\t\n      DUP3 \t\t\t\n      PUSH [tag] 99\t\t\t\n      JUMP \t\t\t\n    tag 166\t\t\t\n      JUMPDEST \t\t\t\n      DUP2 \t\t\t\n      ADD \t\t\t\n      DUP2 \t\t\t\n      DUP2 \t\t\t\n      LT \t\t\t\n      PUSH FFFFFFFFFFFFFFFF\t\t\t\n      DUP3 \t\t\t\n      GT \t\t\t\n      OR \t\t\t\n      ISZERO \t\t\t\n      PUSH [tag] 167\t\t\t\n      JUMPI \t\t\t\n      PUSH [tag] 168\t\t\t\n      PUSH [tag] 100\t\t\t\n      JUMP \t\t\t\n    tag 168\t\t\t\n      JUMPDEST \t\t\t\n    tag 167\t\t\t\n      JUMPDEST \t\t\t\n      DUP1 \t\t\t\n      PUSH 40\t\t\t\n      MSTORE \t\t\t\n      POP \t\t\t\n      POP \t\t\t\n      POP \t\t\t\n      JUMP \t\t\t\n    tag 102\t\t\t\n      JUMPDEST \t\t\t\n      PUSH 0\t\t\t\n      PUSH [tag] 170\t\t\t\n      PUSH [tag] 94\t\t\t\n      JUMP \t\t\t\n    tag 170\t\t\t\n      JUMPDEST \t\t\t\n      SWAP1 \t\t\t\n      POP \t\t\t\n      PUSH [tag] 171\t\t\t\n      DUP3 \t\t\t\n      DUP3 \t\t\t\n      PUSH [tag] 101\t\t\t\n      JUMP \t\t\t\n    tag 171\t\t\t\n      JUMPDEST \t\t\t\n      SWAP2 \t\t\t\n      SWAP1 \t\t\t\n      POP \t\t\t\n      JUMP \t\t\t\n    tag 103\t\t\t\n      JUMPDEST \t\t\t\n      PUSH 0\t\t\t\n      PUSH FFFFFFFFFFFFFFFF\t\t\t\n      DUP3 \t\t\t\n      GT \t\t\t\n      ISZERO \t\t\t\n      PUSH [tag] 173\t\t\t\n      JUMPI \t\t\t\n      PUSH [tag] 174\t\t\t\n      PUSH [tag] 100\t\t\t\n      JUMP \t\t\t\n    tag 174\t\t\t\n      JUMPDEST \t\t\t\n    tag 173\t\t\t\n      JUMPDEST \t\t\t\n      PUSH [tag] 175\t\t\t\n      DUP3 \t\t\t\n      PUSH [tag] 99\t\t\t\n      JUMP \t\t\t\n    tag 175\t\t\t\n      JUMPDEST \t\t\t\n      SWAP1 \t\t\t\n      POP \t\t\t\n      PUSH 20\t\t\t\n      DUP2 \t\t\t\n      ADD \t\t\t\n      SWAP1 \t\t\t\n      POP \t\t\t\n      SWAP2 \t\t\t\n      SWAP1 \t\t\t\n      POP \t\t\t\n      JUMP \t\t\t\n    tag 104\t\t\t\n      JUMPDEST \t\t\t\n      DUP3 \t\t\t\n      DUP2 \t\t\t\n      DUP4 \t\t\t\n      CALLDATACOPY \t\t\t\n      PUSH 0\t\t\t\n      DUP4 \t\t\t\n      DUP4 \t\t\t\n      ADD \t\t\t\n      MSTORE \t\t\t\n      POP \t\t\t\n      POP \t\t\t\n      POP \t\t\t\n      JUMP \t\t\t\n    tag 105\t\t\t\n      JUMPDEST \t\t\t\n      PUSH 0\t\t\t\n      PUSH [tag] 178\t\t\t\n      PUSH [tag] 179\t\t\t\n      DUP5 \t\t\t\n      PUSH [tag] 103\t\t\t\n      JUMP \t\t\t\n    tag 179\t\t\t\n      JUMPDEST \t\t\t\n      PUSH [tag] 102\t\t\t\n      JUMP \t\t\t\n    tag 178\t\t\t\n      JUMPDEST \t\t\t\n      SWAP1 \t\t\t\n      POP \t\t\t\n      DUP3 \t\t\t\n      DUP2 \t\t\t\n      MSTORE \t\t\t\n      PUSH 20\t\t\t\n      DUP2 \t\t\t\n      ADD \t\t\t\n      DUP5 \t\t\t\n      DUP5 \t\t\t\n      DUP5 \t\t\t\n      ADD \t\t\t\n      GT \t\t\t\n      ISZERO \t\t\t\n      PUSH [tag] 180\t\t\t\n      JUMPI \t\t\t\n      PUSH [tag] 181\t\t\t\n      PUSH [tag] 98\t\t\t\n      JUMP \t\t\t\n    tag 181\t\t\t\n      JUMPDEST \t\t\t\n    tag 180\t\t\t\n      JUMPDEST \t\t\t\n      PUSH [tag] 182\t\t\t\n      DUP5 \t\t\t\n      DUP3 \t\t\t\n      DUP6 \t\t\t\n      PUSH [tag] 104\t\t\t\n      JUMP \t\t\t\n    tag 182\t\t\t\n      JUMPDEST \t\t\t\n      POP \t\t\t\n      SWAP4 \t\t\t\n      SWAP3 \t\t\t\n      POP \t\t\t\n      POP \t\t\t\n      POP \t\t\t\n      JUMP \t\t\t\n    tag 106\t\t\t\n      JUMPDEST \t\t\t\n      PUSH 0\t\t\t\n      DUP3 \t\t\t\n      PUSH 1F\t\t\t\n      DUP4 \t\t\t\n      ADD \t\t\t\n      SLT \t\t\t\n      PUSH [tag] 184\t\t\t\n      JUMPI \t\t\t\n      PUSH [tag] 185\t\t\t\n      PUSH [tag] 97\t\t\t\n      JUMP \t\t\t\n    tag 185\t\t\t\n      JUMPDEST \t\t\t\n    tag 184\t\t\t\n      JUMPDEST \t\t\t\n      DUP2 \t\t\t\n      CALLDATALOAD \t\t\t\n      PUSH [tag] 186\t\t\t\n      DUP5 \t\t\t\n      DUP3 \t\t\t\n      PUSH 20\t\t\t\n      DUP7 \t\t\t\n      ADD \t\t\t\n      PUSH [tag] 105\t\t\t\n      JUMP \t\t\t\n    tag 186\t\t\t\n      JUMPDEST \t\t\t\n      SWAP2 \t\t\t\n      POP \t\t\t\n      POP \t\t\t\n      SWAP3 \t\t\t\n      SWAP2 \t\t\t\n      POP \t\t\t\n      POP \t\t\t\n      JUMP \t\t\t\n    tag 17\t\t\t\n      JUMPDEST \t\t\t\n      PUSH 0\t\t\t\n      DUP1 \t\t\t\n      PUSH 40\t\t\t\n      DUP4 \t\t\t\n      DUP6 \t\t\t\n      SUB \t\t\t\n      SLT \t\t\t\n      ISZERO \t\t\t\n      PUSH [tag] 188\t\t\t\n      JUMPI \t\t\t\n      PUSH [tag] 189\t\t\t\n      PUSH [tag] 95\t\t\t\n      JUMP \t\t\t\n    tag 189\t\t\t\n      JUMPDEST \t\t\t\n    tag 188\t\t\t\n      JUMPDEST \t\t\t\n      PUSH 0\t\t\t\n      DUP4 \t\t\t\n      ADD \t\t\t\n      CALLDATALOAD \t\t\t\n      PUSH FFFFFFFFFFFFFFFF\t\t\t\n      DUP2 \t\t\t\n      GT \t\t\t\n      ISZERO \t\t\t\n      PUSH [tag] 190\t\t\t\n      JUMPI \t\t\t\n      PUSH [tag] 191\t\t\t\n      PUSH [tag] 96\t\t\t\n      JUMP \t\t\t\n    tag 191\t\t\t\n      JUMPDEST \t\t\t\n    tag 190\t\t\t\n      JUMPDEST \t\t\t\n      PUSH [tag] 192\t\t\t\n      DUP6 \t\t\t\n      DUP3 \t\t\t\n      DUP7 \t\t\t\n      ADD \t\t\t\n      PUSH [tag] 106\t\t\t\n      JUMP \t\t\t\n    tag 192\t\t\t\n      JUMPDEST \t\t\t\n      SWAP3 \t\t\t\n      POP \t\t\t\n      POP \t\t\t\n      PUSH 20\t\t\t\n      DUP4 \t\t\t\n      ADD \t\t\t\n      CALLDATALOAD \t\t\t\n      PUSH FFFFFFFFFFFFFFFF\t\t\t\n      DUP2 \t\t\t\n      GT \t\t\t\n      ISZERO \t\t\t\n      PUSH [tag] 193\t\t\t\n      JUMPI \t\t\t\n      PUSH [tag] 194\t\t\t\n      PUSH [tag] 96\t\t\t\n      JUMP \t\t\t\n    tag 194\t\t\t\n      JUMPDEST \t\t\t\n    tag 193\t\t\t\n      JUMPDEST \t\t\t\n      PUSH [tag] 195\t\t\t\n      DUP6 \t\t\t\n      DUP3 \t\t\t\n      DUP7 \t\t\t\n      ADD \t\t\t\n      PUSH [tag] 106\t\t\t\n      JUMP \t\t\t\n    tag 195\t\t\t\n      JUMPDEST \t\t\t\n      SWAP2 \t\t\t\n      POP \t\t\t\n      POP \t\t\t\n      SWAP3 \t\t\t\n      POP \t\t\t\n      SWAP3 \t\t\t\n      SWAP1 \t\t\t\n      POP \t\t\t\n      JUMP \t\t\t\n    tag 107\t\t\t\n      JUMPDEST \t\t\t\n      PUSH 0\t\t\t\n      PUSH FFFFFFFFFFFFFFFFFFFFFFFFFFFFFFFFFFFFFFFF\t\t\t\n      DUP3 \t\t\t\n      AND \t\t\t\n      SWAP1 \t\t\t\n      POP \t\t\t\n      SWAP2 \t\t\t\n      SWAP1 \t\t\t\n      POP \t\t\t\n      JUMP \t\t\t\n    tag 108\t\t\t\n      JUMPDEST \t\t\t\n      PUSH 0\t\t\t\n      PUSH [tag] 198\t\t\t\n      DUP3 \t\t\t\n      PUSH [tag] 107\t\t\t\n      JUMP \t\t\t\n    tag 198\t\t\t\n      JUMPDEST \t\t\t\n      SWAP1 \t\t\t\n      POP \t\t\t\n      SWAP2 \t\t\t\n      SWAP1 \t\t\t\n      POP \t\t\t\n      JUMP \t\t\t\n    tag 109\t\t\t\n      JUMPDEST \t\t\t\n      PUSH [tag] 200\t\t\t\n      DUP2 \t\t\t\n      PUSH [tag] 108\t\t\t\n      JUMP \t\t\t\n    tag 200\t\t\t\n      JUMPDEST \t\t\t\n      DUP3 \t\t\t\n      MSTORE \t\t\t\n      POP \t\t\t\n      POP \t\t\t\n      JUMP \t\t\t\n    tag 26\t\t\t\n      JUMPDEST \t\t\t\n      PUSH 0\t\t\t\n      PUSH 20\t\t\t\n      DUP3 \t\t\t\n      ADD \t\t\t\n      SWAP1 \t\t\t\n      POP \t\t\t\n      PUSH [tag] 202\t\t\t\n      PUSH 0\t\t\t\n      DUP4 \t\t\t\n      ADD \t\t\t\n      DUP5 \t\t\t\n      PUSH [tag] 109\t\t\t\n      JUMP \t\t\t\n    tag 202\t\t\t\n      JUMPDEST \t\t\t\n      SWAP3 \t\t\t\n      SWAP2 \t\t\t\n      POP \t\t\t\n      POP \t\t\t\n      JUMP \t\t\t\n    tag 110\t\t\t\n      JUMPDEST \t\t\t\n      PUSH [tag] 204\t\t\t\n      DUP2 \t\t\t\n      PUSH [tag] 108\t\t\t\n      JUMP \t\t\t\n    tag 204\t\t\t\n      JUMPDEST \t\t\t\n      DUP2 \t\t\t\n      EQ \t\t\t\n      PUSH [tag] 205\t\t\t\n      JUMPI \t\t\t\n      PUSH 0\t\t\t\n      DUP1 \t\t\t\n      REVERT \t\t\t\n    tag 205\t\t\t\n      JUMPDEST \t\t\t\n      POP \t\t\t\n      JUMP \t\t\t\n    tag 111\t\t\t\n      JUMPDEST \t\t\t\n      PUSH 0\t\t\t\n      DUP2 \t\t\t\n      CALLDATALOAD \t\t\t\n      SWAP1 \t\t\t\n      POP \t\t\t\n      PUSH [tag] 207\t\t\t\n      DUP2 \t\t\t\n      PUSH [tag] 110\t\t\t\n      JUMP \t\t\t\n    tag 207\t\t\t\n      JUMPDEST \t\t\t\n      SWAP3 \t\t\t\n      SWAP2 \t\t\t\n      POP \t\t\t\n      POP \t\t\t\n      JUMP \t\t\t\n    tag 30\t\t\t\n      JUMPDEST \t\t\t\n      PUSH 0\t\t\t\n      PUSH 20\t\t\t\n      DUP3 \t\t\t\n      DUP5 \t\t\t\n      SUB \t\t\t\n      SLT \t\t\t\n      ISZERO \t\t\t\n      PUSH [tag] 209\t\t\t\n      JUMPI \t\t\t\n      PUSH [tag] 210\t\t\t\n      PUSH [tag] 95\t\t\t\n      JUMP \t\t\t\n    tag 210\t\t\t\n      JUMPDEST \t\t\t\n    tag 209\t\t\t\n      JUMPDEST \t\t\t\n      PUSH 0\t\t\t\n      PUSH [tag] 211\t\t\t\n      DUP5 \t\t\t\n      DUP3 \t\t\t\n      DUP6 \t\t\t\n      ADD \t\t\t\n      PUSH [tag] 111\t\t\t\n      JUMP \t\t\t\n    tag 211\t\t\t\n      JUMPDEST \t\t\t\n      SWAP2 \t\t\t\n      POP \t\t\t\n      POP \t\t\t\n      SWAP3 \t\t\t\n      SWAP2 \t\t\t\n      POP \t\t\t\n      POP \t\t\t\n      JUMP \t\t\t\n    tag 112\t\t\t\n      JUMPDEST \t\t\t\n      PUSH 0\t\t\t\n      DUP2 \t\t\t\n      MLOAD \t\t\t\n      SWAP1 \t\t\t\n      POP \t\t\t\n      SWAP2 \t\t\t\n      SWAP1 \t\t\t\n      POP \t\t\t\n      JUMP \t\t\t\n    tag 113\t\t\t\n      JUMPDEST \t\t\t\n      PUSH 0\t\t\t\n      DUP3 \t\t\t\n      DUP3 \t\t\t\n      MSTORE \t\t\t\n      PUSH 20\t\t\t\n      DUP3 \t\t\t\n      ADD \t\t\t\n      SWAP1 \t\t\t\n      POP \t\t\t\n      SWAP3 \t\t\t\n      SWAP2 \t\t\t\n      POP \t\t\t\n      POP \t\t\t\n      JUMP \t\t\t\n    tag 114\t\t\t\n      JUMPDEST \t\t\t\n      PUSH 0\t\t\t\n      DUP2 \t\t\t\n      SWAP1 \t\t\t\n      POP \t\t\t\n      PUSH 20\t\t\t\n      DUP3 \t\t\t\n      ADD \t\t\t\n      SWAP1 \t\t\t\n      POP \t\t\t\n      SWAP2 \t\t\t\n      SWAP1 \t\t\t\n      POP \t\t\t\n      JUMP \t\t\t\n    tag 115\t\t\t\n      JUMPDEST \t\t\t\n      PUSH 0\t\t\t\n      DUP2 \t\t\t\n      MLOAD \t\t\t\n      SWAP1 \t\t\t\n      POP \t\t\t\n      SWAP2 \t\t\t\n      SWAP1 \t\t\t\n      POP \t\t\t\n      JUMP \t\t\t\n    tag 116\t\t\t\n      JUMPDEST \t\t\t\n      PUSH 0\t\t\t\n      DUP3 \t\t\t\n      DUP3 \t\t\t\n      MSTORE \t\t\t\n      PUSH 20\t\t\t\n      DUP3 \t\t\t\n      ADD \t\t\t\n      SWAP1 \t\t\t\n      POP \t\t\t\n      SWAP3 \t\t\t\n      SWAP2 \t\t\t\n      POP \t\t\t\n      POP \t\t\t\n      JUMP \t\t\t\n    tag 117\t\t\t\n      JUMPDEST \t\t\t\n      PUSH 0\t\t\t\n    tag 218\t\t\t\n      JUMPDEST \t\t\t\n      DUP4 \t\t\t\n      DUP2 \t\t\t\n      LT \t\t\t\n      ISZERO \t\t\t\n      PUSH [tag] 220\t\t\t\n      JUMPI \t\t\t\n      DUP1 \t\t\t\n      DUP3 \t\t\t\n      ADD \t\t\t\n      MLOAD \t\t\t\n      DUP2 \t\t\t\n      DUP5 \t\t\t\n      ADD \t\t\t\n      MSTORE \t\t\t\n      PUSH 20\t\t\t\n      DUP2 \t\t\t\n      ADD \t\t\t\n      SWAP1 \t\t\t\n      POP \t\t\t\n      PUSH [tag] 218\t\t\t\n      JUMP \t\t\t\n    tag 220\t\t\t\n      JUMPDEST \t\t\t\n      PUSH 0\t\t\t\n      DUP5 \t\t\t\n      DUP5 \t\t\t\n      ADD \t\t\t\n      MSTORE \t\t\t\n      POP \t\t\t\n      POP \t\t\t\n      POP \t\t\t\n      POP \t\t\t\n      JUMP \t\t\t\n    tag 118\t\t\t\n      JUMPDEST \t\t\t\n      PUSH 0\t\t\t\n      PUSH [tag] 222\t\t\t\n      DUP3 \t\t\t\n      PUSH [tag] 115\t\t\t\n      JUMP \t\t\t\n    tag 222\t\t\t\n      JUMPDEST \t\t\t\n      PUSH [tag] 223\t\t\t\n      DUP2 \t\t\t\n      DUP6 \t\t\t\n      PUSH [tag] 116\t\t\t\n      JUMP \t\t\t\n    tag 223\t\t\t\n      JUMPDEST \t\t\t\n      SWAP4 \t\t\t\n      POP \t\t\t\n      PUSH [tag] 224\t\t\t\n      DUP2 \t\t\t\n      DUP6 \t\t\t\n      PUSH 20\t\t\t\n      DUP7 \t\t\t\n      ADD \t\t\t\n      PUSH [tag] 117\t\t\t\n      JUMP \t\t\t\n    tag 224\t\t\t\n      JUMPDEST \t\t\t\n      PUSH [tag] 225\t\t\t\n      DUP2 \t\t\t\n      PUSH [tag] 99\t\t\t\n      JUMP \t\t\t\n    tag 225\t\t\t\n      JUMPDEST \t\t\t\n      DUP5 \t\t\t\n      ADD \t\t\t\n      SWAP2 \t\t\t\n      POP \t\t\t\n      POP \t\t\t\n      SWAP3 \t\t\t\n      SWAP2 \t\t\t\n      POP \t\t\t\n      POP \t\t\t\n      JUMP \t\t\t\n    tag 119\t\t\t\n      JUMPDEST \t\t\t\n      PUSH 0\t\t\t\n      DUP2 \t\t\t\n      SWAP1 \t\t\t\n      POP \t\t\t\n      SWAP2 \t\t\t\n      SWAP1 \t\t\t\n      POP \t\t\t\n      JUMP \t\t\t\n    tag 120\t\t\t\n      JUMPDEST \t\t\t\n      PUSH [tag] 228\t\t\t\n      DUP2 \t\t\t\n      PUSH [tag] 119\t\t\t\n      JUMP \t\t\t\n    tag 228\t\t\t\n      JUMPDEST \t\t\t\n      DUP3 \t\t\t\n      MSTORE \t\t\t\n      POP \t\t\t\n      POP \t\t\t\n      JUMP \t\t\t\n    tag 121\t\t\t\n      JUMPDEST \t\t\t\n      PUSH 0\t\t\t\n      PUSH 60\t\t\t\n      DUP4 \t\t\t\n      ADD \t\t\t\n      PUSH 0\t\t\t\n      DUP4 \t\t\t\n      ADD \t\t\t\n      MLOAD \t\t\t\n      DUP5 \t\t\t\n      DUP3 \t\t\t\n      SUB \t\t\t\n      PUSH 0\t\t\t\n      DUP7 \t\t\t\n      ADD \t\t\t\n      MSTORE \t\t\t\n      PUSH [tag] 230\t\t\t\n      DUP3 \t\t\t\n      DUP3 \t\t\t\n      PUSH [tag] 118\t\t\t\n      JUMP \t\t\t\n    tag 230\t\t\t\n      JUMPDEST \t\t\t\n      SWAP2 \t\t\t\n      POP \t\t\t\n      POP \t\t\t\n      PUSH 20\t\t\t\n      DUP4 \t\t\t\n      ADD \t\t\t\n      MLOAD \t\t\t\n      DUP5 \t\t\t\n      DUP3 \t\t\t\n      SUB \t\t\t\n      PUSH 20\t\t\t\n      DUP7 \t\t\t\n      ADD \t\t\t\n      MSTORE \t\t\t\n      PUSH [tag] 231\t\t\t\n      DUP3 \t\t\t\n      DUP3 \t\t\t\n      PUSH [tag] 118\t\t\t\n      JUMP \t\t\t\n    tag 231\t\t\t\n      JUMPDEST \t\t\t\n      SWAP2 \t\t\t\n      POP \t\t\t\n      POP \t\t\t\n      PUSH 40\t\t\t\n      DUP4 \t\t\t\n      ADD \t\t\t\n      MLOAD \t\t\t\n      PUSH [tag] 232\t\t\t\n      PUSH 40\t\t\t\n      DUP7 \t\t\t\n      ADD \t\t\t\n      DUP3 \t\t\t\n      PUSH [tag] 120\t\t\t\n      JUMP \t\t\t\n    tag 232\t\t\t\n      JUMPDEST \t\t\t\n      POP \t\t\t\n      DUP1 \t\t\t\n      SWAP2 \t\t\t\n      POP \t\t\t\n      POP \t\t\t\n      SWAP3 \t\t\t\n      SWAP2 \t\t\t\n      POP \t\t\t\n      POP \t\t\t\n      JUMP \t\t\t\n    tag 122\t\t\t\n      JUMPDEST \t\t\t\n      PUSH 0\t\t\t\n      PUSH [tag] 234\t\t\t\n      DUP4 \t\t\t\n      DUP4 \t\t\t\n      PUSH [tag] 121\t\t\t\n      JUMP \t\t\t\n    tag 234\t\t\t\n      JUMPDEST \t\t\t\n      SWAP1 \t\t\t\n      POP \t\t\t\n      SWAP3 \t\t\t\n      SWAP2 \t\t\t\n      POP \t\t\t\n      POP \t\t\t\n      JUMP \t\t\t\n    tag 123\t\t\t\n      JUMPDEST \t\t\t\n      PUSH 0\t\t\t\n      PUSH 20\t\t\t\n      DUP3 \t\t\t\n      ADD \t\t\t\n      SWAP1 \t\t\t\n      POP \t\t\t\n      SWAP2 \t\t\t\n      SWAP1 \t\t\t\n      POP \t\t\t\n      JUMP \t\t\t\n    tag 124\t\t\t\n      JUMPDEST \t\t\t\n      PUSH 0\t\t\t\n      PUSH [tag] 237\t\t\t\n      DUP3 \t\t\t\n      PUSH [tag] 112\t\t\t\n      JUMP \t\t\t\n    tag 237\t\t\t\n      JUMPDEST \t\t\t\n      PUSH [tag] 238\t\t\t\n      DUP2 \t\t\t\n      DUP6 \t\t\t\n      PUSH [tag] 113\t\t\t\n      JUMP \t\t\t\n    tag 238\t\t\t\n      JUMPDEST \t\t\t\n      SWAP4 \t\t\t\n      POP \t\t\t\n      DUP4 \t\t\t\n      PUSH 20\t\t\t\n      DUP3 \t\t\t\n      MUL \t\t\t\n      DUP6 \t\t\t\n      ADD \t\t\t\n      PUSH [tag] 239\t\t\t\n      DUP6 \t\t\t\n      PUSH [tag] 114\t\t\t\n      JUMP \t\t\t\n    tag 239\t\t\t\n      JUMPDEST \t\t\t\n      DUP1 \t\t\t\n      PUSH 0\t\t\t\n    tag 240\t\t\t\n      JUMPDEST \t\t\t\n      DUP6 \t\t\t\n      DUP2 \t\t\t\n      LT \t\t\t\n      ISZERO \t\t\t\n      PUSH [tag] 242\t\t\t\n      JUMPI \t\t\t\n      DUP5 \t\t\t\n      DUP5 \t\t\t\n      SUB \t\t\t\n      DUP10 \t\t\t\n      MSTORE \t\t\t\n      DUP2 \t\t\t\n      MLOAD \t\t\t\n      PUSH [tag] 243\t\t\t\n      DUP6 \t\t\t\n      DUP3 \t\t\t\n      PUSH [tag] 122\t\t\t\n      JUMP \t\t\t\n    tag 243\t\t\t\n      JUMPDEST \t\t\t\n      SWAP5 \t\t\t\n      POP \t\t\t\n      PUSH [tag] 244\t\t\t\n      DUP4 \t\t\t\n      PUSH [tag] 123\t\t\t\n      JUMP \t\t\t\n    tag 244\t\t\t\n      JUMPDEST \t\t\t\n      SWAP3 \t\t\t\n      POP \t\t\t\n      PUSH 20\t\t\t\n      DUP11 \t\t\t\n      ADD \t\t\t\n      SWAP10 \t\t\t\n      POP \t\t\t\n      POP \t\t\t\n      PUSH 1\t\t\t\n      DUP2 \t\t\t\n      ADD \t\t\t\n      SWAP1 \t\t\t\n      POP \t\t\t\n      PUSH [tag] 240\t\t\t\n      JUMP \t\t\t\n    tag 242\t\t\t\n      JUMPDEST \t\t\t\n      POP \t\t\t\n      DUP3 \t\t\t\n      SWAP8 \t\t\t\n      POP \t\t\t\n      DUP8 \t\t\t\n      SWAP6 \t\t\t\n      POP \t\t\t\n      POP \t\t\t\n      POP \t\t\t\n      POP \t\t\t\n      POP \t\t\t\n      POP \t\t\t\n      SWAP3 \t\t\t\n      SWAP2 \t\t\t\n      POP \t\t\t\n      POP \t\t\t\n      JUMP \t\t\t\n    tag 33\t\t\t\n      JUMPDEST \t\t\t\n      PUSH 0\t\t\t\n      PUSH 20\t\t\t\n      DUP3 \t\t\t\n      ADD \t\t\t\n      SWAP1 \t\t\t\n      POP \t\t\t\n      DUP2 \t\t\t\n      DUP2 \t\t\t\n      SUB \t\t\t\n      PUSH 0\t\t\t\n      DUP4 \t\t\t\n      ADD \t\t\t\n      MSTORE \t\t\t\n      PUSH [tag] 246\t\t\t\n      DUP2 \t\t\t\n      DUP5 \t\t\t\n      PUSH [tag] 124\t\t\t\n      JUMP \t\t\t\n    tag 246\t\t\t\n      JUMPDEST \t\t\t\n      SWAP1 \t\t\t\n      POP \t\t\t\n      SWAP3 \t\t\t\n      SWAP2 \t\t\t\n      POP \t\t\t\n      POP \t\t\t\n      JUMP \t\t\t\n    tag 125\t\t\t\n      JUMPDEST \t\t\t\n      PUSH [tag] 248\t\t\t\n      DUP2 \t\t\t\n      PUSH [tag] 119\t\t\t\n      JUMP \t\t\t\n    tag 248\t\t\t\n      JUMPDEST \t\t\t\n      DUP2 \t\t\t\n      EQ \t\t\t\n      PUSH [tag] 249\t\t\t\n      JUMPI \t\t\t\n      PUSH 0\t\t\t\n      DUP1 \t\t\t\n      REVERT \t\t\t\n    tag 249\t\t\t\n      JUMPDEST \t\t\t\n      POP \t\t\t\n      JUMP \t\t\t\n    tag 126\t\t\t\n      JUMPDEST \t\t\t\n      PUSH 0\t\t\t\n      DUP2 \t\t\t\n      CALLDATALOAD \t\t\t\n      SWAP1 \t\t\t\n      POP \t\t\t\n      PUSH [tag] 251\t\t\t\n      DUP2 \t\t\t\n      PUSH [tag] 125\t\t\t\n      JUMP \t\t\t\n    tag 251\t\t\t\n      JUMPDEST \t\t\t\n      SWAP3 \t\t\t\n      SWAP2 \t\t\t\n      POP \t\t\t\n      POP \t\t\t\n      JUMP \t\t\t\n    tag 37\t\t\t\n      JUMPDEST \t\t\t\n      PUSH 0\t\t\t\n      DUP1 \t\t\t\n      PUSH 40\t\t\t\n      DUP4 \t\t\t\n      DUP6 \t\t\t\n      SUB \t\t\t\n      SLT \t\t\t\n      ISZERO \t\t\t\n      PUSH [tag] 253\t\t\t\n      JUMPI \t\t\t\n      PUSH [tag] 254\t\t\t\n      PUSH [tag] 95\t\t\t\n      JUMP \t\t\t\n    tag 254\t\t\t\n      JUMPDEST \t\t\t\n    tag 253\t\t\t\n      JUMPDEST \t\t\t\n      PUSH 0\t\t\t\n      PUSH [tag] 255\t\t\t\n      DUP6 \t\t\t\n      DUP3 \t\t\t\n      DUP7 \t\t\t\n      ADD \t\t\t\n      PUSH [tag] 111\t\t\t\n      JUMP \t\t\t\n    tag 255\t\t\t\n      JUMPDEST \t\t\t\n      SWAP3 \t\t\t\n      POP \t\t\t\n      POP \t\t\t\n      PUSH 20\t\t\t\n      PUSH [tag] 256\t\t\t\n      DUP6 \t\t\t\n      DUP3 \t\t\t\n      DUP7 \t\t\t\n      ADD \t\t\t\n      PUSH [tag] 126\t\t\t\n      JUMP \t\t\t\n    tag 256\t\t\t\n      JUMPDEST \t\t\t\n      SWAP2 \t\t\t\n      POP \t\t\t\n      POP \t\t\t\n      SWAP3 \t\t\t\n      POP \t\t\t\n      SWAP3 \t\t\t\n      SWAP1 \t\t\t\n      POP \t\t\t\n      JUMP \t\t\t\n    tag 127\t\t\t\n      JUMPDEST \t\t\t\n      PUSH 0\t\t\t\n      DUP3 \t\t\t\n      DUP3 \t\t\t\n      MSTORE \t\t\t\n      PUSH 20\t\t\t\n      DUP3 \t\t\t\n      ADD \t\t\t\n      SWAP1 \t\t\t\n      POP \t\t\t\n      SWAP3 \t\t\t\n      SWAP2 \t\t\t\n      POP \t\t\t\n      POP \t\t\t\n      JUMP \t\t\t\n    tag 128\t\t\t\n      JUMPDEST \t\t\t\n      PUSH 0\t\t\t\n      PUSH [tag] 259\t\t\t\n      DUP3 \t\t\t\n      PUSH [tag] 115\t\t\t\n      JUMP \t\t\t\n    tag 259\t\t\t\n      JUMPDEST \t\t\t\n      PUSH [tag] 260\t\t\t\n      DUP2 \t\t\t\n      DUP6 \t\t\t\n      PUSH [tag] 127\t\t\t\n      JUMP \t\t\t\n    tag 260\t\t\t\n      JUMPDEST \t\t\t\n      SWAP4 \t\t\t\n      POP \t\t\t\n      PUSH [tag] 261\t\t\t\n      DUP2 \t\t\t\n      DUP6 \t\t\t\n      PUSH 20\t\t\t\n      DUP7 \t\t\t\n      ADD \t\t\t\n      PUSH [tag] 117\t\t\t\n      JUMP \t\t\t\n    tag 261\t\t\t\n      JUMPDEST \t\t\t\n      PUSH [tag] 262\t\t\t\n      DUP2 \t\t\t\n      PUSH [tag] 99\t\t\t\n      JUMP \t\t\t\n    tag 262\t\t\t\n      JUMPDEST \t\t\t\n      DUP5 \t\t\t\n      ADD \t\t\t\n      SWAP2 \t\t\t\n      POP \t\t\t\n      POP \t\t\t\n      SWAP3 \t\t\t\n      SWAP2 \t\t\t\n      POP \t\t\t\n      POP \t\t\t\n      JUMP \t\t\t\n    tag 129\t\t\t\n      JUMPDEST \t\t\t\n      PUSH [tag] 264\t\t\t\n      DUP2 \t\t\t\n      PUSH [tag] 119\t\t\t\n      JUMP \t\t\t\n    tag 264\t\t\t\n      JUMPDEST \t\t\t\n      DUP3 \t\t\t\n      MSTORE \t\t\t\n      POP \t\t\t\n      POP \t\t\t\n      JUMP \t\t\t\n    tag 40\t\t\t\n      JUMPDEST \t\t\t\n      PUSH 0\t\t\t\n      PUSH 60\t\t\t\n      DUP3 \t\t\t\n      ADD \t\t\t\n      SWAP1 \t\t\t\n      POP \t\t\t\n      DUP2 \t\t\t\n      DUP2 \t\t\t\n      SUB \t\t\t\n      PUSH 0\t\t\t\n      DUP4 \t\t\t\n      ADD \t\t\t\n      MSTORE \t\t\t\n      PUSH [tag] 266\t\t\t\n      DUP2 \t\t\t\n      DUP7 \t\t\t\n      PUSH [tag] 128\t\t\t\n      JUMP \t\t\t\n    tag 266\t\t\t\n      JUMPDEST \t\t\t\n      SWAP1 \t\t\t\n      POP \t\t\t\n      DUP2 \t\t\t\n      DUP2 \t\t\t\n      SUB \t\t\t\n      PUSH 20\t\t\t\n      DUP4 \t\t\t\n      ADD \t\t\t\n      MSTORE \t\t\t\n      PUSH [tag] 267\t\t\t\n      DUP2 \t\t\t\n      DUP6 \t\t\t\n      PUSH [tag] 128\t\t\t\n      JUMP \t\t\t\n    tag 267\t\t\t\n      JUMPDEST \t\t\t\n      SWAP1 \t\t\t\n      POP \t\t\t\n      PUSH [tag] 268\t\t\t\n      PUSH 40\t\t\t\n      DUP4 \t\t\t\n      ADD \t\t\t\n      DUP5 \t\t\t\n      PUSH [tag] 129\t\t\t\n      JUMP \t\t\t\n    tag 268\t\t\t\n      JUMPDEST \t\t\t\n      SWAP5 \t\t\t\n      SWAP4 \t\t\t\n      POP \t\t\t\n      POP \t\t\t\n      POP \t\t\t\n      POP \t\t\t\n      JUMP \t\t\t\n    tag 45\t\t\t\n      JUMPDEST \t\t\t\n      PUSH 0\t\t\t\n      PUSH 20\t\t\t\n      DUP3 \t\t\t\n      ADD \t\t\t\n      SWAP1 \t\t\t\n      POP \t\t\t\n      PUSH [tag] 270\t\t\t\n      PUSH 0\t\t\t\n      DUP4 \t\t\t\n      ADD \t\t\t\n      DUP5 \t\t\t\n      PUSH [tag] 129\t\t\t\n      JUMP \t\t\t\n    tag 270\t\t\t\n      JUMPDEST \t\t\t\n      SWAP3 \t\t\t\n      SWAP2 \t\t\t\n      POP \t\t\t\n      POP \t\t\t\n      JUMP \t\t\t\n    tag 130\t\t\t\n      JUMPDEST \t\t\t\n      PUSH 4D6F6E746F20696E636F72726563746F00000000000000000000000000000000\t\t\t\n      PUSH 0\t\t\t\n      DUP3 \t\t\t\n      ADD \t\t\t\n      MSTORE \t\t\t\n      POP \t\t\t\n      JUMP \t\t\t\n    tag 131\t\t\t\n      JUMPDEST \t\t\t\n      PUSH 0\t\t\t\n      PUSH [tag] 273\t\t\t\n      PUSH 10\t\t\t\n      DUP4 \t\t\t\n      PUSH [tag] 127\t\t\t\n      JUMP \t\t\t\n    tag 273\t\t\t\n      JUMPDEST \t\t\t\n      SWAP2 \t\t\t\n      POP \t\t\t\n      PUSH [tag] 274\t\t\t\n      DUP3 \t\t\t\n      PUSH [tag] 130\t\t\t\n      JUMP \t\t\t\n    tag 274\t\t\t\n      JUMPDEST \t\t\t\n      PUSH 20\t\t\t\n      DUP3 \t\t\t\n      ADD \t\t\t\n      SWAP1 \t\t\t\n      POP \t\t\t\n      SWAP2 \t\t\t\n      SWAP1 \t\t\t\n      POP \t\t\t\n      JUMP \t\t\t\n    tag 49\t\t\t\n      JUMPDEST \t\t\t\n      PUSH 0\t\t\t\n      PUSH 20\t\t\t\n      DUP3 \t\t\t\n      ADD \t\t\t\n      SWAP1 \t\t\t\n      POP \t\t\t\n      DUP2 \t\t\t\n      DUP2 \t\t\t\n      SUB \t\t\t\n      PUSH 0\t\t\t\n      DUP4 \t\t\t\n      ADD \t\t\t\n      MSTORE \t\t\t\n      PUSH [tag] 276\t\t\t\n      DUP2 \t\t\t\n      PUSH [tag] 131\t\t\t\n      JUMP \t\t\t\n    tag 276\t\t\t\n      JUMPDEST \t\t\t\n      SWAP1 \t\t\t\n      POP \t\t\t\n      SWAP2 \t\t\t\n      SWAP1 \t\t\t\n      POP \t\t\t\n      JUMP \t\t\t\n    tag 132\t\t\t\n      JUMPDEST \t\t\t\n      PUSH 4C696D69746520646520626F6C65746F7320616C63616E7A61646F0000000000\t\t\t\n      PUSH 0\t\t\t\n      DUP3 \t\t\t\n      ADD \t\t\t\n      MSTORE \t\t\t\n      POP \t\t\t\n      JUMP \t\t\t\n    tag 133\t\t\t\n      JUMPDEST \t\t\t\n      PUSH 0\t\t\t\n      PUSH [tag] 279\t\t\t\n      PUSH 1B\t\t\t\n      DUP4 \t\t\t\n      PUSH [tag] 127\t\t\t\n      JUMP \t\t\t\n    tag 279\t\t\t\n      JUMPDEST \t\t\t\n      SWAP2 \t\t\t\n      POP \t\t\t\n      PUSH [tag] 280\t\t\t\n      DUP3 \t\t\t\n      PUSH [tag] 132\t\t\t\n      JUMP \t\t\t\n    tag 280\t\t\t\n      JUMPDEST \t\t\t\n      PUSH 20\t\t\t\n      DUP3 \t\t\t\n      ADD \t\t\t\n      SWAP1 \t\t\t\n      POP \t\t\t\n      SWAP2 \t\t\t\n      SWAP1 \t\t\t\n      POP \t\t\t\n      JUMP \t\t\t\n    tag 52\t\t\t\n      JUMPDEST \t\t\t\n      PUSH 0\t\t\t\n      PUSH 20\t\t\t\n      DUP3 \t\t\t\n      ADD \t\t\t\n      SWAP1 \t\t\t\n      POP \t\t\t\n      DUP2 \t\t\t\n      DUP2 \t\t\t\n      SUB \t\t\t\n      PUSH 0\t\t\t\n      DUP4 \t\t\t\n      ADD \t\t\t\n      MSTORE \t\t\t\n      PUSH [tag] 282\t\t\t\n      DUP2 \t\t\t\n      PUSH [tag] 133\t\t\t\n      JUMP \t\t\t\n    tag 282\t\t\t\n      JUMPDEST \t\t\t\n      SWAP1 \t\t\t\n      POP \t\t\t\n      SWAP2 \t\t\t\n      SWAP1 \t\t\t\n      POP \t\t\t\n      JUMP \t\t\t\n    tag 134\t\t\t\n      JUMPDEST \t\t\t\n      PUSH 4E487B7100000000000000000000000000000000000000000000000000000000\t\t\t\n      PUSH 0\t\t\t\n      MSTORE \t\t\t\n      PUSH 22\t\t\t\n      PUSH 4\t\t\t\n      MSTORE \t\t\t\n      PUSH 24\t\t\t\n      PUSH 0\t\t\t\n      REVERT \t\t\t\n    tag 70\t\t\t\n      JUMPDEST \t\t\t\n      PUSH 0\t\t\t\n      PUSH 2\t\t\t\n      DUP3 \t\t\t\n      DIV \t\t\t\n      SWAP1 \t\t\t\n      POP \t\t\t\n      PUSH 1\t\t\t\n      DUP3 \t\t\t\n      AND \t\t\t\n      DUP1 \t\t\t\n      PUSH [tag] 285\t\t\t\n      JUMPI \t\t\t\n      PUSH 7F\t\t\t\n      DUP3 \t\t\t\n      AND \t\t\t\n      SWAP2 \t\t\t\n      POP \t\t\t\n    tag 285\t\t\t\n      JUMPDEST \t\t\t\n      PUSH 20\t\t\t\n      DUP3 \t\t\t\n      LT \t\t\t\n      DUP2 \t\t\t\n      SUB \t\t\t\n      PUSH [tag] 286\t\t\t\n      JUMPI \t\t\t\n      PUSH [tag] 287\t\t\t\n      PUSH [tag] 134\t\t\t\n      JUMP \t\t\t\n    tag 287\t\t\t\n      JUMPDEST \t\t\t\n    tag 286\t\t\t\n      JUMPDEST \t\t\t\n      POP \t\t\t\n      SWAP2 \t\t\t\n      SWAP1 \t\t\t\n      POP \t\t\t\n      JUMP \t\t\t\n    tag 135\t\t\t\n      JUMPDEST \t\t\t\n      PUSH 0\t\t\t\n      DUP2 \t\t\t\n      SWAP1 \t\t\t\n      POP \t\t\t\n      DUP2 \t\t\t\n      PUSH 0\t\t\t\n      MSTORE \t\t\t\n      PUSH 20\t\t\t\n      PUSH 0\t\t\t\n      KECCAK256 \t\t\t\n      SWAP1 \t\t\t\n      POP \t\t\t\n      SWAP2 \t\t\t\n      SWAP1 \t\t\t\n      POP \t\t\t\n      JUMP \t\t\t\n    tag 136\t\t\t\n      JUMPDEST \t\t\t\n      PUSH 0\t\t\t\n      PUSH 20\t\t\t\n      PUSH 1F\t\t\t\n      DUP4 \t\t\t\n      ADD \t\t\t\n      DIV \t\t\t\n      SWAP1 \t\t\t\n      POP \t\t\t\n      SWAP2 \t\t\t\n      SWAP1 \t\t\t\n      POP \t\t\t\n      JUMP \t\t\t\n    tag 137\t\t\t\n      JUMPDEST \t\t\t\n      PUSH 0\t\t\t\n      DUP3 \t\t\t\n      DUP3 \t\t\t\n      SHL \t\t\t\n      SWAP1 \t\t\t\n      POP \t\t\t\n      SWAP3 \t\t\t\n      SWAP2 \t\t\t\n      POP \t\t\t\n      POP \t\t\t\n      JUMP \t\t\t\n    tag 138\t\t\t\n      JUMPDEST \t\t\t\n      PUSH 0\t\t\t\n      PUSH 8\t\t\t\n      DUP4 \t\t\t\n      MUL \t\t\t\n      PUSH [tag] 292\t\t\t\n      PUSH FFFFFFFFFFFFFFFFFFFFFFFFFFFFFFFFFFFFFFFFFFFFFFFFFFFFFFFFFFFFFFFF\t\t\t\n      DUP3 \t\t\t\n      PUSH [tag] 137\t\t\t\n      JUMP \t\t\t\n    tag 292\t\t\t\n      JUMPDEST \t\t\t\n      PUSH [tag] 293\t\t\t\n      DUP7 \t\t\t\n      DUP4 \t\t\t\n      PUSH [tag] 137\t\t\t\n      JUMP \t\t\t\n    tag 293\t\t\t\n      JUMPDEST \t\t\t\n      SWAP6 \t\t\t\n      POP \t\t\t\n      DUP1 \t\t\t\n      NOT \t\t\t\n      DUP5 \t\t\t\n      AND \t\t\t\n      SWAP4 \t\t\t\n      POP \t\t\t\n      DUP1 \t\t\t\n      DUP7 \t\t\t\n      AND \t\t\t\n      DUP5 \t\t\t\n      OR \t\t\t\n      SWAP3 \t\t\t\n      POP \t\t\t\n      POP \t\t\t\n      POP \t\t\t\n      SWAP4 \t\t\t\n      SWAP3 \t\t\t\n      POP \t\t\t\n      POP \t\t\t\n      POP \t\t\t\n      JUMP \t\t\t\n    tag 139\t\t\t\n      JUMPDEST \t\t\t\n      PUSH 0\t\t\t\n      DUP2 \t\t\t\n      SWAP1 \t\t\t\n      POP \t\t\t\n      SWAP2 \t\t\t\n      SWAP1 \t\t\t\n      POP \t\t\t\n      JUMP \t\t\t\n    tag 140\t\t\t\n      JUMPDEST \t\t\t\n      PUSH 0\t\t\t\n      PUSH [tag] 296\t\t\t\n      PUSH [tag] 297\t\t\t\n      PUSH [tag] 298\t\t\t\n      DUP5 \t\t\t\n      PUSH [tag] 119\t\t\t\n      JUMP \t\t\t\n    tag 298\t\t\t\n      JUMPDEST \t\t\t\n      PUSH [tag] 139\t\t\t\n      JUMP \t\t\t\n    tag 297\t\t\t\n      JUMPDEST \t\t\t\n      PUSH [tag] 119\t\t\t\n      JUMP \t\t\t\n    tag 296\t\t\t\n      JUMPDEST \t\t\t\n      SWAP1 \t\t\t\n      POP \t\t\t\n      SWAP2 \t\t\t\n      SWAP1 \t\t\t\n      POP \t\t\t\n      JUMP \t\t\t\n    tag 141\t\t\t\n      JUMPDEST \t\t\t\n      PUSH 0\t\t\t\n      DUP2 \t\t\t\n      SWAP1 \t\t\t\n      POP \t\t\t\n      SWAP2 \t\t\t\n      SWAP1 \t\t\t\n      POP \t\t\t\n      JUMP \t\t\t\n    tag 142\t\t\t\n      JUMPDEST \t\t\t\n      PUSH [tag] 301\t\t\t\n      DUP4 \t\t\t\n      PUSH [tag] 140\t\t\t\n      JUMP \t\t\t\n    tag 301\t\t\t\n      JUMPDEST \t\t\t\n      PUSH [tag] 302\t\t\t\n      PUSH [tag] 303\t\t\t\n      DUP3 \t\t\t\n      PUSH [tag] 141\t\t\t\n      JUMP \t\t\t\n    tag 303\t\t\t\n      JUMPDEST \t\t\t\n      DUP5 \t\t\t\n      DUP5 \t\t\t\n      SLOAD \t\t\t\n      PUSH [tag] 138\t\t\t\n      JUMP \t\t\t\n    tag 302\t\t\t\n      JUMPDEST \t\t\t\n      DUP3 \t\t\t\n      SSTORE \t\t\t\n      POP \t\t\t\n      POP \t\t\t\n      POP \t\t\t\n      POP \t\t\t\n      JUMP \t\t\t\n    tag 143\t\t\t\n      JUMPDEST \t\t\t\n      PUSH 0\t\t\t\n      SWAP1 \t\t\t\n      JUMP \t\t\t\n    tag 144\t\t\t\n      JUMPDEST \t\t\t\n      PUSH [tag] 306\t\t\t\n      PUSH [tag] 143\t\t\t\n      JUMP \t\t\t\n    tag 306\t\t\t\n      JUMPDEST \t\t\t\n      PUSH [tag] 307\t\t\t\n      DUP2 \t\t\t\n      DUP5 \t\t\t\n      DUP5 \t\t\t\n      PUSH [tag] 142\t\t\t\n      JUMP \t\t\t\n    tag 307\t\t\t\n      JUMPDEST \t\t\t\n      POP \t\t\t\n      POP \t\t\t\n      POP \t\t\t\n      JUMP \t\t\t\n    tag 145\t\t\t\n      JUMPDEST \t\t\t\n    tag 309\t\t\t\n      JUMPDEST \t\t\t\n      DUP2 \t\t\t\n      DUP2 \t\t\t\n      LT \t\t\t\n      ISZERO \t\t\t\n      PUSH [tag] 311\t\t\t\n      JUMPI \t\t\t\n      PUSH [tag] 312\t\t\t\n      PUSH 0\t\t\t\n      DUP3 \t\t\t\n      PUSH [tag] 144\t\t\t\n      JUMP \t\t\t\n    tag 312\t\t\t\n      JUMPDEST \t\t\t\n      PUSH 1\t\t\t\n      DUP2 \t\t\t\n      ADD \t\t\t\n      SWAP1 \t\t\t\n      POP \t\t\t\n      PUSH [tag] 309\t\t\t\n      JUMP \t\t\t\n    tag 311\t\t\t\n      JUMPDEST \t\t\t\n      POP \t\t\t\n      POP \t\t\t\n      JUMP \t\t\t\n    tag 146\t\t\t\n      JUMPDEST \t\t\t\n      PUSH 1F\t\t\t\n      DUP3 \t\t\t\n      GT \t\t\t\n      ISZERO \t\t\t\n      PUSH [tag] 314\t\t\t\n      JUMPI \t\t\t\n      PUSH [tag] 315\t\t\t\n      DUP2 \t\t\t\n      PUSH [tag] 135\t\t\t\n      JUMP \t\t\t\n    tag 315\t\t\t\n      JUMPDEST \t\t\t\n      PUSH [tag] 316\t\t\t\n      DUP5 \t\t\t\n      PUSH [tag] 136\t\t\t\n      JUMP \t\t\t\n    tag 316\t\t\t\n      JUMPDEST \t\t\t\n      DUP2 \t\t\t\n      ADD \t\t\t\n      PUSH 20\t\t\t\n      DUP6 \t\t\t\n      LT \t\t\t\n      ISZERO \t\t\t\n      PUSH [tag] 317\t\t\t\n      JUMPI \t\t\t\n      DUP2 \t\t\t\n      SWAP1 \t\t\t\n      POP \t\t\t\n    tag 317\t\t\t\n      JUMPDEST \t\t\t\n      PUSH [tag] 318\t\t\t\n      PUSH [tag] 319\t\t\t\n      DUP6 \t\t\t\n      PUSH [tag] 136\t\t\t\n      JUMP \t\t\t\n    tag 319\t\t\t\n      JUMPDEST \t\t\t\n      DUP4 \t\t\t\n      ADD \t\t\t\n      DUP3 \t\t\t\n      PUSH [tag] 145\t\t\t\n      JUMP \t\t\t\n    tag 318\t\t\t\n      JUMPDEST \t\t\t\n      POP \t\t\t\n      POP \t\t\t\n    tag 314\t\t\t\n      JUMPDEST \t\t\t\n      POP \t\t\t\n      POP \t\t\t\n      POP \t\t\t\n      JUMP \t\t\t\n    tag 147\t\t\t\n      JUMPDEST \t\t\t\n      PUSH 0\t\t\t\n      DUP3 \t\t\t\n      DUP3 \t\t\t\n      SHR \t\t\t\n      SWAP1 \t\t\t\n      POP \t\t\t\n      SWAP3 \t\t\t\n      SWAP2 \t\t\t\n      POP \t\t\t\n      POP \t\t\t\n      JUMP \t\t\t\n    tag 148\t\t\t\n      JUMPDEST \t\t\t\n      PUSH 0\t\t\t\n      PUSH [tag] 322\t\t\t\n      PUSH 0\t\t\t\n      NOT \t\t\t\n      DUP5 \t\t\t\n      PUSH 8\t\t\t\n      MUL \t\t\t\n      PUSH [tag] 147\t\t\t\n      JUMP \t\t\t\n    tag 322\t\t\t\n      JUMPDEST \t\t\t\n      NOT \t\t\t\n      DUP1 \t\t\t\n      DUP4 \t\t\t\n      AND \t\t\t\n      SWAP2 \t\t\t\n      POP \t\t\t\n      POP \t\t\t\n      SWAP3 \t\t\t\n      SWAP2 \t\t\t\n      POP \t\t\t\n      POP \t\t\t\n      JUMP \t\t\t\n    tag 149\t\t\t\n      JUMPDEST \t\t\t\n      PUSH 0\t\t\t\n      PUSH [tag] 324\t\t\t\n      DUP4 \t\t\t\n      DUP4 \t\t\t\n      PUSH [tag] 148\t\t\t\n      JUMP \t\t\t\n    tag 324\t\t\t\n      JUMPDEST \t\t\t\n      SWAP2 \t\t\t\n      POP \t\t\t\n      DUP3 \t\t\t\n      PUSH 2\t\t\t\n      MUL \t\t\t\n      DUP3 \t\t\t\n      OR \t\t\t\n      SWAP1 \t\t\t\n      POP \t\t\t\n      SWAP3 \t\t\t\n      SWAP2 \t\t\t\n      POP \t\t\t\n      POP \t\t\t\n      JUMP \t\t\t\n    tag 55\t\t\t\n      JUMPDEST \t\t\t\n      PUSH [tag] 326\t\t\t\n      DUP3 \t\t\t\n      PUSH [tag] 115\t\t\t\n      JUMP \t\t\t\n    tag 326\t\t\t\n      JUMPDEST \t\t\t\n      PUSH FFFFFFFFFFFFFFFF\t\t\t\n      DUP2 \t\t\t\n      GT \t\t\t\n      ISZERO \t\t\t\n      PUSH [tag] 327\t\t\t\n      JUMPI \t\t\t\n      PUSH [tag] 328\t\t\t\n      PUSH [tag] 100\t\t\t\n      JUMP \t\t\t\n    tag 328\t\t\t\n      JUMPDEST \t\t\t\n    tag 327\t\t\t\n      JUMPDEST \t\t\t\n      PUSH [tag] 329\t\t\t\n      DUP3 \t\t\t\n      SLOAD \t\t\t\n      PUSH [tag] 70\t\t\t\n      JUMP \t\t\t\n    tag 329\t\t\t\n      JUMPDEST \t\t\t\n      PUSH [tag] 330\t\t\t\n      DUP3 \t\t\t\n      DUP3 \t\t\t\n      DUP6 \t\t\t\n      PUSH [tag] 146\t\t\t\n      JUMP \t\t\t\n    tag 330\t\t\t\n      JUMPDEST \t\t\t\n      PUSH 0\t\t\t\n      PUSH 20\t\t\t\n      SWAP1 \t\t\t\n      POP \t\t\t\n      PUSH 1F\t\t\t\n      DUP4 \t\t\t\n      GT \t\t\t\n      PUSH 1\t\t\t\n      DUP2 \t\t\t\n      EQ \t\t\t\n      PUSH [tag] 332\t\t\t\n      JUMPI \t\t\t\n      PUSH 0\t\t\t\n      DUP5 \t\t\t\n      ISZERO \t\t\t\n      PUSH [tag] 333\t\t\t\n      JUMPI \t\t\t\n      DUP3 \t\t\t\n      DUP8 \t\t\t\n      ADD \t\t\t\n      MLOAD \t\t\t\n      SWAP1 \t\t\t\n      POP \t\t\t\n    tag 333\t\t\t\n      JUMPDEST \t\t\t\n      PUSH [tag] 334\t\t\t\n      DUP6 \t\t\t\n      DUP3 \t\t\t\n      PUSH [tag] 149\t\t\t\n      JUMP \t\t\t\n    tag 334\t\t\t\n      JUMPDEST \t\t\t\n      DUP7 \t\t\t\n      SSTORE \t\t\t\n      POP \t\t\t\n      PUSH [tag] 331\t\t\t\n      JUMP \t\t\t\n    tag 332\t\t\t\n      JUMPDEST \t\t\t\n      PUSH 1F\t\t\t\n      NOT \t\t\t\n      DUP5 \t\t\t\n      AND \t\t\t\n      PUSH [tag] 335\t\t\t\n      DUP7 \t\t\t\n      PUSH [tag] 135\t\t\t\n      JUMP \t\t\t\n    tag 335\t\t\t\n      JUMPDEST \t\t\t\n      PUSH 0\t\t\t\n    tag 336\t\t\t\n      JUMPDEST \t\t\t\n      DUP3 \t\t\t\n      DUP2 \t\t\t\n      LT \t\t\t\n      ISZERO \t\t\t\n      PUSH [tag] 338\t\t\t\n      JUMPI \t\t\t\n      DUP5 \t\t\t\n      DUP10 \t\t\t\n      ADD \t\t\t\n      MLOAD \t\t\t\n      DUP3 \t\t\t\n      SSTORE \t\t\t\n      PUSH 1\t\t\t\n      DUP3 \t\t\t\n      ADD \t\t\t\n      SWAP2 \t\t\t\n      POP \t\t\t\n      PUSH 20\t\t\t\n      DUP6 \t\t\t\n      ADD \t\t\t\n      SWAP5 \t\t\t\n      POP \t\t\t\n      PUSH 20\t\t\t\n      DUP2 \t\t\t\n      ADD \t\t\t\n      SWAP1 \t\t\t\n      POP \t\t\t\n      PUSH [tag] 336\t\t\t\n      JUMP \t\t\t\n    tag 338\t\t\t\n      JUMPDEST \t\t\t\n      DUP7 \t\t\t\n      DUP4 \t\t\t\n      LT \t\t\t\n      ISZERO \t\t\t\n      PUSH [tag] 339\t\t\t\n      JUMPI \t\t\t\n      DUP5 \t\t\t\n      DUP10 \t\t\t\n      ADD \t\t\t\n      MLOAD \t\t\t\n      PUSH [tag] 340\t\t\t\n      PUSH 1F\t\t\t\n      DUP10 \t\t\t\n      AND \t\t\t\n      DUP3 \t\t\t\n      PUSH [tag] 148\t\t\t\n      JUMP \t\t\t\n    tag 340\t\t\t\n      JUMPDEST \t\t\t\n      DUP4 \t\t\t\n      SSTORE \t\t\t\n      POP \t\t\t\n    tag 339\t\t\t\n      JUMPDEST \t\t\t\n      PUSH 1\t\t\t\n      PUSH 2\t\t\t\n      DUP9 \t\t\t\n      MUL \t\t\t\n      ADD \t\t\t\n      DUP9 \t\t\t\n      SSTORE \t\t\t\n      POP \t\t\t\n      POP \t\t\t\n      POP \t\t\t\n    tag 331\t\t\t\n      JUMPDEST \t\t\t\n      POP \t\t\t\n      POP \t\t\t\n      POP \t\t\t\n      POP \t\t\t\n      POP \t\t\t\n      POP \t\t\t\n      JUMP \t\t\t\n    tag 58\t\t\t\n      JUMPDEST \t\t\t\n      PUSH 0\t\t\t\n      PUSH 80\t\t\t\n      DUP3 \t\t\t\n      ADD \t\t\t\n      SWAP1 \t\t\t\n      POP \t\t\t\n      PUSH [tag] 342\t\t\t\n      PUSH 0\t\t\t\n      DUP4 \t\t\t\n      ADD \t\t\t\n      DUP8 \t\t\t\n      PUSH [tag] 109\t\t\t\n      JUMP \t\t\t\n    tag 342\t\t\t\n      JUMPDEST \t\t\t\n      DUP2 \t\t\t\n      DUP2 \t\t\t\n      SUB \t\t\t\n      PUSH 20\t\t\t\n      DUP4 \t\t\t\n      ADD \t\t\t\n      MSTORE \t\t\t\n      PUSH [tag] 343\t\t\t\n      DUP2 \t\t\t\n      DUP7 \t\t\t\n      PUSH [tag] 128\t\t\t\n      JUMP \t\t\t\n    tag 343\t\t\t\n      JUMPDEST \t\t\t\n      SWAP1 \t\t\t\n      POP \t\t\t\n      DUP2 \t\t\t\n      DUP2 \t\t\t\n      SUB \t\t\t\n      PUSH 40\t\t\t\n      DUP4 \t\t\t\n      ADD \t\t\t\n      MSTORE \t\t\t\n      PUSH [tag] 344\t\t\t\n      DUP2 \t\t\t\n      DUP6 \t\t\t\n      PUSH [tag] 128\t\t\t\n      JUMP \t\t\t\n    tag 344\t\t\t\n      JUMPDEST \t\t\t\n      SWAP1 \t\t\t\n      POP \t\t\t\n      PUSH [tag] 345\t\t\t\n      PUSH 60\t\t\t\n      DUP4 \t\t\t\n      ADD \t\t\t\n      DUP5 \t\t\t\n      PUSH [tag] 129\t\t\t\n      JUMP \t\t\t\n    tag 345\t\t\t\n      JUMPDEST \t\t\t\n      SWAP6 \t\t\t\n      SWAP5 \t\t\t\n      POP \t\t\t\n      POP \t\t\t\n      POP \t\t\t\n      POP \t\t\t\n      POP \t\t\t\n      JUMP \t\t\t\n    tag 150\t\t\t\n      JUMPDEST \t\t\t\n      PUSH 4E6F206572657320656C206F776E657200000000000000000000000000000000\t\t\t\n      PUSH 0\t\t\t\n      DUP3 \t\t\t\n      ADD \t\t\t\n      MSTORE \t\t\t\n      POP \t\t\t\n      JUMP \t\t\t\n    tag 151\t\t\t\n      JUMPDEST \t\t\t\n      PUSH 0\t\t\t\n      PUSH [tag] 348\t\t\t\n      PUSH 10\t\t\t\n      DUP4 \t\t\t\n      PUSH [tag] 127\t\t\t\n      JUMP \t\t\t\n    tag 348\t\t\t\n      JUMPDEST \t\t\t\n      SWAP2 \t\t\t\n      POP \t\t\t\n      PUSH [tag] 349\t\t\t\n      DUP3 \t\t\t\n      PUSH [tag] 150\t\t\t\n      JUMP \t\t\t\n    tag 349\t\t\t\n      JUMPDEST \t\t\t\n      PUSH 20\t\t\t\n      DUP3 \t\t\t\n      ADD \t\t\t\n      SWAP1 \t\t\t\n      POP \t\t\t\n      SWAP2 \t\t\t\n      SWAP1 \t\t\t\n      POP \t\t\t\n      JUMP \t\t\t\n    tag 62\t\t\t\n      JUMPDEST \t\t\t\n      PUSH 0\t\t\t\n      PUSH 20\t\t\t\n      DUP3 \t\t\t\n      ADD \t\t\t\n      SWAP1 \t\t\t\n      POP \t\t\t\n      DUP2 \t\t\t\n      DUP2 \t\t\t\n      SUB \t\t\t\n      PUSH 0\t\t\t\n      DUP4 \t\t\t\n      ADD \t\t\t\n      MSTORE \t\t\t\n      PUSH [tag] 351\t\t\t\n      DUP2 \t\t\t\n      PUSH [tag] 151\t\t\t\n      JUMP \t\t\t\n    tag 351\t\t\t\n      JUMPDEST \t\t\t\n      SWAP1 \t\t\t\n      POP \t\t\t\n      SWAP2 \t\t\t\n      SWAP1 \t\t\t\n      POP \t\t\t\n      JUMP \t\t\t\n    .data\n"
}